{
  "_format": "hh-sol-artifact-1",
  "contractName": "TimelockControllerUpgradeable",
  "sourceName": "@openzeppelin/contracts-upgradeable/governance/TimelockControllerUpgradeable.sol",
  "abi": [
    {
      "inputs": [],
      "name": "AccessControlBadConfirmation",
      "type": "error"
    },
    {
      "inputs": [
        {
          "internalType": "address",
          "name": "account",
          "type": "address"
        },
        {
          "internalType": "bytes32",
          "name": "neededRole",
          "type": "bytes32"
        }
      ],
      "name": "AccessControlUnauthorizedAccount",
      "type": "error"
    },
    {
      "inputs": [],
      "name": "FailedInnerCall",
      "type": "error"
    },
    {
      "inputs": [],
      "name": "InvalidInitialization",
      "type": "error"
    },
    {
      "inputs": [],
      "name": "NotInitializing",
      "type": "error"
    },
    {
      "inputs": [
        {
          "internalType": "uint256",
          "name": "delay",
          "type": "uint256"
        },
        {
          "internalType": "uint256",
          "name": "minDelay",
          "type": "uint256"
        }
      ],
      "name": "TimelockInsufficientDelay",
      "type": "error"
    },
    {
      "inputs": [
        {
          "internalType": "uint256",
          "name": "targets",
          "type": "uint256"
        },
        {
          "internalType": "uint256",
          "name": "payloads",
          "type": "uint256"
        },
        {
          "internalType": "uint256",
          "name": "values",
          "type": "uint256"
        }
      ],
      "name": "TimelockInvalidOperationLength",
      "type": "error"
    },
    {
      "inputs": [
        {
          "internalType": "address",
          "name": "caller",
          "type": "address"
        }
      ],
      "name": "TimelockUnauthorizedCaller",
      "type": "error"
    },
    {
      "inputs": [
        {
          "internalType": "bytes32",
          "name": "predecessorId",
          "type": "bytes32"
        }
      ],
      "name": "TimelockUnexecutedPredecessor",
      "type": "error"
    },
    {
      "inputs": [
        {
          "internalType": "bytes32",
          "name": "operationId",
          "type": "bytes32"
        },
        {
          "internalType": "bytes32",
          "name": "expectedStates",
          "type": "bytes32"
        }
      ],
      "name": "TimelockUnexpectedOperationState",
      "type": "error"
    },
    {
      "anonymous": false,
      "inputs": [
        {
          "indexed": true,
          "internalType": "bytes32",
          "name": "id",
          "type": "bytes32"
        },
        {
          "indexed": true,
          "internalType": "uint256",
          "name": "index",
          "type": "uint256"
        },
        {
          "indexed": false,
          "internalType": "address",
          "name": "target",
          "type": "address"
        },
        {
          "indexed": false,
          "internalType": "uint256",
          "name": "value",
          "type": "uint256"
        },
        {
          "indexed": false,
          "internalType": "bytes",
          "name": "data",
          "type": "bytes"
        }
      ],
      "name": "CallExecuted",
      "type": "event"
    },
    {
      "anonymous": false,
      "inputs": [
        {
          "indexed": true,
          "internalType": "bytes32",
          "name": "id",
          "type": "bytes32"
        },
        {
          "indexed": false,
          "internalType": "bytes32",
          "name": "salt",
          "type": "bytes32"
        }
      ],
      "name": "CallSalt",
      "type": "event"
    },
    {
      "anonymous": false,
      "inputs": [
        {
          "indexed": true,
          "internalType": "bytes32",
          "name": "id",
          "type": "bytes32"
        },
        {
          "indexed": true,
          "internalType": "uint256",
          "name": "index",
          "type": "uint256"
        },
        {
          "indexed": false,
          "internalType": "address",
          "name": "target",
          "type": "address"
        },
        {
          "indexed": false,
          "internalType": "uint256",
          "name": "value",
          "type": "uint256"
        },
        {
          "indexed": false,
          "internalType": "bytes",
          "name": "data",
          "type": "bytes"
        },
        {
          "indexed": false,
          "internalType": "bytes32",
          "name": "predecessor",
          "type": "bytes32"
        },
        {
          "indexed": false,
          "internalType": "uint256",
          "name": "delay",
          "type": "uint256"
        }
      ],
      "name": "CallScheduled",
      "type": "event"
    },
    {
      "anonymous": false,
      "inputs": [
        {
          "indexed": true,
          "internalType": "bytes32",
          "name": "id",
          "type": "bytes32"
        }
      ],
      "name": "Cancelled",
      "type": "event"
    },
    {
      "anonymous": false,
      "inputs": [
        {
          "indexed": false,
          "internalType": "uint64",
          "name": "version",
          "type": "uint64"
        }
      ],
      "name": "Initialized",
      "type": "event"
    },
    {
      "anonymous": false,
      "inputs": [
        {
          "indexed": false,
          "internalType": "uint256",
          "name": "oldDuration",
          "type": "uint256"
        },
        {
          "indexed": false,
          "internalType": "uint256",
          "name": "newDuration",
          "type": "uint256"
        }
      ],
      "name": "MinDelayChange",
      "type": "event"
    },
    {
      "anonymous": false,
      "inputs": [
        {
          "indexed": true,
          "internalType": "bytes32",
          "name": "role",
          "type": "bytes32"
        },
        {
          "indexed": true,
          "internalType": "bytes32",
          "name": "previousAdminRole",
          "type": "bytes32"
        },
        {
          "indexed": true,
          "internalType": "bytes32",
          "name": "newAdminRole",
          "type": "bytes32"
        }
      ],
      "name": "RoleAdminChanged",
      "type": "event"
    },
    {
      "anonymous": false,
      "inputs": [
        {
          "indexed": true,
          "internalType": "bytes32",
          "name": "role",
          "type": "bytes32"
        },
        {
          "indexed": true,
          "internalType": "address",
          "name": "account",
          "type": "address"
        },
        {
          "indexed": true,
          "internalType": "address",
          "name": "sender",
          "type": "address"
        }
      ],
      "name": "RoleGranted",
      "type": "event"
    },
    {
      "anonymous": false,
      "inputs": [
        {
          "indexed": true,
          "internalType": "bytes32",
          "name": "role",
          "type": "bytes32"
        },
        {
          "indexed": true,
          "internalType": "address",
          "name": "account",
          "type": "address"
        },
        {
          "indexed": true,
          "internalType": "address",
          "name": "sender",
          "type": "address"
        }
      ],
      "name": "RoleRevoked",
      "type": "event"
    },
    {
      "inputs": [],
      "name": "CANCELLER_ROLE",
      "outputs": [
        {
          "internalType": "bytes32",
          "name": "",
          "type": "bytes32"
        }
      ],
      "stateMutability": "view",
      "type": "function"
    },
    {
      "inputs": [],
      "name": "DEFAULT_ADMIN_ROLE",
      "outputs": [
        {
          "internalType": "bytes32",
          "name": "",
          "type": "bytes32"
        }
      ],
      "stateMutability": "view",
      "type": "function"
    },
    {
      "inputs": [],
      "name": "EXECUTOR_ROLE",
      "outputs": [
        {
          "internalType": "bytes32",
          "name": "",
          "type": "bytes32"
        }
      ],
      "stateMutability": "view",
      "type": "function"
    },
    {
      "inputs": [],
      "name": "PROPOSER_ROLE",
      "outputs": [
        {
          "internalType": "bytes32",
          "name": "",
          "type": "bytes32"
        }
      ],
      "stateMutability": "view",
      "type": "function"
    },
    {
      "inputs": [
        {
          "internalType": "bytes32",
          "name": "id",
          "type": "bytes32"
        }
      ],
      "name": "cancel",
      "outputs": [],
      "stateMutability": "nonpayable",
      "type": "function"
    },
    {
      "inputs": [
        {
          "internalType": "address",
          "name": "target",
          "type": "address"
        },
        {
          "internalType": "uint256",
          "name": "value",
          "type": "uint256"
        },
        {
          "internalType": "bytes",
          "name": "payload",
          "type": "bytes"
        },
        {
          "internalType": "bytes32",
          "name": "predecessor",
          "type": "bytes32"
        },
        {
          "internalType": "bytes32",
          "name": "salt",
          "type": "bytes32"
        }
      ],
      "name": "execute",
      "outputs": [],
      "stateMutability": "payable",
      "type": "function"
    },
    {
      "inputs": [
        {
          "internalType": "address[]",
          "name": "targets",
          "type": "address[]"
        },
        {
          "internalType": "uint256[]",
          "name": "values",
          "type": "uint256[]"
        },
        {
          "internalType": "bytes[]",
          "name": "payloads",
          "type": "bytes[]"
        },
        {
          "internalType": "bytes32",
          "name": "predecessor",
          "type": "bytes32"
        },
        {
          "internalType": "bytes32",
          "name": "salt",
          "type": "bytes32"
        }
      ],
      "name": "executeBatch",
      "outputs": [],
      "stateMutability": "payable",
      "type": "function"
    },
    {
      "inputs": [],
      "name": "getMinDelay",
      "outputs": [
        {
          "internalType": "uint256",
          "name": "",
          "type": "uint256"
        }
      ],
      "stateMutability": "view",
      "type": "function"
    },
    {
      "inputs": [
        {
          "internalType": "bytes32",
          "name": "id",
          "type": "bytes32"
        }
      ],
      "name": "getOperationState",
      "outputs": [
        {
          "internalType": "enum TimelockControllerUpgradeable.OperationState",
          "name": "",
          "type": "uint8"
        }
      ],
      "stateMutability": "view",
      "type": "function"
    },
    {
      "inputs": [
        {
          "internalType": "bytes32",
          "name": "role",
          "type": "bytes32"
        }
      ],
      "name": "getRoleAdmin",
      "outputs": [
        {
          "internalType": "bytes32",
          "name": "",
          "type": "bytes32"
        }
      ],
      "stateMutability": "view",
      "type": "function"
    },
    {
      "inputs": [
        {
          "internalType": "bytes32",
          "name": "id",
          "type": "bytes32"
        }
      ],
      "name": "getTimestamp",
      "outputs": [
        {
          "internalType": "uint256",
          "name": "",
          "type": "uint256"
        }
      ],
      "stateMutability": "view",
      "type": "function"
    },
    {
      "inputs": [
        {
          "internalType": "bytes32",
          "name": "role",
          "type": "bytes32"
        },
        {
          "internalType": "address",
          "name": "account",
          "type": "address"
        }
      ],
      "name": "grantRole",
      "outputs": [],
      "stateMutability": "nonpayable",
      "type": "function"
    },
    {
      "inputs": [
        {
          "internalType": "bytes32",
          "name": "role",
          "type": "bytes32"
        },
        {
          "internalType": "address",
          "name": "account",
          "type": "address"
        }
      ],
      "name": "hasRole",
      "outputs": [
        {
          "internalType": "bool",
          "name": "",
          "type": "bool"
        }
      ],
      "stateMutability": "view",
      "type": "function"
    },
    {
      "inputs": [
        {
          "internalType": "address",
          "name": "target",
          "type": "address"
        },
        {
          "internalType": "uint256",
          "name": "value",
          "type": "uint256"
        },
        {
          "internalType": "bytes",
          "name": "data",
          "type": "bytes"
        },
        {
          "internalType": "bytes32",
          "name": "predecessor",
          "type": "bytes32"
        },
        {
          "internalType": "bytes32",
          "name": "salt",
          "type": "bytes32"
        }
      ],
      "name": "hashOperation",
      "outputs": [
        {
          "internalType": "bytes32",
          "name": "",
          "type": "bytes32"
        }
      ],
      "stateMutability": "pure",
      "type": "function"
    },
    {
      "inputs": [
        {
          "internalType": "address[]",
          "name": "targets",
          "type": "address[]"
        },
        {
          "internalType": "uint256[]",
          "name": "values",
          "type": "uint256[]"
        },
        {
          "internalType": "bytes[]",
          "name": "payloads",
          "type": "bytes[]"
        },
        {
          "internalType": "bytes32",
          "name": "predecessor",
          "type": "bytes32"
        },
        {
          "internalType": "bytes32",
          "name": "salt",
          "type": "bytes32"
        }
      ],
      "name": "hashOperationBatch",
      "outputs": [
        {
          "internalType": "bytes32",
          "name": "",
          "type": "bytes32"
        }
      ],
      "stateMutability": "pure",
      "type": "function"
    },
    {
      "inputs": [
        {
          "internalType": "bytes32",
          "name": "id",
          "type": "bytes32"
        }
      ],
      "name": "isOperation",
      "outputs": [
        {
          "internalType": "bool",
          "name": "",
          "type": "bool"
        }
      ],
      "stateMutability": "view",
      "type": "function"
    },
    {
      "inputs": [
        {
          "internalType": "bytes32",
          "name": "id",
          "type": "bytes32"
        }
      ],
      "name": "isOperationDone",
      "outputs": [
        {
          "internalType": "bool",
          "name": "",
          "type": "bool"
        }
      ],
      "stateMutability": "view",
      "type": "function"
    },
    {
      "inputs": [
        {
          "internalType": "bytes32",
          "name": "id",
          "type": "bytes32"
        }
      ],
      "name": "isOperationPending",
      "outputs": [
        {
          "internalType": "bool",
          "name": "",
          "type": "bool"
        }
      ],
      "stateMutability": "view",
      "type": "function"
    },
    {
      "inputs": [
        {
          "internalType": "bytes32",
          "name": "id",
          "type": "bytes32"
        }
      ],
      "name": "isOperationReady",
      "outputs": [
        {
          "internalType": "bool",
          "name": "",
          "type": "bool"
        }
      ],
      "stateMutability": "view",
      "type": "function"
    },
    {
      "inputs": [
        {
          "internalType": "address",
          "name": "",
          "type": "address"
        },
        {
          "internalType": "address",
          "name": "",
          "type": "address"
        },
        {
          "internalType": "uint256[]",
          "name": "",
          "type": "uint256[]"
        },
        {
          "internalType": "uint256[]",
          "name": "",
          "type": "uint256[]"
        },
        {
          "internalType": "bytes",
          "name": "",
          "type": "bytes"
        }
      ],
      "name": "onERC1155BatchReceived",
      "outputs": [
        {
          "internalType": "bytes4",
          "name": "",
          "type": "bytes4"
        }
      ],
      "stateMutability": "nonpayable",
      "type": "function"
    },
    {
      "inputs": [
        {
          "internalType": "address",
          "name": "",
          "type": "address"
        },
        {
          "internalType": "address",
          "name": "",
          "type": "address"
        },
        {
          "internalType": "uint256",
          "name": "",
          "type": "uint256"
        },
        {
          "internalType": "uint256",
          "name": "",
          "type": "uint256"
        },
        {
          "internalType": "bytes",
          "name": "",
          "type": "bytes"
        }
      ],
      "name": "onERC1155Received",
      "outputs": [
        {
          "internalType": "bytes4",
          "name": "",
          "type": "bytes4"
        }
      ],
      "stateMutability": "nonpayable",
      "type": "function"
    },
    {
      "inputs": [
        {
          "internalType": "address",
          "name": "",
          "type": "address"
        },
        {
          "internalType": "address",
          "name": "",
          "type": "address"
        },
        {
          "internalType": "uint256",
          "name": "",
          "type": "uint256"
        },
        {
          "internalType": "bytes",
          "name": "",
          "type": "bytes"
        }
      ],
      "name": "onERC721Received",
      "outputs": [
        {
          "internalType": "bytes4",
          "name": "",
          "type": "bytes4"
        }
      ],
      "stateMutability": "nonpayable",
      "type": "function"
    },
    {
      "inputs": [
        {
          "internalType": "bytes32",
          "name": "role",
          "type": "bytes32"
        },
        {
          "internalType": "address",
          "name": "callerConfirmation",
          "type": "address"
        }
      ],
      "name": "renounceRole",
      "outputs": [],
      "stateMutability": "nonpayable",
      "type": "function"
    },
    {
      "inputs": [
        {
          "internalType": "bytes32",
          "name": "role",
          "type": "bytes32"
        },
        {
          "internalType": "address",
          "name": "account",
          "type": "address"
        }
      ],
      "name": "revokeRole",
      "outputs": [],
      "stateMutability": "nonpayable",
      "type": "function"
    },
    {
      "inputs": [
        {
          "internalType": "address",
          "name": "target",
          "type": "address"
        },
        {
          "internalType": "uint256",
          "name": "value",
          "type": "uint256"
        },
        {
          "internalType": "bytes",
          "name": "data",
          "type": "bytes"
        },
        {
          "internalType": "bytes32",
          "name": "predecessor",
          "type": "bytes32"
        },
        {
          "internalType": "bytes32",
          "name": "salt",
          "type": "bytes32"
        },
        {
          "internalType": "uint256",
          "name": "delay",
          "type": "uint256"
        }
      ],
      "name": "schedule",
      "outputs": [],
      "stateMutability": "nonpayable",
      "type": "function"
    },
    {
      "inputs": [
        {
          "internalType": "address[]",
          "name": "targets",
          "type": "address[]"
        },
        {
          "internalType": "uint256[]",
          "name": "values",
          "type": "uint256[]"
        },
        {
          "internalType": "bytes[]",
          "name": "payloads",
          "type": "bytes[]"
        },
        {
          "internalType": "bytes32",
          "name": "predecessor",
          "type": "bytes32"
        },
        {
          "internalType": "bytes32",
          "name": "salt",
          "type": "bytes32"
        },
        {
          "internalType": "uint256",
          "name": "delay",
          "type": "uint256"
        }
      ],
      "name": "scheduleBatch",
      "outputs": [],
      "stateMutability": "nonpayable",
      "type": "function"
    },
    {
      "inputs": [
        {
          "internalType": "bytes4",
          "name": "interfaceId",
          "type": "bytes4"
        }
      ],
      "name": "supportsInterface",
      "outputs": [
        {
          "internalType": "bool",
          "name": "",
          "type": "bool"
        }
      ],
      "stateMutability": "view",
      "type": "function"
    },
    {
      "inputs": [
        {
          "internalType": "uint256",
          "name": "newDelay",
          "type": "uint256"
        }
      ],
      "name": "updateDelay",
      "outputs": [],
      "stateMutability": "nonpayable",
      "type": "function"
    },
    {
      "stateMutability": "payable",
      "type": "receive"
    }
  ],
  "bytecode": "0x608060405234801561001057600080fd5b50611b42806100206000396000f3fe6080604052600436106101bb5760003560e01c80638065657f116100ec578063bc197c811161008a578063d547741f11610064578063d547741f14610567578063e38335e514610587578063f23a6e611461059a578063f27a0c92146105c657600080fd5b8063bc197c81146104e1578063c4d252f51461050d578063d45c44351461052d57600080fd5b806391d14854116100c657806391d1485414610458578063a217fddf14610478578063b08e51c01461048d578063b1c5f427146104c157600080fd5b80638065657f146103e45780638f2a0bb0146104045780638f61f4f51461042457600080fd5b80632ab0f5291161015957806336568abe1161013357806336568abe14610357578063584b153e1461037757806364d62353146103975780637958004c146103b757600080fd5b80632ab0f529146102f75780632f2ff15d1461031757806331d507501461033757600080fd5b8063134008d311610195578063134008d31461026057806313bc9f2014610273578063150b7a0214610293578063248a9ca3146102d757600080fd5b806301d5062a146101c757806301ffc9a7146101e957806307bd02651461021e57600080fd5b366101c257005b600080fd5b3480156101d357600080fd5b506101e76101e2366004611284565b6105fa565b005b3480156101f557600080fd5b506102096102043660046112f8565b6106d0565b60405190151581526020015b60405180910390f35b34801561022a57600080fd5b506102527fd8aa0f3194971a2a116679f7c2090f6939c8d4e01a2a8d7e41d55e5351469e6381565b604051908152602001610215565b6101e761026e366004611322565b6106e1565b34801561027f57600080fd5b5061020961028e36600461138d565b610796565b34801561029f57600080fd5b506102be6102ae36600461145b565b630a85bd0160e11b949350505050565b6040516001600160e01b03199091168152602001610215565b3480156102e357600080fd5b506102526102f236600461138d565b6107bc565b34801561030357600080fd5b5061020961031236600461138d565b6107de565b34801561032357600080fd5b506101e76103323660046114c2565b6107e7565b34801561034357600080fd5b5061020961035236600461138d565b610809565b34801561036357600080fd5b506101e76103723660046114c2565b61082e565b34801561038357600080fd5b5061020961039236600461138d565b610866565b3480156103a357600080fd5b506101e76103b236600461138d565b6108ac565b3480156103c357600080fd5b506103d76103d236600461138d565b610931565b6040516102159190611504565b3480156103f057600080fd5b506102526103ff366004611322565b610989565b34801561041057600080fd5b506101e761041f366004611570565b6109c8565b34801561043057600080fd5b506102527fb09aa5aeb3702cfd50b6b62bc4532604938f21248a27a1d5ca736082b6819cc181565b34801561046457600080fd5b506102096104733660046114c2565b610b56565b34801561048457600080fd5b50610252600081565b34801561049957600080fd5b506102527ffd643c72710c63c0180259aba6b2d05451e3591a24e58b62239378085726f78381565b3480156104cd57600080fd5b506102526104dc366004611621565b610b8e565b3480156104ed57600080fd5b506102be6104fc366004611748565b63bc197c8160e01b95945050505050565b34801561051957600080fd5b506101e761052836600461138d565b610bd3565b34801561053957600080fd5b5061025261054836600461138d565b6000908152600080516020611acd833981519152602052604090205490565b34801561057357600080fd5b506101e76105823660046114c2565b610c8e565b6101e7610595366004611621565b610caa565b3480156105a657600080fd5b506102be6105b53660046117f1565b63f23a6e6160e01b95945050505050565b3480156105d257600080fd5b507f9a37c2aa9d186a0969ff8a8267bf4e07e864c2f2768f5040949e28a624fb360154610252565b7fb09aa5aeb3702cfd50b6b62bc4532604938f21248a27a1d5ca736082b6819cc161062481610e31565b6000610634898989898989610989565b90506106408184610e3e565b6000817f4cf4410cc57040e44862ef0f45f3dd5a5e02db8eb8add648d4b0e236f1d07dca8b8b8b8b8b8a60405161067c9695949392919061187e565b60405180910390a383156106c557807f20fda5fd27a1ea7bf5b9567f143ac5470bb059374a27e8f67cb44f946f6d0387856040516106bc91815260200190565b60405180910390a25b505050505050505050565b60006106db82610f01565b92915050565b7fd8aa0f3194971a2a116679f7c2090f6939c8d4e01a2a8d7e41d55e5351469e6361070d816000610b56565b61071b5761071b8133610f26565b600061072b888888888888610989565b90506107378185610f63565b61074388888888610fb1565b6000817fc2617efa69bab66782fa219543714338489c4e9e178271560a91b82c3f612b588a8a8a8a60405161077b94939291906118bb565b60405180910390a361078c81611029565b5050505050505050565b600060025b6107a483610931565b60038111156107b5576107b56114ee565b1492915050565b6000908152600080516020611aed833981519152602052604090206001015490565b6000600361079b565b6107f0826107bc565b6107f981610e31565b6108038383611062565b50505050565b60008061081583610931565b6003811115610826576108266114ee565b141592915050565b6001600160a01b03811633146108575760405163334bd91960e11b815260040160405180910390fd5b6108618282611107565b505050565b60008061087283610931565b90506001816003811115610888576108886114ee565b14806108a5575060028160038111156108a3576108a36114ee565b145b9392505050565b600080516020611acd833981519152333081146108ec5760405163e2850c5960e01b81526001600160a01b03821660048201526024015b60405180910390fd5b600182015460408051918252602082018590527f11c24f4ead16507c69ac467fbd5e4eed5fb5c699626d2cc6d66421df253886d5910160405180910390a15060010155565b6000818152600080516020611acd83398151915260205260408120548060000361095e5750600092915050565b6001810361096f5750600392915050565b428111156109805750600192915050565b50600292915050565b60008686868686866040516020016109a69695949392919061187e565b6040516020818303038152906040528051906020012090509695505050505050565b7fb09aa5aeb3702cfd50b6b62bc4532604938f21248a27a1d5ca736082b6819cc16109f281610e31565b8887141580610a015750888514155b15610a33576040516001624fcdef60e01b03198152600481018a905260248101869052604481018890526064016108e3565b6000610a458b8b8b8b8b8b8b8b610b8e565b9050610a518184610e3e565b60005b8a811015610b075780827f4cf4410cc57040e44862ef0f45f3dd5a5e02db8eb8add648d4b0e236f1d07dca8e8e85818110610a9157610a916118ed565b9050602002016020810190610aa69190611903565b8d8d86818110610ab857610ab86118ed565b905060200201358c8c87818110610ad157610ad16118ed565b9050602002810190610ae3919061191e565b8c8b604051610af79695949392919061187e565b60405180910390a3600101610a54565b508315610b4957807f20fda5fd27a1ea7bf5b9567f143ac5470bb059374a27e8f67cb44f946f6d038785604051610b4091815260200190565b60405180910390a25b5050505050505050505050565b6000918252600080516020611aed833981519152602090815260408084206001600160a01b0393909316845291905290205460ff1690565b60008888888888888888604051602001610baf9897969594939291906119fa565b60405160208183030381529060405280519060200120905098975050505050505050565b7ffd643c72710c63c0180259aba6b2d05451e3591a24e58b62239378085726f783610bfd81610e31565b600080516020611acd833981519152610c1583610866565b610c515782610c246002611183565b610c2e6001611183565b604051635ead8eb560e01b815260048101939093521760248201526044016108e3565b6000838152602082905260408082208290555184917fbaa1eb22f2a492ba1a5fea61b8df4d27c6c8b5f3971e63bb58fa14ff72eedb7091a2505050565b610c97826107bc565b610ca081610e31565b6108038383611107565b7fd8aa0f3194971a2a116679f7c2090f6939c8d4e01a2a8d7e41d55e5351469e63610cd6816000610b56565b610ce457610ce48133610f26565b8786141580610cf35750878414155b15610d25576040516001624fcdef60e01b031981526004810189905260248101859052604481018790526064016108e3565b6000610d378a8a8a8a8a8a8a8a610b8e565b9050610d438185610f63565b60005b89811015610e1b5760008b8b83818110610d6257610d626118ed565b9050602002016020810190610d779190611903565b905060008a8a84818110610d8d57610d8d6118ed565b9050602002013590503660008a8a86818110610dab57610dab6118ed565b9050602002810190610dbd919061191e565b91509150610dcd84848484610fb1565b84867fc2617efa69bab66782fa219543714338489c4e9e178271560a91b82c3f612b5886868686604051610e0494939291906118bb565b60405180910390a350505050806001019050610d46565b50610e2581611029565b50505050505050505050565b610e3b8133610f26565b50565b600080516020611acd833981519152610e5683610809565b15610e885782610e666000611183565b604051635ead8eb560e01b8152600481019290925260248201526044016108e3565b6000610eb27f9a37c2aa9d186a0969ff8a8267bf4e07e864c2f2768f5040949e28a624fb36015490565b905080831015610edf57604051635433660960e01b815260048101849052602481018290526044016108e3565b610ee98342611a9b565b60009485526020929092525060409092209190915550565b60006001600160e01b03198216630271189760e51b14806106db57506106db826111a6565b610f308282610b56565b610f5f5760405163e2517d3f60e01b81526001600160a01b0382166004820152602481018390526044016108e3565b5050565b610f6c82610796565b610f7b5781610e666002611183565b8015801590610f905750610f8e816107de565b155b15610f5f5760405163121534c360e31b8152600481018290526024016108e3565b600080856001600160a01b0316858585604051610fcf929190611abc565b60006040518083038185875af1925050503d806000811461100c576040519150601f19603f3d011682016040523d82523d6000602084013e611011565b606091505b509150915061102082826111db565b50505050505050565b600080516020611acd83398151915261104182610796565b6110505781610e666002611183565b60009182526020526040902060019055565b6000600080516020611aed83398151915261107d8484610b56565b6110fd576000848152602082815260408083206001600160a01b03871684529091529020805460ff191660011790556110b33390565b6001600160a01b0316836001600160a01b0316857f2f8788117e7eff1d82e926ec794901d17c78024a50270940304540a733656f0d60405160405180910390a460019150506106db565b60009150506106db565b6000600080516020611aed8339815191526111228484610b56565b156110fd576000848152602082815260408083206001600160a01b0387168085529252808320805460ff1916905551339287917ff6391f5c32d9c69d2a47ea670b442974b53935d1edc7fd64eb21e047a839171b9190a460019150506106db565b6000816003811115611197576111976114ee565b600160ff919091161b92915050565b60006001600160e01b03198216637965db0b60e01b14806106db57506301ffc9a760e01b6001600160e01b03198316146106db565b6060826111f0576111eb826111f7565b6106db565b50806106db565b8051156112075780518082602001fd5b604051630a12f52160e11b815260040160405180910390fd5b80356001600160a01b038116811461123757600080fd5b919050565b60008083601f84011261124e57600080fd5b5081356001600160401b0381111561126557600080fd5b60208301915083602082850101111561127d57600080fd5b9250929050565b600080600080600080600060c0888a03121561129f57600080fd5b6112a888611220565b96506020880135955060408801356001600160401b038111156112ca57600080fd5b6112d68a828b0161123c565b989b979a50986060810135976080820135975060a09091013595509350505050565b60006020828403121561130a57600080fd5b81356001600160e01b0319811681146108a557600080fd5b60008060008060008060a0878903121561133b57600080fd5b61134487611220565b95506020870135945060408701356001600160401b0381111561136657600080fd5b61137289828a0161123c565b979a9699509760608101359660809091013595509350505050565b60006020828403121561139f57600080fd5b5035919050565b634e487b7160e01b600052604160045260246000fd5b604051601f8201601f191681016001600160401b03811182821017156113e4576113e46113a6565b604052919050565b600082601f8301126113fd57600080fd5b81356001600160401b03811115611416576114166113a6565b611429601f8201601f19166020016113bc565b81815284602083860101111561143e57600080fd5b816020850160208301376000918101602001919091529392505050565b6000806000806080858703121561147157600080fd5b61147a85611220565b935061148860208601611220565b92506040850135915060608501356001600160401b038111156114aa57600080fd5b6114b6878288016113ec565b91505092959194509250565b600080604083850312156114d557600080fd5b823591506114e560208401611220565b90509250929050565b634e487b7160e01b600052602160045260246000fd5b602081016004831061152657634e487b7160e01b600052602160045260246000fd5b91905290565b60008083601f84011261153e57600080fd5b5081356001600160401b0381111561155557600080fd5b6020830191508360208260051b850101111561127d57600080fd5b600080600080600080600080600060c08a8c03121561158e57600080fd5b89356001600160401b03808211156115a557600080fd5b6115b18d838e0161152c565b909b50995060208c01359150808211156115ca57600080fd5b6115d68d838e0161152c565b909950975060408c01359150808211156115ef57600080fd5b506115fc8c828d0161152c565b9a9d999c50979a969997986060880135976080810135975060a0013595509350505050565b60008060008060008060008060a0898b03121561163d57600080fd5b88356001600160401b038082111561165457600080fd5b6116608c838d0161152c565b909a50985060208b013591508082111561167957600080fd5b6116858c838d0161152c565b909850965060408b013591508082111561169e57600080fd5b506116ab8b828c0161152c565b999c989b509699959896976060870135966080013595509350505050565b600082601f8301126116da57600080fd5b813560206001600160401b038211156116f5576116f56113a6565b8160051b6117048282016113bc565b928352848101820192828101908785111561171e57600080fd5b83870192505b8483101561173d57823582529183019190830190611724565b979650505050505050565b600080600080600060a0868803121561176057600080fd5b61176986611220565b945061177760208701611220565b935060408601356001600160401b038082111561179357600080fd5b61179f89838a016116c9565b945060608801359150808211156117b557600080fd5b6117c189838a016116c9565b935060808801359150808211156117d757600080fd5b506117e4888289016113ec565b9150509295509295909350565b600080600080600060a0868803121561180957600080fd5b61181286611220565b945061182060208701611220565b9350604086013592506060860135915060808601356001600160401b0381111561184957600080fd5b6117e4888289016113ec565b81835281816020850137506000828201602090810191909152601f909101601f19169091010190565b60018060a01b038716815285602082015260a0604082015260006118a660a083018688611855565b60608301949094525060800152949350505050565b60018060a01b03851681528360208201526060604082015260006118e3606083018486611855565b9695505050505050565b634e487b7160e01b600052603260045260246000fd5b60006020828403121561191557600080fd5b6108a582611220565b6000808335601e1984360301811261193557600080fd5b8301803591506001600160401b0382111561194f57600080fd5b60200191503681900382131561127d57600080fd5b6000838385526020808601955060208560051b8301018460005b878110156119ed57848303601f19018952813536889003601e190181126119a457600080fd5b870184810190356001600160401b038111156119bf57600080fd5b8036038213156119ce57600080fd5b6119d9858284611855565b9a86019a945050509083019060010161197e565b5090979650505050505050565b60a0808252810188905260008960c08301825b8b811015611a3b576001600160a01b03611a2684611220565b16825260209283019290910190600101611a0d565b5083810360208501528881526001600160fb1b03891115611a5b57600080fd5b8860051b9150818a60208301370182810360209081016040850152611a839082018789611964565b60608401959095525050608001529695505050505050565b808201808211156106db57634e487b7160e01b600052601160045260246000fd5b818382376000910190815291905056fe9a37c2aa9d186a0969ff8a8267bf4e07e864c2f2768f5040949e28a624fb360002dd7bc7dec4dceedda775e58dd541e08a116c6c53815c0bd028192f7b626800a26469706673582212202ea9086685f0d5f46e1575e7616ba8098f5aa4e89698e3295f2ca562a2be60bc64736f6c63430008180033",
  "linkReferences": {},
  "deployedLinkReferences": {}
}