{
  "_format": "hh-sol-artifact-1",
  "contractName": "PromptUpdate",
  "sourceName": "contracts/PromptUpdate.sol",
  "abi": [
    {
      "inputs": [
        {
          "internalType": "address",
          "name": "_usdcTokenAddress",
          "type": "address"
        },
        {
          "internalType": "address",
          "name": "_daoTokenAddress",
          "type": "address"
        },
        {
          "internalType": "address",
          "name": "_myTokenAddress",
          "type": "address"
        },
        {
          "internalType": "address",
          "name": "_governanceAddress",
          "type": "address"
        }
      ],
      "stateMutability": "nonpayable",
      "type": "constructor"
    },
    {
      "inputs": [
        {
          "internalType": "address",
          "name": "target",
          "type": "address"
        }
      ],
      "name": "AddressEmptyCode",
      "type": "error"
    },
    {
      "inputs": [
        {
          "internalType": "address",
          "name": "account",
          "type": "address"
        }
      ],
      "name": "AddressInsufficientBalance",
      "type": "error"
    },
    {
      "inputs": [],
      "name": "FailedInnerCall",
      "type": "error"
    },
    {
      "inputs": [
        {
          "internalType": "address",
          "name": "token",
          "type": "address"
        }
      ],
      "name": "SafeERC20FailedOperation",
      "type": "error"
    },
    {
      "anonymous": false,
      "inputs": [
        {
          "indexed": false,
          "internalType": "string",
          "name": "newPrompt",
          "type": "string"
        }
      ],
      "name": "PromptUpdated",
      "type": "event"
    },
    {
      "inputs": [
        {
          "internalType": "uint256",
          "name": "price",
          "type": "uint256"
        }
      ],
      "name": "approximateTickFromPrice",
      "outputs": [
        {
          "internalType": "int24",
          "name": "tick",
          "type": "int24"
        }
      ],
      "stateMutability": "pure",
      "type": "function"
    },
    {
      "inputs": [],
      "name": "fee",
      "outputs": [
        {
          "internalType": "uint24",
          "name": "",
          "type": "uint24"
        }
      ],
      "stateMutability": "view",
      "type": "function"
    },
    {
      "inputs": [],
      "name": "getCurrentPrice",
      "outputs": [
        {
          "internalType": "uint256",
          "name": "price",
          "type": "uint256"
        }
      ],
      "stateMutability": "view",
      "type": "function"
    },
    {
      "inputs": [],
      "name": "governance",
      "outputs": [
        {
          "internalType": "contract IGovernance",
          "name": "",
          "type": "address"
        }
      ],
      "stateMutability": "view",
      "type": "function"
    },
    {
      "inputs": [],
      "name": "lastBidAmount",
      "outputs": [
        {
          "internalType": "uint256",
          "name": "",
          "type": "uint256"
        }
      ],
      "stateMutability": "view",
      "type": "function"
    },
    {
      "inputs": [],
      "name": "lastUpdateBlock",
      "outputs": [
        {
          "internalType": "uint256",
          "name": "",
          "type": "uint256"
        }
      ],
      "stateMutability": "view",
      "type": "function"
    },
    {
      "inputs": [],
      "name": "myToken",
      "outputs": [
        {
          "internalType": "contract IMyToken",
          "name": "",
          "type": "address"
        }
      ],
      "stateMutability": "view",
      "type": "function"
    },
    {
      "inputs": [],
      "name": "nonfungiblePositionManager",
      "outputs": [
        {
          "internalType": "contract INonfungiblePositionManager",
          "name": "",
          "type": "address"
        }
      ],
      "stateMutability": "view",
      "type": "function"
    },
    {
      "inputs": [],
      "name": "uniswapPool",
      "outputs": [
        {
          "internalType": "contract IUniswapV3Pool",
          "name": "",
          "type": "address"
        }
      ],
      "stateMutability": "view",
      "type": "function"
    },
    {
      "inputs": [],
      "name": "uniswapV3Factory",
      "outputs": [
        {
          "internalType": "contract IUniswapV3Factory",
          "name": "",
          "type": "address"
        }
      ],
      "stateMutability": "view",
      "type": "function"
    },
    {
      "inputs": [
        {
          "internalType": "string",
          "name": "newPrompt",
          "type": "string"
        },
        {
          "internalType": "uint256",
          "name": "tokenAmount",
          "type": "uint256"
        },
        {
          "components": [
            {
              "internalType": "address[]",
              "name": "targets",
              "type": "address[]"
            },
            {
              "internalType": "uint256[]",
              "name": "values",
              "type": "uint256[]"
            },
            {
              "internalType": "bytes[]",
              "name": "calldatas",
              "type": "bytes[]"
            },
            {
              "internalType": "string",
              "name": "description",
              "type": "string"
            },
            {
              "internalType": "string",
              "name": "currentModelUrl",
              "type": "string"
            }
          ],
          "internalType": "struct PromptUpdate.ProposalData",
          "name": "proposalData",
          "type": "tuple"
        }
      ],
      "name": "updatePrompt",
      "outputs": [],
      "stateMutability": "nonpayable",
      "type": "function"
    }
  ],
  "bytecode": "0x60806040523480156200001157600080fd5b5060405162001e7d38038062001e7d8339810160408190526200003491620000ee565b600780546001600160a01b039586166001600160a01b031991821617909155600c54600180548316918716919091179055600d54600280548316918716919091179055600680549286166301000000026301000000600160b81b031990931692909217909155600880549385169382169390931790925560098054831633179055436004556000600555600380549190931691161790556200014b565b80516001600160a01b0381168114620000e957600080fd5b919050565b600080600080608085870312156200010557600080fd5b6200011085620000d1565b93506200012060208601620000d1565b92506200013060408601620000d1565b91506200014060608601620000d1565b905092959194509250565b611d22806200015b6000396000f3fe608060405234801561001057600080fd5b50600436106100a95760003560e01c8063b8fcf93711610071578063b8fcf93714610148578063bdd3d8251461015b578063ddca3f431461016e578063e582b7e014610191578063eb91d37e1461019a578063fe1a7e76146101a257600080fd5b80635aa6e675146100ae5780635b549182146100e55780639ce521eb146100f8578063a218141b1461011e578063b44a272214610135575b600080fd5b6006546100c890630100000090046001600160a01b031681565b6040516001600160a01b0390911681526020015b60405180910390f35b6002546100c8906001600160a01b031681565b61010b6101063660046113d2565b6101b7565b60405160029190910b81526020016100dc565b61012760045481565b6040519081526020016100dc565b6001546100c8906001600160a01b031681565b6003546100c8906001600160a01b031681565b6000546100c8906001600160a01b031681565b60065461017d9062ffffff1681565b60405162ffffff90911681526020016100dc565b61012760055481565b6101276101f1565b6101b56101b0366004611678565b61040c565b005b6000806101d16101cc64e8d4a51000856117d1565b61091f565b6101df90600160601b6117e5565b90506101ea81610930565b9392505050565b600254600754600854600654604051630b4c774160e11b81526001600160a01b039384166004820152918316602483015262ffffff16604482015260009283921690631698ee8290606401602060405180830381865afa158015610259573d6000803e3d6000fd5b505050506040513d601f19601f8201168201806040525081019061027d91906117fc565b90506001600160a01b0381166102d05760405162461bcd60e51b8152602060048201526013602482015272141bdbdb08191bd95cc81b9bdd08195e1a5cdd606a1b60448201526064015b60405180910390fd5b60008190506000816001600160a01b0316633850c7bd6040518163ffffffff1660e01b815260040160e060405180830381865afa158015610315573d6000803e3d6000fd5b505050506040513d601f19601f820116820180604052508101906103399190611840565b50505050505090506000826001600160a01b0316630dfe16816040518163ffffffff1660e01b8152600401602060405180830381865afa158015610381573d6000803e3d6000fd5b505050506040513d601f19601f820116820180604052508101906103a591906117fc565b6007549091506001600160a01b039081168183161490600160c01b906103cd908516806117e5565b6103dc9064e8d4a510006117e5565b6103e691906117d1565b955080610404576104018669d3c21bcecceda10000006117d1565b95505b505050505090565b60006104166101f1565b905060008060009054906101000a90046001600160a01b03166001600160a01b0316631a6865026040518163ffffffff1660e01b8152600401602060405180830381865afa15801561046c573d6000803e3d6000fd5b505050506040513d601f19601f8201168201806040525081019061049091906118f1565b6001600160801b0316905060006104a782846117e5565b90506000600454436104b9919061190c565b9050600081116105175760405162461bcd60e51b8152602060048201526024808201527f50726f6d707420616c7265616479207570646174656420696e207468697320626044820152636c6f636b60e01b60648201526084016102c7565b60008160055461052791906117d1565b905080871161058a5760405162461bcd60e51b815260206004820152602960248201527f42696420646f6573206e6f74206d65657420746865206d696e696d756d2072656044820152681c5d5a5c995b595b9d60ba1b60648201526084016102c7565b6008546105a2906001600160a01b031633308a610c6a565b600654865160208801516040808a015160608b015160808c01519251635051ab3160e01b815263010000009096046001600160a01b031695635051ab31956105f295909490939291600401611a05565b6020604051808303816000875af1158015610611573d6000803e3d6000fd5b505050506040513d601f19601f820116820180604052508101906106359190611aa5565b50600a54158015906106515750600b546001600160a01b031615155b156106fb576000600a548411610668576000610675565b600a54610675908561190c565b9050600061068487600a6117e5565b61068e90836117d1565b600354600b546040516340c10f1960e01b81526001600160a01b0391821660048201526024810184905292935016906340c10f1990604401600060405180830381600087803b1580156106e057600080fd5b505af11580156106f4573d6000803e3d6000fd5b5050505050505b6000606461070a8760636117e5565b61071491906117d1565b9050600060646107258860656117e5565b61072f91906117d1565b9050600061073c836101b7565b90506000610749836101b7565b60085460015460405163095ea7b360e01b81526001600160a01b039182166004820152602481018f9052929350169063095ea7b3906044016020604051808303816000875af11580156107a0573d6000803e3d6000fd5b505050506040513d601f19601f820116820180604052508101906107c49190611abe565b5060408051610160810182526007546001600160a01b03908116825260085416602082015260065462ffffff1691810191909152600283810b606083015282900b6080820152600060a0820181905260c082018d905260e0820181905261010082018190523061012083015290610140810161084242610384611ad9565b9052600154604051634418b22b60e11b81529192506001600160a01b031690638831645690610875908490600401611aec565b6080604051808303816000875af1158015610894573d6000803e3d6000fd5b505050506040513d601f19601f820116820180604052508101906108b89190611bb0565b505050507fa21918fe7101aad6a2dac256e7ade3e3130c8e7751eb2e31e58538baaede398a8d6040516108eb9190611bec565b60405180910390a150504360045550505060059690965550600a555050600b80546001600160a01b03191633179055505050565b600061092a82610cca565b92915050565b60006401000276a36001600160a01b0383161080159061096c575073fffd8963efd1fc6a506488495d951d5263988d266001600160a01b038316105b61099c5760405162461bcd60e51b81526020600482015260016024820152602960f91b60448201526064016102c7565b640100000000600160c01b03602083901b166001600160801b03811160071b81811c67ffffffffffffffff811160061b90811c63ffffffff811160051b90811c61ffff811160041b90811c60ff8111600390811b91821c600f811160021b90811c918211600190811b92831c97908811961790941790921717909117171760808110610a3757610a2d607f8261190c565b83901c9150610a48565b610a4281607f61190c565b83901b91505b60006040610a57608084611bff565b901b9050828302607f1c92508260801c80603f1b8217915083811c935050828302607f1c92508260801c80603e1b8217915083811c935050828302607f1c92508260801c80603d1b8217915083811c935050828302607f1c92508260801c80603c1b8217915083811c935050828302607f1c92508260801c80603b1b8217915083811c935050828302607f1c92508260801c80603a1b8217915083811c935050828302607f1c92508260801c8060391b8217915083811c935050828302607f1c92508260801c8060381b8217915083811c935050828302607f1c92508260801c8060371b8217915083811c935050828302607f1c92508260801c8060361b8217915083811c935050828302607f1c92508260801c8060351b8217915083811c935050828302607f1c92508260801c8060341b8217915083811c935050828302607f1c92508260801c8060331b8217915083811c935050828302607f1c92508260801c8060321b8217915050600081693627a301d71055774c85610bda9190611c26565b905060006080610bfa6f028f6481ab7f045a5af012a19d003aaa84611bff565b901d905060006080610c1c846fdb2df09e81959a81455e260799a0632f611c56565b901d90508060020b8260020b14610c5b57886001600160a01b0316610c4082610e48565b6001600160a01b03161115610c555781610c5d565b80610c5d565b815b9998505050505050505050565b604080516001600160a01b0385811660248301528416604482015260648082018490528251808303909101815260849091019091526020810180516001600160e01b03166323b872dd60e01b179052610cc4908590611260565b50505050565b600081600003610cdc57506000919050565b50600181600160801b8110610cf65760409190911b9060801c5b680100000000000000008110610d115760209190911b9060401c5b6401000000008110610d285760109190911b9060201c5b620100008110610d3d5760089190911b9060101c5b6101008110610d515760049190911b9060081c5b60108110610d645760029190911b9060041c5b60088110610d7457600182901b91505b6001828481610d8557610d856117a5565b048301901c91506001828481610d9d57610d9d6117a5565b048301901c91506001828481610db557610db56117a5565b048301901c91506001828481610dcd57610dcd6117a5565b048301901c91506001828481610de557610de56117a5565b048301901c91506001828481610dfd57610dfd6117a5565b048301901c91506001828481610e1557610e156117a5565b048301901c91506000828481610e2d57610e2d6117a5565b04905080831015610e3e5782610e40565b805b949350505050565b60008060008360020b12610e5f578260020b610e6c565b8260020b610e6c90611c7e565b9050610e7b620d89e719611c9a565b60020b811115610eb15760405162461bcd60e51b81526020600482015260016024820152601560fa1b60448201526064016102c7565b600081600116600003610ec857600160801b610eda565b6ffffcb933bd6fad37aa2d162d1a5940015b70ffffffffffffffffffffffffffffffffff1690506002821615610f19576080610f14826ffff97272373d413259a46990580e213a6117e5565b901c90505b6004821615610f43576080610f3e826ffff2e50f5f656932ef12357cf3c7fdcc6117e5565b901c90505b6008821615610f6d576080610f68826fffe5caca7e10e4e61c3624eaa0941cd06117e5565b901c90505b6010821615610f97576080610f92826fffcb9843d60f6159c9db58835c9266446117e5565b901c90505b6020821615610fc1576080610fbc826fff973b41fa98c081472e6896dfb254c06117e5565b901c90505b6040821615610feb576080610fe6826fff2ea16466c96a3843ec78b326b528616117e5565b901c90505b6080821615611015576080611010826ffe5dee046a99a2a811c461f1969c30536117e5565b901c90505b61010082161561104057608061103b826ffcbe86c7900a88aedcffc83b479aa3a46117e5565b901c90505b61020082161561106b576080611066826ff987a7253ac413176f2b074cf7815e546117e5565b901c90505b610400821615611096576080611091826ff3392b0822b70005940c7a398e4b70f36117e5565b901c90505b6108008216156110c15760806110bc826fe7159475a2c29b7443b29c7fa6e889d96117e5565b901c90505b6110008216156110ec5760806110e7826fd097f3bdfd2022b8845ad8f792aa58256117e5565b901c90505b612000821615611117576080611112826fa9f746462d870fdf8a65dc1f90e061e56117e5565b901c90505b61400082161561114257608061113d826f70d869a156d2a1b890bb3df62baf32f76117e5565b901c90505b61800082161561116d576080611168826f31be135f97d08fd981231505542fcfa66117e5565b901c90505b62010000821615611199576080611194826f09aa508b5b7a84e1c677de54f3e99bc96117e5565b901c90505b620200008216156111c45760806111bf826e5d6af8dedb81196699c329225ee6046117e5565b901c90505b620400008216156111ee5760806111e9826d2216e584f5fa1ea926041bedfe986117e5565b901c90505b62080000821615611216576080611211826b048a170391f7dc42444e8fa26117e5565b901c90505b60008460020b13156112315761122e816000196117d1565b90505b61124064010000000082611cbc565b1561124c57600161124f565b60005b610e409060ff16602083901c611ad9565b60006112756001600160a01b038416836112c8565b9050805160001415801561129a5750808060200190518101906112989190611abe565b155b156112c357604051635274afe760e01b81526001600160a01b03841660048201526024016102c7565b505050565b60606101ea8383600084600080856001600160a01b031684866040516112ee9190611cd0565b60006040518083038185875af1925050503d806000811461132b576040519150601f19603f3d011682016040523d82523d6000602084013e611330565b606091505b509150915061134086838361134a565b9695505050505050565b60608261135f5761135a826113a6565b6101ea565b815115801561137657506001600160a01b0384163b155b1561139f57604051639996b31560e01b81526001600160a01b03851660048201526024016102c7565b50806101ea565b8051156113b65780518082602001fd5b604051630a12f52160e11b815260040160405180910390fd5b50565b6000602082840312156113e457600080fd5b5035919050565b634e487b7160e01b600052604160045260246000fd5b60405160a0810167ffffffffffffffff81118282101715611424576114246113eb565b60405290565b604051601f8201601f1916810167ffffffffffffffff81118282101715611453576114536113eb565b604052919050565b600067ffffffffffffffff831115611475576114756113eb565b611488601f8401601f191660200161142a565b905082815283838301111561149c57600080fd5b828260208301376000602084830101529392505050565b600082601f8301126114c457600080fd5b6101ea8383356020850161145b565b600067ffffffffffffffff8211156114ed576114ed6113eb565b5060051b60200190565b6001600160a01b03811681146113cf57600080fd5b600082601f83011261151d57600080fd5b8135602061153261152d836114d3565b61142a565b8083825260208201915060208460051b87010193508684111561155457600080fd5b602086015b8481101561157957803561156c816114f7565b8352918301918301611559565b509695505050505050565b600082601f83011261159557600080fd5b813560206115a561152d836114d3565b8083825260208201915060208460051b8701019350868411156115c757600080fd5b602086015b8481101561157957803583529183019183016115cc565b600082601f8301126115f457600080fd5b8135602061160461152d836114d3565b82815260059290921b8401810191818101908684111561162357600080fd5b8286015b8481101561157957803567ffffffffffffffff8111156116475760008081fd5b8701603f810189136116595760008081fd5b61166a89868301356040840161145b565b845250918301918301611627565b60008060006060848603121561168d57600080fd5b833567ffffffffffffffff808211156116a557600080fd5b6116b1878388016114b3565b94506020860135935060408601359150808211156116ce57600080fd5b9085019060a082880312156116e257600080fd5b6116ea611401565b8235828111156116f957600080fd5b6117058982860161150c565b82525060208301358281111561171a57600080fd5b61172689828601611584565b60208301525060408301358281111561173e57600080fd5b61174a898286016115e3565b60408301525060608301358281111561176257600080fd5b61176e898286016114b3565b60608301525060808301358281111561178657600080fd5b611792898286016114b3565b6080830152508093505050509250925092565b634e487b7160e01b600052601260045260246000fd5b634e487b7160e01b600052601160045260246000fd5b6000826117e0576117e06117a5565b500490565b808202811582820484141761092a5761092a6117bb565b60006020828403121561180e57600080fd5b81516101ea816114f7565b805161ffff8116811461182b57600080fd5b919050565b8051801515811461182b57600080fd5b600080600080600080600060e0888a03121561185b57600080fd5b8751611866816114f7565b8097505060208801518060020b811461187e57600080fd5b955061188c60408901611819565b945061189a60608901611819565b93506118a860808901611819565b925060a088015160ff811681146118be57600080fd5b91506118cc60c08901611830565b905092959891949750929550565b80516001600160801b038116811461182b57600080fd5b60006020828403121561190357600080fd5b6101ea826118da565b8181038181111561092a5761092a6117bb565b60008151808452602080850194506020840160005b8381101561195057815187529582019590820190600101611934565b509495945050505050565b60005b8381101561197657818101518382015260200161195e565b50506000910152565b6000815180845261199781602086016020860161195b565b601f01601f19169290920160200192915050565b60008282518085526020808601955060208260051b8401016020860160005b848110156119f857601f198684030189526119e683835161197f565b988401989250908301906001016119ca565b5090979650505050505050565b60a0808252865190820181905260009060209060c0840190828a01845b82811015611a475781516001600160a01b031684529284019290840190600101611a22565b5050508381036020850152611a5c818961191f565b9150508281036040840152611a7181876119ab565b90508281036060840152611a85818661197f565b90508281036080840152611a99818561197f565b98975050505050505050565b600060208284031215611ab757600080fd5b5051919050565b600060208284031215611ad057600080fd5b6101ea82611830565b8082018082111561092a5761092a6117bb565b81516001600160a01b0316815261016081016020830151611b1860208401826001600160a01b03169052565b506040830151611b2f604084018262ffffff169052565b506060830151611b44606084018260020b9052565b506080830151611b59608084018260020b9052565b5060a083015160a083015260c083015160c083015260e083015160e083015261010080840151818401525061012080840151611b9f828501826001600160a01b03169052565b505061014092830151919092015290565b60008060008060808587031215611bc657600080fd5b84519350611bd6602086016118da565b6040860151606090960151949790965092505050565b6020815260006101ea602083018461197f565b8181036000831280158383131683831282161715611c1f57611c1f6117bb565b5092915050565b80820260008212600160ff1b84141615611c4257611c426117bb565b818105831482151761092a5761092a6117bb565b8082018281126000831280158216821582161715611c7657611c766117bb565b505092915050565b6000600160ff1b8201611c9357611c936117bb565b5060000390565b60008160020b627fffff198103611cb357611cb36117bb565b60000392915050565b600082611ccb57611ccb6117a5565b500690565b60008251611ce281846020870161195b565b919091019291505056fea264697066735822122035994f47776101eeceae3ab2ad39b994353512c3b33e2cefdb50feb2a9f7db1b64736f6c63430008180033",
  "linkReferences": {},
  "deployedLinkReferences": {}
}