{
  "_format": "hh-sol-artifact-1",
  "contractName": "PromptUpdate",
  "sourceName": "contracts/PromptUpdate.sol",
  "abi": [
    {
      "inputs": [
        {
          "internalType": "address",
          "name": "_usdcTokenAddress",
          "type": "address"
        },
        {
          "internalType": "address",
          "name": "_uniswapRouterAddress",
          "type": "address"
        },
        {
          "internalType": "address",
          "name": "_daoTokenAddress",
          "type": "address"
        },
        {
          "internalType": "address",
          "name": "_myTokenAddress",
          "type": "address"
        }
      ],
      "stateMutability": "nonpayable",
      "type": "constructor"
    },
    {
      "inputs": [
        {
          "internalType": "address",
          "name": "target",
          "type": "address"
        }
      ],
      "name": "AddressEmptyCode",
      "type": "error"
    },
    {
      "inputs": [
        {
          "internalType": "address",
          "name": "account",
          "type": "address"
        }
      ],
      "name": "AddressInsufficientBalance",
      "type": "error"
    },
    {
      "inputs": [],
      "name": "FailedInnerCall",
      "type": "error"
    },
    {
      "inputs": [
        {
          "internalType": "address",
          "name": "token",
          "type": "address"
        }
      ],
      "name": "SafeERC20FailedOperation",
      "type": "error"
    },
    {
      "anonymous": false,
      "inputs": [
        {
          "indexed": false,
          "internalType": "string",
          "name": "newPrompt",
          "type": "string"
        }
      ],
      "name": "PromptUpdated",
      "type": "event"
    },
    {
      "inputs": [
        {
          "internalType": "uint256",
          "name": "price",
          "type": "uint256"
        }
      ],
      "name": "approximateTickFromPrice",
      "outputs": [
        {
          "internalType": "int24",
          "name": "tick",
          "type": "int24"
        }
      ],
      "stateMutability": "pure",
      "type": "function"
    },
    {
      "inputs": [],
      "name": "fee",
      "outputs": [
        {
          "internalType": "uint24",
          "name": "",
          "type": "uint24"
        }
      ],
      "stateMutability": "view",
      "type": "function"
    },
    {
      "inputs": [],
      "name": "getCurrentPrice",
      "outputs": [
        {
          "internalType": "uint256",
          "name": "price",
          "type": "uint256"
        }
      ],
      "stateMutability": "view",
      "type": "function"
    },
    {
      "inputs": [],
      "name": "lastBidAmount",
      "outputs": [
        {
          "internalType": "uint256",
          "name": "",
          "type": "uint256"
        }
      ],
      "stateMutability": "view",
      "type": "function"
    },
    {
      "inputs": [],
      "name": "lastUpdateBlock",
      "outputs": [
        {
          "internalType": "uint256",
          "name": "",
          "type": "uint256"
        }
      ],
      "stateMutability": "view",
      "type": "function"
    },
    {
      "inputs": [],
      "name": "myToken",
      "outputs": [
        {
          "internalType": "contract IMyToken",
          "name": "",
          "type": "address"
        }
      ],
      "stateMutability": "view",
      "type": "function"
    },
    {
      "inputs": [],
      "name": "nonfungiblePositionManager",
      "outputs": [
        {
          "internalType": "contract INonfungiblePositionManager",
          "name": "",
          "type": "address"
        }
      ],
      "stateMutability": "view",
      "type": "function"
    },
    {
      "inputs": [],
      "name": "uniswapFactory",
      "outputs": [
        {
          "internalType": "contract IUniswapV2Factory",
          "name": "",
          "type": "address"
        }
      ],
      "stateMutability": "view",
      "type": "function"
    },
    {
      "inputs": [],
      "name": "uniswapPool",
      "outputs": [
        {
          "internalType": "contract IUniswapV3Pool",
          "name": "",
          "type": "address"
        }
      ],
      "stateMutability": "view",
      "type": "function"
    },
    {
      "inputs": [],
      "name": "uniswapV3Factory",
      "outputs": [
        {
          "internalType": "contract IUniswapV3Factory",
          "name": "",
          "type": "address"
        }
      ],
      "stateMutability": "view",
      "type": "function"
    },
    {
      "inputs": [
        {
          "internalType": "string",
          "name": "newPrompt",
          "type": "string"
        },
        {
          "internalType": "uint256",
          "name": "usdcAmount",
          "type": "uint256"
        }
      ],
      "name": "updatePrompt",
      "outputs": [],
      "stateMutability": "nonpayable",
      "type": "function"
    }
  ],
  "bytecode": "0x60806040523480156200001157600080fd5b5060405162002d3d38038062002d3d833981810160405281019062000037919062000284565b83600560006101000a81548173ffffffffffffffffffffffffffffffffffffffff021916908373ffffffffffffffffffffffffffffffffffffffff160217905550600860009054906101000a900473ffffffffffffffffffffffffffffffffffffffff16600360006101000a81548173ffffffffffffffffffffffffffffffffffffffff021916908373ffffffffffffffffffffffffffffffffffffffff160217905550600960009054906101000a900473ffffffffffffffffffffffffffffffffffffffff16600460006101000a81548173ffffffffffffffffffffffffffffffffffffffff021916908373ffffffffffffffffffffffffffffffffffffffff16021790555081600660006101000a81548173ffffffffffffffffffffffffffffffffffffffff021916908373ffffffffffffffffffffffffffffffffffffffff16021790555033600760006101000a81548173ffffffffffffffffffffffffffffffffffffffff021916908373ffffffffffffffffffffffffffffffffffffffff16021790555043600a819055506000600b8190555080600c60036101000a81548173ffffffffffffffffffffffffffffffffffffffff021916908373ffffffffffffffffffffffffffffffffffffffff16021790555050505050620002f6565b600080fd5b600073ffffffffffffffffffffffffffffffffffffffff82169050919050565b60006200024c826200021f565b9050919050565b6200025e816200023f565b81146200026a57600080fd5b50565b6000815190506200027e8162000253565b92915050565b60008060008060808587031215620002a157620002a06200021a565b5b6000620002b1878288016200026d565b9450506020620002c4878288016200026d565b9350506040620002d7878288016200026d565b9250506060620002ea878288016200026d565b91505092959194509250565b612a3780620003066000396000f3fe608060405234801561001057600080fd5b50600436106100a95760003560e01c8063b8fcf93711610071578063b8fcf93714610156578063bdd3d82514610174578063be9eb32514610192578063ddca3f43146101ae578063e582b7e0146101cc578063eb91d37e146101ea576100a9565b80635b549182146100ae5780638bdb2afa146100cc5780639ce521eb146100ea578063a218141b1461011a578063b44a272214610138575b600080fd5b6100b6610208565b6040516100c39190611ab1565b60405180910390f35b6100d461022e565b6040516100e19190611aed565b60405180910390f35b61010460048036038101906100ff9190611b52565b610254565b6040516101119190611b9b565b60405180910390f35b61012261028b565b60405161012f9190611bc5565b60405180910390f35b610140610291565b60405161014d9190611c01565b60405180910390f35b61015e6102b7565b60405161016b9190611c3d565b60405180910390f35b61017c6102dd565b6040516101899190611c79565b60405180910390f35b6101ac60048036038101906101a79190611dda565b610303565b005b6101b661096e565b6040516101c39190611e54565b60405180910390f35b6101d4610983565b6040516101e19190611bc5565b60405180910390f35b6101f2610989565b6040516101ff9190611bc5565b60405180910390f35b600460009054906101000a900473ffffffffffffffffffffffffffffffffffffffff1681565b600260009054906101000a900473ffffffffffffffffffffffffffffffffffffffff1681565b6000806c0100000000000000000000000061026e84610cd4565b6102789190611e9e565b905061028381610ce6565b915050919050565b600a5481565b600360009054906101000a900473ffffffffffffffffffffffffffffffffffffffff1681565b600c60039054906101000a900473ffffffffffffffffffffffffffffffffffffffff1681565b600160009054906101000a900473ffffffffffffffffffffffffffffffffffffffff1681565b600061030d610989565b90506000600160009054906101000a900473ffffffffffffffffffffffffffffffffffffffff1673ffffffffffffffffffffffffffffffffffffffff16631a6865026040518163ffffffff1660e01b8152600401602060405180830381865afa15801561037e573d6000803e3d6000fd5b505050506040513d601f19601f820116820180604052508101906103a29190611f28565b6fffffffffffffffffffffffffffffffff169050600081836103c49190611e9e565b90506000600a54436103d69190611f55565b90506000811161041b576040517f08c379a00000000000000000000000000000000000000000000000000000000081526004016104129061200c565b60405180910390fd5b600081600b5461042b919061205b565b905080861161046f576040517f08c379a0000000000000000000000000000000000000000000000000000000008152600401610466906120fe565b60405180910390fd5b6104be333088600560009054906101000a900473ffffffffffffffffffffffffffffffffffffffff1673ffffffffffffffffffffffffffffffffffffffff166110e5909392919063ffffffff16565b6000600d54141580156105205750600073ffffffffffffffffffffffffffffffffffffffff16600e60009054906101000a900473ffffffffffffffffffffffffffffffffffffffff1673ffffffffffffffffffffffffffffffffffffffff1614155b15610618576000600d548411610537576000610546565b600d54846105459190611f55565b5b9050600086600a6105579190611e9e565b82610562919061205b565b9050600c60039054906101000a900473ffffffffffffffffffffffffffffffffffffffff1673ffffffffffffffffffffffffffffffffffffffff166340c10f19600e60009054906101000a900473ffffffffffffffffffffffffffffffffffffffff16836040518363ffffffff1660e01b81526004016105e392919061213f565b600060405180830381600087803b1580156105fd57600080fd5b505af1158015610611573d6000803e3d6000fd5b5050505050505b600060646063876106299190611e9e565b610633919061205b565b9050600060646065886106469190611e9e565b610650919061205b565b9050600061065d83610254565b9050600061066a83610254565b9050600560009054906101000a900473ffffffffffffffffffffffffffffffffffffffff1673ffffffffffffffffffffffffffffffffffffffff1663095ea7b3600360009054906101000a900473ffffffffffffffffffffffffffffffffffffffff168c6040518363ffffffff1660e01b81526004016106eb92919061213f565b6020604051808303816000875af115801561070a573d6000803e3d6000fd5b505050506040513d601f19601f8201168201806040525081019061072e91906121a0565b506000604051806101600160405280600560009054906101000a900473ffffffffffffffffffffffffffffffffffffffff1673ffffffffffffffffffffffffffffffffffffffff168152602001600660009054906101000a900473ffffffffffffffffffffffffffffffffffffffff1673ffffffffffffffffffffffffffffffffffffffff168152602001600c60009054906101000a900462ffffff1662ffffff1681526020018460020b81526020018360020b81526020018c81526020016000815260200160008152602001600081526020013073ffffffffffffffffffffffffffffffffffffffff1681526020016103844261082c91906121cd565b8152509050600360009054906101000a900473ffffffffffffffffffffffffffffffffffffffff1673ffffffffffffffffffffffffffffffffffffffff166388316456826040518263ffffffff1660e01b815260040161088c919061231e565b6080604051808303816000875af11580156108ab573d6000803e3d6000fd5b505050506040513d601f19601f820116820180604052508101906108cf919061234f565b505050507fa21918fe7101aad6a2dac256e7ade3e3130c8e7751eb2e31e58538baaede398a8c6040516109029190612424565b60405180910390a143600a819055508a600b8190555087600d8190555033600e60006101000a81548173ffffffffffffffffffffffffffffffffffffffff021916908373ffffffffffffffffffffffffffffffffffffffff160217905550505050505050505050505050565b600c60009054906101000a900462ffffff1681565b600b5481565b600080600460009054906101000a900473ffffffffffffffffffffffffffffffffffffffff1673ffffffffffffffffffffffffffffffffffffffff16631698ee82600560009054906101000a900473ffffffffffffffffffffffffffffffffffffffff16600660009054906101000a900473ffffffffffffffffffffffffffffffffffffffff16600c60009054906101000a900462ffffff166040518463ffffffff1660e01b8152600401610a4093929190612446565b602060405180830381865afa158015610a5d573d6000803e3d6000fd5b505050506040513d601f19601f82011682018060405250810190610a8191906124a9565b9050600073ffffffffffffffffffffffffffffffffffffffff168173ffffffffffffffffffffffffffffffffffffffff1603610af2576040517f08c379a0000000000000000000000000000000000000000000000000000000008152600401610ae990612522565b60405180910390fd5b600081905060008173ffffffffffffffffffffffffffffffffffffffff16633850c7bd6040518163ffffffff1660e01b815260040160e060405180830381865afa158015610b44573d6000803e3d6000fd5b505050506040513d601f19601f82011682018060405250810190610b68919061260d565b505050505050905060008273ffffffffffffffffffffffffffffffffffffffff16630dfe16816040518163ffffffff1660e01b8152600401602060405180830381865afa158015610bbd573d6000803e3d6000fd5b505050506040513d601f19601f82011682018060405250810190610be191906124a9565b90506000600560009054906101000a900473ffffffffffffffffffffffffffffffffffffffff1673ffffffffffffffffffffffffffffffffffffffff168273ffffffffffffffffffffffffffffffffffffffff161490507801000000000000000000000000000000000000000000000000670de0b6b3a76400008473ffffffffffffffffffffffffffffffffffffffff168573ffffffffffffffffffffffffffffffffffffffff16610c939190611e9e565b610c9d9190611e9e565b610ca7919061205b565b955080610ccc57856ec097ce7bc90715b34b9f1000000000610cc9919061205b565b95505b505050505090565b6000610cdf82611167565b9050919050565b60006401000276a373ffffffffffffffffffffffffffffffffffffffff168273ffffffffffffffffffffffffffffffffffffffff1610158015610d68575073fffd8963efd1fc6a506488495d951d5263988d2673ffffffffffffffffffffffffffffffffffffffff168273ffffffffffffffffffffffffffffffffffffffff16105b610da7576040517f08c379a0000000000000000000000000000000000000000000000000000000008152600401610d9e906126fb565b60405180910390fd5b600060208373ffffffffffffffffffffffffffffffffffffffff16901b9050600081905060006fffffffffffffffffffffffffffffffff821160071b808217915082811c92505067ffffffffffffffff821160061b808217915082811c92505063ffffffff821160051b808217915082811c92505061ffff821160041b808217915082811c92505060ff821160031b808217915082811c925050600f821160021b808217915082811c9250506003821160011b808217915082811c9250506001821180821791505060808110610e8e57607f81610e849190611f55565b83901c9150610ea1565b80607f610e9b9190611f55565b83901b91505b60006040608083610eb29190612725565b901b9050828302607f1c92508260801c80603f1b8217915083811c935050828302607f1c92508260801c80603e1b8217915083811c935050828302607f1c92508260801c80603d1b8217915083811c935050828302607f1c92508260801c80603c1b8217915083811c935050828302607f1c92508260801c80603b1b8217915083811c935050828302607f1c92508260801c80603a1b8217915083811c935050828302607f1c92508260801c8060391b8217915083811c935050828302607f1c92508260801c8060381b8217915083811c935050828302607f1c92508260801c8060371b8217915083811c935050828302607f1c92508260801c8060361b8217915083811c935050828302607f1c92508260801c8060351b8217915083811c935050828302607f1c92508260801c8060341b8217915083811c935050828302607f1c92508260801c8060331b8217915083811c935050828302607f1c92508260801c8060321b82179150506000693627a301d71055774c85826110359190612768565b9050600060806f028f6481ab7f045a5af012a19d003aaa836110579190612725565b901d9050600060806fdb2df09e81959a81455e260799a0632f8461107b91906127e0565b901d90508060020b8260020b146110d5578873ffffffffffffffffffffffffffffffffffffffff166110ac82611319565b73ffffffffffffffffffffffffffffffffffffffff1611156110ce57816110d0565b805b6110d7565b815b975050505050505050919050565b611161848573ffffffffffffffffffffffffffffffffffffffff166323b872dd86868660405160240161111a93929190612824565b604051602081830303815290604052915060e01b6020820180517bffffffffffffffffffffffffffffffffffffffffffffffffffffffff83818316178352505050506117e4565b50505050565b60008082036111795760009050611314565b60008290506001915070010000000000000000000000000000000081106111a957608081901c9050604082901b91505b6801000000000000000081106111c857604081901c9050602082901b91505b64010000000081106111e357602081901c9050601082901b91505b6201000081106111fc57601081901c9050600882901b91505b610100811061121457600881901c9050600482901b91505b6010811061122b57600481901c9050600282901b91505b6008811061123b57600182901b91505b600182848161124d5761124c61202c565b5b048301901c915060018284816112665761126561202c565b5b048301901c9150600182848161127f5761127e61202c565b5b048301901c915060018284816112985761129761202c565b5b048301901c915060018284816112b1576112b061202c565b5b048301901c915060018284816112ca576112c961202c565b5b048301901c915060018284816112e3576112e261202c565b5b048301901c915060008284816112fc576112fb61202c565b5b0490508083101561130d578261130f565b805b925050505b919050565b60008060008360020b12611330578260020b61133e565b8260020b61133d9061285b565b5b90507ffffffffffffffffffffffffffffffffffffffffffffffffffffffffffff2761861136a906128a3565b60020b8111156113af576040517f08c379a00000000000000000000000000000000000000000000000000000000081526004016113a690612937565b60405180910390fd5b60008060018316036113d2577001000000000000000000000000000000006113e4565b6ffffcb933bd6fad37aa2d162d1a5940015b70ffffffffffffffffffffffffffffffffff169050600060028316146114275760806ffff97272373d413259a46990580e213a826114229190611e9e565b901c90505b600060048316146114555760806ffff2e50f5f656932ef12357cf3c7fdcc826114509190611e9e565b901c90505b600060088316146114835760806fffe5caca7e10e4e61c3624eaa0941cd08261147e9190611e9e565b901c90505b600060108316146114b15760806fffcb9843d60f6159c9db58835c926644826114ac9190611e9e565b901c90505b600060208316146114df5760806fff973b41fa98c081472e6896dfb254c0826114da9190611e9e565b901c90505b6000604083161461150d5760806fff2ea16466c96a3843ec78b326b52861826115089190611e9e565b901c90505b6000608083161461153b5760806ffe5dee046a99a2a811c461f1969c3053826115369190611e9e565b901c90505b600061010083161461156a5760806ffcbe86c7900a88aedcffc83b479aa3a4826115659190611e9e565b901c90505b60006102008316146115995760806ff987a7253ac413176f2b074cf7815e54826115949190611e9e565b901c90505b60006104008316146115c85760806ff3392b0822b70005940c7a398e4b70f3826115c39190611e9e565b901c90505b60006108008316146115f75760806fe7159475a2c29b7443b29c7fa6e889d9826115f29190611e9e565b901c90505b60006110008316146116265760806fd097f3bdfd2022b8845ad8f792aa5825826116219190611e9e565b901c90505b60006120008316146116555760806fa9f746462d870fdf8a65dc1f90e061e5826116509190611e9e565b901c90505b60006140008316146116845760806f70d869a156d2a1b890bb3df62baf32f78261167f9190611e9e565b901c90505b60006180008316146116b35760806f31be135f97d08fd981231505542fcfa6826116ae9190611e9e565b901c90505b6000620100008316146116e35760806f09aa508b5b7a84e1c677de54f3e99bc9826116de9190611e9e565b901c90505b6000620200008316146117125760806e5d6af8dedb81196699c329225ee6048261170d9190611e9e565b901c90505b6000620400008316146117405760806d2216e584f5fa1ea926041bedfe988261173b9190611e9e565b901c90505b60006208000083161461176c5760806b048a170391f7dc42444e8fa2826117679190611e9e565b901c90505b60008460020b13156117a757807fffffffffffffffffffffffffffffffffffffffffffffffffffffffffffffffff6117a4919061205b565b90505b6000640100000000826117ba9190612957565b146117c65760016117c9565b60005b60ff16602082901c6117db91906121cd565b92505050919050565b600061180f828473ffffffffffffffffffffffffffffffffffffffff1661187b90919063ffffffff16565b9050600081511415801561183457508080602001905181019061183291906121a0565b155b1561187657826040517f5274afe700000000000000000000000000000000000000000000000000000000815260040161186d9190612988565b60405180910390fd5b505050565b606061188983836000611891565b905092915050565b6060814710156118d857306040517fcd7860590000000000000000000000000000000000000000000000000000000081526004016118cf9190612988565b60405180910390fd5b6000808573ffffffffffffffffffffffffffffffffffffffff16848660405161190191906129ea565b60006040518083038185875af1925050503d806000811461193e576040519150601f19603f3d011682016040523d82523d6000602084013e611943565b606091505b509150915061195386838361195e565b925050509392505050565b6060826119735761196e826119ed565b6119e5565b6000825114801561199b575060008473ffffffffffffffffffffffffffffffffffffffff163b145b156119dd57836040517f9996b3150000000000000000000000000000000000000000000000000000000081526004016119d49190612988565b60405180910390fd5b8190506119e6565b5b9392505050565b600081511115611a005780518082602001fd5b6040517f1425ea4200000000000000000000000000000000000000000000000000000000815260040160405180910390fd5b600073ffffffffffffffffffffffffffffffffffffffff82169050919050565b6000819050919050565b6000611a77611a72611a6d84611a32565b611a52565b611a32565b9050919050565b6000611a8982611a5c565b9050919050565b6000611a9b82611a7e565b9050919050565b611aab81611a90565b82525050565b6000602082019050611ac66000830184611aa2565b92915050565b6000611ad782611a7e565b9050919050565b611ae781611acc565b82525050565b6000602082019050611b026000830184611ade565b92915050565b6000604051905090565b600080fd5b600080fd5b6000819050919050565b611b2f81611b1c565b8114611b3a57600080fd5b50565b600081359050611b4c81611b26565b92915050565b600060208284031215611b6857611b67611b12565b5b6000611b7684828501611b3d565b91505092915050565b60008160020b9050919050565b611b9581611b7f565b82525050565b6000602082019050611bb06000830184611b8c565b92915050565b611bbf81611b1c565b82525050565b6000602082019050611bda6000830184611bb6565b92915050565b6000611beb82611a7e565b9050919050565b611bfb81611be0565b82525050565b6000602082019050611c166000830184611bf2565b92915050565b6000611c2782611a7e565b9050919050565b611c3781611c1c565b82525050565b6000602082019050611c526000830184611c2e565b92915050565b6000611c6382611a7e565b9050919050565b611c7381611c58565b82525050565b6000602082019050611c8e6000830184611c6a565b92915050565b600080fd5b600080fd5b6000601f19601f8301169050919050565b7f4e487b7100000000000000000000000000000000000000000000000000000000600052604160045260246000fd5b611ce782611c9e565b810181811067ffffffffffffffff82111715611d0657611d05611caf565b5b80604052505050565b6000611d19611b08565b9050611d258282611cde565b919050565b600067ffffffffffffffff821115611d4557611d44611caf565b5b611d4e82611c9e565b9050602081019050919050565b82818337600083830152505050565b6000611d7d611d7884611d2a565b611d0f565b905082815260208101848484011115611d9957611d98611c99565b5b611da4848285611d5b565b509392505050565b600082601f830112611dc157611dc0611c94565b5b8135611dd1848260208601611d6a565b91505092915050565b60008060408385031215611df157611df0611b12565b5b600083013567ffffffffffffffff811115611e0f57611e0e611b17565b5b611e1b85828601611dac565b9250506020611e2c85828601611b3d565b9150509250929050565b600062ffffff82169050919050565b611e4e81611e36565b82525050565b6000602082019050611e696000830184611e45565b92915050565b7f4e487b7100000000000000000000000000000000000000000000000000000000600052601160045260246000fd5b6000611ea982611b1c565b9150611eb483611b1c565b9250828202611ec281611b1c565b91508282048414831517611ed957611ed8611e6f565b5b5092915050565b60006fffffffffffffffffffffffffffffffff82169050919050565b611f0581611ee0565b8114611f1057600080fd5b50565b600081519050611f2281611efc565b92915050565b600060208284031215611f3e57611f3d611b12565b5b6000611f4c84828501611f13565b91505092915050565b6000611f6082611b1c565b9150611f6b83611b1c565b9250828203905081811115611f8357611f82611e6f565b5b92915050565b600082825260208201905092915050565b7f50726f6d707420616c7265616479207570646174656420696e2074686973206260008201527f6c6f636b00000000000000000000000000000000000000000000000000000000602082015250565b6000611ff6602483611f89565b915061200182611f9a565b604082019050919050565b6000602082019050818103600083015261202581611fe9565b9050919050565b7f4e487b7100000000000000000000000000000000000000000000000000000000600052601260045260246000fd5b600061206682611b1c565b915061207183611b1c565b9250826120815761208061202c565b5b828204905092915050565b7f42696420646f6573206e6f74206d65657420746865206d696e696d756d20726560008201527f71756972656d656e740000000000000000000000000000000000000000000000602082015250565b60006120e8602983611f89565b91506120f38261208c565b604082019050919050565b60006020820190508181036000830152612117816120db565b9050919050565b600061212982611a32565b9050919050565b6121398161211e565b82525050565b60006040820190506121546000830185612130565b6121616020830184611bb6565b9392505050565b60008115159050919050565b61217d81612168565b811461218857600080fd5b50565b60008151905061219a81612174565b92915050565b6000602082840312156121b6576121b5611b12565b5b60006121c48482850161218b565b91505092915050565b60006121d882611b1c565b91506121e383611b1c565b92508282019050808211156121fb576121fa611e6f565b5b92915050565b61220a8161211e565b82525050565b61221981611e36565b82525050565b61222881611b7f565b82525050565b61223781611b1c565b82525050565b610160820160008201516122546000850182612201565b5060208201516122676020850182612201565b50604082015161227a6040850182612210565b50606082015161228d606085018261221f565b5060808201516122a0608085018261221f565b5060a08201516122b360a085018261222e565b5060c08201516122c660c085018261222e565b5060e08201516122d960e085018261222e565b506101008201516122ee61010085018261222e565b50610120820151612303610120850182612201565b5061014082015161231861014085018261222e565b50505050565b600061016082019050612334600083018461223d565b92915050565b60008151905061234981611b26565b92915050565b6000806000806080858703121561236957612368611b12565b5b60006123778782880161233a565b945050602061238887828801611f13565b93505060406123998782880161233a565b92505060606123aa8782880161233a565b91505092959194509250565b600081519050919050565b60005b838110156123df5780820151818401526020810190506123c4565b60008484015250505050565b60006123f6826123b6565b6124008185611f89565b93506124108185602086016123c1565b61241981611c9e565b840191505092915050565b6000602082019050818103600083015261243e81846123eb565b905092915050565b600060608201905061245b6000830186612130565b6124686020830185612130565b6124756040830184611e45565b949350505050565b6124868161211e565b811461249157600080fd5b50565b6000815190506124a38161247d565b92915050565b6000602082840312156124bf576124be611b12565b5b60006124cd84828501612494565b91505092915050565b7f506f6f6c20646f6573206e6f7420657869737400000000000000000000000000600082015250565b600061250c601383611f89565b9150612517826124d6565b602082019050919050565b6000602082019050818103600083015261253b816124ff565b9050919050565b61254b81611a32565b811461255657600080fd5b50565b60008151905061256881612542565b92915050565b61257781611b7f565b811461258257600080fd5b50565b6000815190506125948161256e565b92915050565b600061ffff82169050919050565b6125b18161259a565b81146125bc57600080fd5b50565b6000815190506125ce816125a8565b92915050565b600060ff82169050919050565b6125ea816125d4565b81146125f557600080fd5b50565b600081519050612607816125e1565b92915050565b600080600080600080600060e0888a03121561262c5761262b611b12565b5b600061263a8a828b01612559565b975050602061264b8a828b01612585565b965050604061265c8a828b016125bf565b955050606061266d8a828b016125bf565b945050608061267e8a828b016125bf565b93505060a061268f8a828b016125f8565b92505060c06126a08a828b0161218b565b91505092959891949750929550565b7f5200000000000000000000000000000000000000000000000000000000000000600082015250565b60006126e5600183611f89565b91506126f0826126af565b602082019050919050565b60006020820190508181036000830152612714816126d8565b9050919050565b6000819050919050565b60006127308261271b565b915061273b8361271b565b925082820390508181126000841216828213600085121516171561276257612761611e6f565b5b92915050565b60006127738261271b565b915061277e8361271b565b925082820261278c8161271b565b91507f800000000000000000000000000000000000000000000000000000000000000084146000841216156127c4576127c3611e6f565b5b82820584148315176127d9576127d8611e6f565b5b5092915050565b60006127eb8261271b565b91506127f68361271b565b92508282019050828112156000831216838212600084121516171561281e5761281d611e6f565b5b92915050565b60006060820190506128396000830186612130565b6128466020830185612130565b6128536040830184611bb6565b949350505050565b60006128668261271b565b91507f8000000000000000000000000000000000000000000000000000000000000000820361289857612897611e6f565b5b816000039050919050565b60006128ae82611b7f565b91507fffffffffffffffffffffffffffffffffffffffffffffffffffffffffff80000082036128e0576128df611e6f565b5b816000039050919050565b7f5400000000000000000000000000000000000000000000000000000000000000600082015250565b6000612921600183611f89565b915061292c826128eb565b602082019050919050565b6000602082019050818103600083015261295081612914565b9050919050565b600061296282611b1c565b915061296d83611b1c565b92508261297d5761297c61202c565b5b828206905092915050565b600060208201905061299d6000830184612130565b92915050565b600081519050919050565b600081905092915050565b60006129c4826129a3565b6129ce81856129ae565b93506129de8185602086016123c1565b80840191505092915050565b60006129f682846129b9565b91508190509291505056fea264697066735822122072d341387ae17baf4cd2edfd6e84ea842b74570a7b4252d9d3206100822e5f5564736f6c63430008180033",
  "linkReferences": {},
  "deployedLinkReferences": {}
}