{
  "_format": "hh-sol-artifact-1",
  "contractName": "MyToken",
  "sourceName": "contracts/Token.sol",
  "abi": [
    {
      "inputs": [],
      "stateMutability": "nonpayable",
      "type": "constructor"
    },
    {
      "inputs": [],
      "name": "AccessControlBadConfirmation",
      "type": "error"
    },
    {
      "inputs": [
        {
          "internalType": "address",
          "name": "account",
          "type": "address"
        },
        {
          "internalType": "bytes32",
          "name": "neededRole",
          "type": "bytes32"
        }
      ],
      "name": "AccessControlUnauthorizedAccount",
      "type": "error"
    },
    {
      "inputs": [
        {
          "internalType": "address",
          "name": "target",
          "type": "address"
        }
      ],
      "name": "AddressEmptyCode",
      "type": "error"
    },
    {
      "inputs": [],
      "name": "CheckpointUnorderedInsertion",
      "type": "error"
    },
    {
      "inputs": [],
      "name": "ECDSAInvalidSignature",
      "type": "error"
    },
    {
      "inputs": [
        {
          "internalType": "uint256",
          "name": "length",
          "type": "uint256"
        }
      ],
      "name": "ECDSAInvalidSignatureLength",
      "type": "error"
    },
    {
      "inputs": [
        {
          "internalType": "bytes32",
          "name": "s",
          "type": "bytes32"
        }
      ],
      "name": "ECDSAInvalidSignatureS",
      "type": "error"
    },
    {
      "inputs": [
        {
          "internalType": "address",
          "name": "implementation",
          "type": "address"
        }
      ],
      "name": "ERC1967InvalidImplementation",
      "type": "error"
    },
    {
      "inputs": [],
      "name": "ERC1967NonPayable",
      "type": "error"
    },
    {
      "inputs": [
        {
          "internalType": "uint256",
          "name": "increasedSupply",
          "type": "uint256"
        },
        {
          "internalType": "uint256",
          "name": "cap",
          "type": "uint256"
        }
      ],
      "name": "ERC20ExceededSafeSupply",
      "type": "error"
    },
    {
      "inputs": [
        {
          "internalType": "address",
          "name": "spender",
          "type": "address"
        },
        {
          "internalType": "uint256",
          "name": "allowance",
          "type": "uint256"
        },
        {
          "internalType": "uint256",
          "name": "needed",
          "type": "uint256"
        }
      ],
      "name": "ERC20InsufficientAllowance",
      "type": "error"
    },
    {
      "inputs": [
        {
          "internalType": "address",
          "name": "sender",
          "type": "address"
        },
        {
          "internalType": "uint256",
          "name": "balance",
          "type": "uint256"
        },
        {
          "internalType": "uint256",
          "name": "needed",
          "type": "uint256"
        }
      ],
      "name": "ERC20InsufficientBalance",
      "type": "error"
    },
    {
      "inputs": [
        {
          "internalType": "address",
          "name": "approver",
          "type": "address"
        }
      ],
      "name": "ERC20InvalidApprover",
      "type": "error"
    },
    {
      "inputs": [
        {
          "internalType": "address",
          "name": "receiver",
          "type": "address"
        }
      ],
      "name": "ERC20InvalidReceiver",
      "type": "error"
    },
    {
      "inputs": [
        {
          "internalType": "address",
          "name": "sender",
          "type": "address"
        }
      ],
      "name": "ERC20InvalidSender",
      "type": "error"
    },
    {
      "inputs": [
        {
          "internalType": "address",
          "name": "spender",
          "type": "address"
        }
      ],
      "name": "ERC20InvalidSpender",
      "type": "error"
    },
    {
      "inputs": [
        {
          "internalType": "uint256",
          "name": "deadline",
          "type": "uint256"
        }
      ],
      "name": "ERC2612ExpiredSignature",
      "type": "error"
    },
    {
      "inputs": [
        {
          "internalType": "address",
          "name": "signer",
          "type": "address"
        },
        {
          "internalType": "address",
          "name": "owner",
          "type": "address"
        }
      ],
      "name": "ERC2612InvalidSigner",
      "type": "error"
    },
    {
      "inputs": [
        {
          "internalType": "uint256",
          "name": "timepoint",
          "type": "uint256"
        },
        {
          "internalType": "uint48",
          "name": "clock",
          "type": "uint48"
        }
      ],
      "name": "ERC5805FutureLookup",
      "type": "error"
    },
    {
      "inputs": [],
      "name": "ERC6372InconsistentClock",
      "type": "error"
    },
    {
      "inputs": [],
      "name": "EnforcedPause",
      "type": "error"
    },
    {
      "inputs": [],
      "name": "ExpectedPause",
      "type": "error"
    },
    {
      "inputs": [],
      "name": "FailedInnerCall",
      "type": "error"
    },
    {
      "inputs": [
        {
          "internalType": "address",
          "name": "account",
          "type": "address"
        },
        {
          "internalType": "uint256",
          "name": "currentNonce",
          "type": "uint256"
        }
      ],
      "name": "InvalidAccountNonce",
      "type": "error"
    },
    {
      "inputs": [],
      "name": "InvalidInitialization",
      "type": "error"
    },
    {
      "inputs": [],
      "name": "NotInitializing",
      "type": "error"
    },
    {
      "inputs": [
        {
          "internalType": "uint8",
          "name": "bits",
          "type": "uint8"
        },
        {
          "internalType": "uint256",
          "name": "value",
          "type": "uint256"
        }
      ],
      "name": "SafeCastOverflowedUintDowncast",
      "type": "error"
    },
    {
      "inputs": [],
      "name": "UUPSUnauthorizedCallContext",
      "type": "error"
    },
    {
      "inputs": [
        {
          "internalType": "bytes32",
          "name": "slot",
          "type": "bytes32"
        }
      ],
      "name": "UUPSUnsupportedProxiableUUID",
      "type": "error"
    },
    {
      "inputs": [
        {
          "internalType": "uint256",
          "name": "expiry",
          "type": "uint256"
        }
      ],
      "name": "VotesExpiredSignature",
      "type": "error"
    },
    {
      "anonymous": false,
      "inputs": [
        {
          "indexed": true,
          "internalType": "address",
          "name": "owner",
          "type": "address"
        },
        {
          "indexed": true,
          "internalType": "address",
          "name": "spender",
          "type": "address"
        },
        {
          "indexed": false,
          "internalType": "uint256",
          "name": "value",
          "type": "uint256"
        }
      ],
      "name": "Approval",
      "type": "event"
    },
    {
      "anonymous": false,
      "inputs": [
        {
          "indexed": true,
          "internalType": "address",
          "name": "delegator",
          "type": "address"
        },
        {
          "indexed": true,
          "internalType": "address",
          "name": "fromDelegate",
          "type": "address"
        },
        {
          "indexed": true,
          "internalType": "address",
          "name": "toDelegate",
          "type": "address"
        }
      ],
      "name": "DelegateChanged",
      "type": "event"
    },
    {
      "anonymous": false,
      "inputs": [
        {
          "indexed": true,
          "internalType": "address",
          "name": "delegate",
          "type": "address"
        },
        {
          "indexed": false,
          "internalType": "uint256",
          "name": "previousVotes",
          "type": "uint256"
        },
        {
          "indexed": false,
          "internalType": "uint256",
          "name": "newVotes",
          "type": "uint256"
        }
      ],
      "name": "DelegateVotesChanged",
      "type": "event"
    },
    {
      "anonymous": false,
      "inputs": [],
      "name": "EIP712DomainChanged",
      "type": "event"
    },
    {
      "anonymous": false,
      "inputs": [
        {
          "indexed": false,
          "internalType": "uint64",
          "name": "version",
          "type": "uint64"
        }
      ],
      "name": "Initialized",
      "type": "event"
    },
    {
      "anonymous": false,
      "inputs": [
        {
          "indexed": false,
          "internalType": "address",
          "name": "account",
          "type": "address"
        }
      ],
      "name": "Paused",
      "type": "event"
    },
    {
      "anonymous": false,
      "inputs": [
        {
          "indexed": true,
          "internalType": "bytes32",
          "name": "role",
          "type": "bytes32"
        },
        {
          "indexed": true,
          "internalType": "bytes32",
          "name": "previousAdminRole",
          "type": "bytes32"
        },
        {
          "indexed": true,
          "internalType": "bytes32",
          "name": "newAdminRole",
          "type": "bytes32"
        }
      ],
      "name": "RoleAdminChanged",
      "type": "event"
    },
    {
      "anonymous": false,
      "inputs": [
        {
          "indexed": true,
          "internalType": "bytes32",
          "name": "role",
          "type": "bytes32"
        },
        {
          "indexed": true,
          "internalType": "address",
          "name": "account",
          "type": "address"
        },
        {
          "indexed": true,
          "internalType": "address",
          "name": "sender",
          "type": "address"
        }
      ],
      "name": "RoleGranted",
      "type": "event"
    },
    {
      "anonymous": false,
      "inputs": [
        {
          "indexed": true,
          "internalType": "bytes32",
          "name": "role",
          "type": "bytes32"
        },
        {
          "indexed": true,
          "internalType": "address",
          "name": "account",
          "type": "address"
        },
        {
          "indexed": true,
          "internalType": "address",
          "name": "sender",
          "type": "address"
        }
      ],
      "name": "RoleRevoked",
      "type": "event"
    },
    {
      "anonymous": false,
      "inputs": [
        {
          "indexed": true,
          "internalType": "address",
          "name": "from",
          "type": "address"
        },
        {
          "indexed": true,
          "internalType": "address",
          "name": "to",
          "type": "address"
        },
        {
          "indexed": false,
          "internalType": "uint256",
          "name": "value",
          "type": "uint256"
        }
      ],
      "name": "Transfer",
      "type": "event"
    },
    {
      "anonymous": false,
      "inputs": [
        {
          "indexed": false,
          "internalType": "address",
          "name": "account",
          "type": "address"
        }
      ],
      "name": "Unpaused",
      "type": "event"
    },
    {
      "anonymous": false,
      "inputs": [
        {
          "indexed": true,
          "internalType": "address",
          "name": "implementation",
          "type": "address"
        }
      ],
      "name": "Upgraded",
      "type": "event"
    },
    {
      "inputs": [],
      "name": "CLOCK_MODE",
      "outputs": [
        {
          "internalType": "string",
          "name": "",
          "type": "string"
        }
      ],
      "stateMutability": "view",
      "type": "function"
    },
    {
      "inputs": [],
      "name": "DEFAULT_ADMIN_ROLE",
      "outputs": [
        {
          "internalType": "bytes32",
          "name": "",
          "type": "bytes32"
        }
      ],
      "stateMutability": "view",
      "type": "function"
    },
    {
      "inputs": [],
      "name": "DOMAIN_SEPARATOR",
      "outputs": [
        {
          "internalType": "bytes32",
          "name": "",
          "type": "bytes32"
        }
      ],
      "stateMutability": "view",
      "type": "function"
    },
    {
      "inputs": [],
      "name": "MINTER_ROLE",
      "outputs": [
        {
          "internalType": "bytes32",
          "name": "",
          "type": "bytes32"
        }
      ],
      "stateMutability": "view",
      "type": "function"
    },
    {
      "inputs": [],
      "name": "PAUSER_ROLE",
      "outputs": [
        {
          "internalType": "bytes32",
          "name": "",
          "type": "bytes32"
        }
      ],
      "stateMutability": "view",
      "type": "function"
    },
    {
      "inputs": [],
      "name": "UPGRADER_ROLE",
      "outputs": [
        {
          "internalType": "bytes32",
          "name": "",
          "type": "bytes32"
        }
      ],
      "stateMutability": "view",
      "type": "function"
    },
    {
      "inputs": [],
      "name": "UPGRADE_INTERFACE_VERSION",
      "outputs": [
        {
          "internalType": "string",
          "name": "",
          "type": "string"
        }
      ],
      "stateMutability": "view",
      "type": "function"
    },
    {
      "inputs": [
        {
          "internalType": "address",
          "name": "owner",
          "type": "address"
        },
        {
          "internalType": "address",
          "name": "spender",
          "type": "address"
        }
      ],
      "name": "allowance",
      "outputs": [
        {
          "internalType": "uint256",
          "name": "",
          "type": "uint256"
        }
      ],
      "stateMutability": "view",
      "type": "function"
    },
    {
      "inputs": [
        {
          "internalType": "address",
          "name": "spender",
          "type": "address"
        },
        {
          "internalType": "uint256",
          "name": "value",
          "type": "uint256"
        }
      ],
      "name": "approve",
      "outputs": [
        {
          "internalType": "bool",
          "name": "",
          "type": "bool"
        }
      ],
      "stateMutability": "nonpayable",
      "type": "function"
    },
    {
      "inputs": [
        {
          "internalType": "address",
          "name": "account",
          "type": "address"
        }
      ],
      "name": "balanceOf",
      "outputs": [
        {
          "internalType": "uint256",
          "name": "",
          "type": "uint256"
        }
      ],
      "stateMutability": "view",
      "type": "function"
    },
    {
      "inputs": [
        {
          "internalType": "address",
          "name": "account",
          "type": "address"
        },
        {
          "internalType": "uint32",
          "name": "pos",
          "type": "uint32"
        }
      ],
      "name": "checkpoints",
      "outputs": [
        {
          "components": [
            {
              "internalType": "uint48",
              "name": "_key",
              "type": "uint48"
            },
            {
              "internalType": "uint208",
              "name": "_value",
              "type": "uint208"
            }
          ],
          "internalType": "struct Checkpoints.Checkpoint208",
          "name": "",
          "type": "tuple"
        }
      ],
      "stateMutability": "view",
      "type": "function"
    },
    {
      "inputs": [],
      "name": "clock",
      "outputs": [
        {
          "internalType": "uint48",
          "name": "",
          "type": "uint48"
        }
      ],
      "stateMutability": "view",
      "type": "function"
    },
    {
      "inputs": [],
      "name": "decimals",
      "outputs": [
        {
          "internalType": "uint8",
          "name": "",
          "type": "uint8"
        }
      ],
      "stateMutability": "view",
      "type": "function"
    },
    {
      "inputs": [
        {
          "internalType": "address",
          "name": "delegatee",
          "type": "address"
        }
      ],
      "name": "delegate",
      "outputs": [],
      "stateMutability": "nonpayable",
      "type": "function"
    },
    {
      "inputs": [
        {
          "internalType": "address",
          "name": "delegatee",
          "type": "address"
        },
        {
          "internalType": "uint256",
          "name": "nonce",
          "type": "uint256"
        },
        {
          "internalType": "uint256",
          "name": "expiry",
          "type": "uint256"
        },
        {
          "internalType": "uint8",
          "name": "v",
          "type": "uint8"
        },
        {
          "internalType": "bytes32",
          "name": "r",
          "type": "bytes32"
        },
        {
          "internalType": "bytes32",
          "name": "s",
          "type": "bytes32"
        }
      ],
      "name": "delegateBySig",
      "outputs": [],
      "stateMutability": "nonpayable",
      "type": "function"
    },
    {
      "inputs": [
        {
          "internalType": "address",
          "name": "account",
          "type": "address"
        }
      ],
      "name": "delegates",
      "outputs": [
        {
          "internalType": "address",
          "name": "",
          "type": "address"
        }
      ],
      "stateMutability": "view",
      "type": "function"
    },
    {
      "inputs": [],
      "name": "eip712Domain",
      "outputs": [
        {
          "internalType": "bytes1",
          "name": "fields",
          "type": "bytes1"
        },
        {
          "internalType": "string",
          "name": "name",
          "type": "string"
        },
        {
          "internalType": "string",
          "name": "version",
          "type": "string"
        },
        {
          "internalType": "uint256",
          "name": "chainId",
          "type": "uint256"
        },
        {
          "internalType": "address",
          "name": "verifyingContract",
          "type": "address"
        },
        {
          "internalType": "bytes32",
          "name": "salt",
          "type": "bytes32"
        },
        {
          "internalType": "uint256[]",
          "name": "extensions",
          "type": "uint256[]"
        }
      ],
      "stateMutability": "view",
      "type": "function"
    },
    {
      "inputs": [
        {
          "internalType": "uint256",
          "name": "timepoint",
          "type": "uint256"
        }
      ],
      "name": "getPastTotalSupply",
      "outputs": [
        {
          "internalType": "uint256",
          "name": "",
          "type": "uint256"
        }
      ],
      "stateMutability": "view",
      "type": "function"
    },
    {
      "inputs": [
        {
          "internalType": "address",
          "name": "account",
          "type": "address"
        },
        {
          "internalType": "uint256",
          "name": "timepoint",
          "type": "uint256"
        }
      ],
      "name": "getPastVotes",
      "outputs": [
        {
          "internalType": "uint256",
          "name": "",
          "type": "uint256"
        }
      ],
      "stateMutability": "view",
      "type": "function"
    },
    {
      "inputs": [
        {
          "internalType": "bytes32",
          "name": "role",
          "type": "bytes32"
        }
      ],
      "name": "getRoleAdmin",
      "outputs": [
        {
          "internalType": "bytes32",
          "name": "",
          "type": "bytes32"
        }
      ],
      "stateMutability": "view",
      "type": "function"
    },
    {
      "inputs": [
        {
          "internalType": "address",
          "name": "account",
          "type": "address"
        }
      ],
      "name": "getVotes",
      "outputs": [
        {
          "internalType": "uint256",
          "name": "",
          "type": "uint256"
        }
      ],
      "stateMutability": "view",
      "type": "function"
    },
    {
      "inputs": [
        {
          "internalType": "bytes32",
          "name": "role",
          "type": "bytes32"
        },
        {
          "internalType": "address",
          "name": "account",
          "type": "address"
        }
      ],
      "name": "grantRole",
      "outputs": [],
      "stateMutability": "nonpayable",
      "type": "function"
    },
    {
      "inputs": [
        {
          "internalType": "bytes32",
          "name": "role",
          "type": "bytes32"
        },
        {
          "internalType": "address",
          "name": "account",
          "type": "address"
        }
      ],
      "name": "hasRole",
      "outputs": [
        {
          "internalType": "bool",
          "name": "",
          "type": "bool"
        }
      ],
      "stateMutability": "view",
      "type": "function"
    },
    {
      "inputs": [
        {
          "internalType": "address",
          "name": "defaultAdmin",
          "type": "address"
        },
        {
          "internalType": "address",
          "name": "pauser",
          "type": "address"
        },
        {
          "internalType": "address",
          "name": "minter",
          "type": "address"
        },
        {
          "internalType": "address",
          "name": "upgrader",
          "type": "address"
        }
      ],
      "name": "initialize",
      "outputs": [],
      "stateMutability": "nonpayable",
      "type": "function"
    },
    {
      "inputs": [
        {
          "internalType": "address",
          "name": "to",
          "type": "address"
        },
        {
          "internalType": "uint256",
          "name": "amount",
          "type": "uint256"
        }
      ],
      "name": "mint",
      "outputs": [],
      "stateMutability": "nonpayable",
      "type": "function"
    },
    {
      "inputs": [],
      "name": "name",
      "outputs": [
        {
          "internalType": "string",
          "name": "",
          "type": "string"
        }
      ],
      "stateMutability": "view",
      "type": "function"
    },
    {
      "inputs": [
        {
          "internalType": "address",
          "name": "owner",
          "type": "address"
        }
      ],
      "name": "nonces",
      "outputs": [
        {
          "internalType": "uint256",
          "name": "",
          "type": "uint256"
        }
      ],
      "stateMutability": "view",
      "type": "function"
    },
    {
      "inputs": [
        {
          "internalType": "address",
          "name": "account",
          "type": "address"
        }
      ],
      "name": "numCheckpoints",
      "outputs": [
        {
          "internalType": "uint32",
          "name": "",
          "type": "uint32"
        }
      ],
      "stateMutability": "view",
      "type": "function"
    },
    {
      "inputs": [],
      "name": "pause",
      "outputs": [],
      "stateMutability": "nonpayable",
      "type": "function"
    },
    {
      "inputs": [],
      "name": "paused",
      "outputs": [
        {
          "internalType": "bool",
          "name": "",
          "type": "bool"
        }
      ],
      "stateMutability": "view",
      "type": "function"
    },
    {
      "inputs": [
        {
          "internalType": "address",
          "name": "owner",
          "type": "address"
        },
        {
          "internalType": "address",
          "name": "spender",
          "type": "address"
        },
        {
          "internalType": "uint256",
          "name": "value",
          "type": "uint256"
        },
        {
          "internalType": "uint256",
          "name": "deadline",
          "type": "uint256"
        },
        {
          "internalType": "uint8",
          "name": "v",
          "type": "uint8"
        },
        {
          "internalType": "bytes32",
          "name": "r",
          "type": "bytes32"
        },
        {
          "internalType": "bytes32",
          "name": "s",
          "type": "bytes32"
        }
      ],
      "name": "permit",
      "outputs": [],
      "stateMutability": "nonpayable",
      "type": "function"
    },
    {
      "inputs": [],
      "name": "proxiableUUID",
      "outputs": [
        {
          "internalType": "bytes32",
          "name": "",
          "type": "bytes32"
        }
      ],
      "stateMutability": "view",
      "type": "function"
    },
    {
      "inputs": [
        {
          "internalType": "bytes32",
          "name": "role",
          "type": "bytes32"
        },
        {
          "internalType": "address",
          "name": "callerConfirmation",
          "type": "address"
        }
      ],
      "name": "renounceRole",
      "outputs": [],
      "stateMutability": "nonpayable",
      "type": "function"
    },
    {
      "inputs": [
        {
          "internalType": "bytes32",
          "name": "role",
          "type": "bytes32"
        },
        {
          "internalType": "address",
          "name": "account",
          "type": "address"
        }
      ],
      "name": "revokeRole",
      "outputs": [],
      "stateMutability": "nonpayable",
      "type": "function"
    },
    {
      "inputs": [
        {
          "internalType": "bytes4",
          "name": "interfaceId",
          "type": "bytes4"
        }
      ],
      "name": "supportsInterface",
      "outputs": [
        {
          "internalType": "bool",
          "name": "",
          "type": "bool"
        }
      ],
      "stateMutability": "view",
      "type": "function"
    },
    {
      "inputs": [],
      "name": "symbol",
      "outputs": [
        {
          "internalType": "string",
          "name": "",
          "type": "string"
        }
      ],
      "stateMutability": "view",
      "type": "function"
    },
    {
      "inputs": [],
      "name": "totalSupply",
      "outputs": [
        {
          "internalType": "uint256",
          "name": "",
          "type": "uint256"
        }
      ],
      "stateMutability": "view",
      "type": "function"
    },
    {
      "inputs": [
        {
          "internalType": "address",
          "name": "to",
          "type": "address"
        },
        {
          "internalType": "uint256",
          "name": "value",
          "type": "uint256"
        }
      ],
      "name": "transfer",
      "outputs": [
        {
          "internalType": "bool",
          "name": "",
          "type": "bool"
        }
      ],
      "stateMutability": "nonpayable",
      "type": "function"
    },
    {
      "inputs": [
        {
          "internalType": "address",
          "name": "from",
          "type": "address"
        },
        {
          "internalType": "address",
          "name": "to",
          "type": "address"
        },
        {
          "internalType": "uint256",
          "name": "value",
          "type": "uint256"
        }
      ],
      "name": "transferFrom",
      "outputs": [
        {
          "internalType": "bool",
          "name": "",
          "type": "bool"
        }
      ],
      "stateMutability": "nonpayable",
      "type": "function"
    },
    {
      "inputs": [],
      "name": "unpause",
      "outputs": [],
      "stateMutability": "nonpayable",
      "type": "function"
    },
    {
      "inputs": [
        {
          "internalType": "address",
          "name": "newImplementation",
          "type": "address"
        },
        {
          "internalType": "bytes",
          "name": "data",
          "type": "bytes"
        }
      ],
      "name": "upgradeToAndCall",
      "outputs": [],
      "stateMutability": "payable",
      "type": "function"
    }
  ],
  "bytecode": "0x60a06040523073ffffffffffffffffffffffffffffffffffffffff1660809073ffffffffffffffffffffffffffffffffffffffff168152503480156200004457600080fd5b50620000556200005b60201b60201c565b620001cf565b60006200006d6200016560201b60201c565b90508060000160089054906101000a900460ff1615620000b9576040517ff92ee8a900000000000000000000000000000000000000000000000000000000815260040160405180910390fd5b67ffffffffffffffff80168160000160009054906101000a900467ffffffffffffffff1667ffffffffffffffff1614620001625767ffffffffffffffff8160000160006101000a81548167ffffffffffffffff021916908367ffffffffffffffff1602179055507fc7f505b2f371ae2175ee4913f4499e1f2633a7b5936321eed1cdaeb6115181d267ffffffffffffffff604051620001599190620001b2565b60405180910390a15b50565b60007ff0c57e16840df040f15088dc2f81fe391c3923bec73e23a9662efc9c229c6a00905090565b600067ffffffffffffffff82169050919050565b620001ac816200018d565b82525050565b6000602082019050620001c96000830184620001a1565b92915050565b608051615977620001f96000396000818161210001528181612155015261233301526159776000f3fe6080604052600436106102465760003560e01c806370a0823111610139578063a9059cbb116100b6578063d547741f1161007a578063d547741f146108d9578063dd62ed3e14610902578063e63ab1e91461093f578063f1127ed81461096a578063f72c0d8b146109a7578063f8c8765e146109d257610246565b8063a9059cbb146107f4578063ad3cb1cc14610831578063c3cda5201461085c578063d505accf14610885578063d5391393146108ae57610246565b806391d14854116100fd57806391d14854146106f957806391ddadf41461073657806395d89b41146107615780639ab24eb01461078c578063a217fddf146107c957610246565b806370a08231146105fa5780637ecebe00146106375780638456cb591461067457806384b0196e1461068b5780638e539e8c146106bc57610246565b80633a46b1a8116101c757806352d1902d1161018b57806352d1902d14610501578063587cde1e1461052c5780635c19a95c146105695780635c975abb146105925780636fcfff45146105bd57610246565b80633a46b1a81461043d5780633f4ba83a1461047a57806340c10f19146104915780634bf5d7e9146104ba5780634f1ef286146104e557610246565b8063248a9ca31161020e578063248a9ca3146103585780632f2ff15d14610395578063313ce567146103be5780633644e515146103e957806336568abe1461041457610246565b806301ffc9a71461024b57806306fdde0314610288578063095ea7b3146102b357806318160ddd146102f057806323b872dd1461031b575b600080fd5b34801561025757600080fd5b50610272600480360381019061026d9190614520565b6109fb565b60405161027f9190614568565b60405180910390f35b34801561029457600080fd5b5061029d610a75565b6040516102aa9190614613565b60405180910390f35b3480156102bf57600080fd5b506102da60048036038101906102d591906146c9565b610b16565b6040516102e79190614568565b60405180910390f35b3480156102fc57600080fd5b50610305610b39565b6040516103129190614718565b60405180910390f35b34801561032757600080fd5b50610342600480360381019061033d9190614733565b610b51565b60405161034f9190614568565b60405180910390f35b34801561036457600080fd5b5061037f600480360381019061037a91906147bc565b610b80565b60405161038c91906147f8565b60405180910390f35b3480156103a157600080fd5b506103bc60048036038101906103b79190614813565b610bae565b005b3480156103ca57600080fd5b506103d3610bd0565b6040516103e0919061486f565b60405180910390f35b3480156103f557600080fd5b506103fe610bd9565b60405161040b91906147f8565b60405180910390f35b34801561042057600080fd5b5061043b60048036038101906104369190614813565b610be8565b005b34801561044957600080fd5b50610464600480360381019061045f91906146c9565b610c63565b6040516104719190614718565b60405180910390f35b34801561048657600080fd5b5061048f610d4b565b005b34801561049d57600080fd5b506104b860048036038101906104b391906146c9565b610d80565b005b3480156104c657600080fd5b506104cf610db9565b6040516104dc9190614613565b60405180910390f35b6104ff60048036038101906104fa91906149bf565b610e4d565b005b34801561050d57600080fd5b50610516610e6c565b60405161052391906147f8565b60405180910390f35b34801561053857600080fd5b50610553600480360381019061054e9190614a1b565b610e9f565b6040516105609190614a57565b60405180910390f35b34801561057557600080fd5b50610590600480360381019061058b9190614a1b565b610f16565b005b34801561059e57600080fd5b506105a7610f30565b6040516105b49190614568565b60405180910390f35b3480156105c957600080fd5b506105e460048036038101906105df9190614a1b565b610f55565b6040516105f19190614a91565b60405180910390f35b34801561060657600080fd5b50610621600480360381019061061c9190614a1b565b610f67565b60405161062e9190614718565b60405180910390f35b34801561064357600080fd5b5061065e60048036038101906106599190614a1b565b610fbe565b60405161066b9190614718565b60405180910390f35b34801561068057600080fd5b50610689610fd0565b005b34801561069757600080fd5b506106a0611005565b6040516106b39796959493929190614ba5565b60405180910390f35b3480156106c857600080fd5b506106e360048036038101906106de9190614c29565b611117565b6040516106f09190614718565b60405180910390f35b34801561070557600080fd5b50610720600480360381019061071b9190614813565b6111c1565b60405161072d9190614568565b60405180910390f35b34801561074257600080fd5b5061074b61123a565b6040516107589190614c77565b60405180910390f35b34801561076d57600080fd5b50610776611249565b6040516107839190614613565b60405180910390f35b34801561079857600080fd5b506107b360048036038101906107ae9190614a1b565b6112ea565b6040516107c09190614718565b60405180910390f35b3480156107d557600080fd5b506107de611364565b6040516107eb91906147f8565b60405180910390f35b34801561080057600080fd5b5061081b600480360381019061081691906146c9565b61136b565b6040516108289190614568565b60405180910390f35b34801561083d57600080fd5b5061084661138e565b6040516108539190614613565b60405180910390f35b34801561086857600080fd5b50610883600480360381019061087e9190614cbe565b6113c7565b005b34801561089157600080fd5b506108ac60048036038101906108a79190614d4b565b61148d565b005b3480156108ba57600080fd5b506108c36115d5565b6040516108d091906147f8565b60405180910390f35b3480156108e557600080fd5b5061090060048036038101906108fb9190614813565b6115f9565b005b34801561090e57600080fd5b5061092960048036038101906109249190614ded565b61161b565b6040516109369190614718565b60405180910390f35b34801561094b57600080fd5b506109546116b0565b60405161096191906147f8565b60405180910390f35b34801561097657600080fd5b50610991600480360381019061098c9190614e59565b6116d4565b60405161099e9190614f0c565b60405180910390f35b3480156109b357600080fd5b506109bc6116ee565b6040516109c991906147f8565b60405180910390f35b3480156109de57600080fd5b506109f960048036038101906109f49190614f27565b611712565b005b60007f7965db0b000000000000000000000000000000000000000000000000000000007bffffffffffffffffffffffffffffffffffffffffffffffffffffffff1916827bffffffffffffffffffffffffffffffffffffffffffffffffffffffff19161480610a6e5750610a6d826119fc565b5b9050919050565b60606000610a81611a66565b9050806003018054610a9290614fbd565b80601f0160208091040260200160405190810160405280929190818152602001828054610abe90614fbd565b8015610b0b5780601f10610ae057610100808354040283529160200191610b0b565b820191906000526020600020905b815481529060010190602001808311610aee57829003601f168201915b505050505091505090565b600080610b21611a8e565b9050610b2e818585611a96565b600191505092915050565b600080610b44611a66565b9050806002015491505090565b600080610b5c611a8e565b9050610b69858285611aa8565b610b74858585611b3c565b60019150509392505050565b600080610b8b611c30565b905080600001600084815260200190815260200160002060010154915050919050565b610bb782610b80565b610bc081611c58565b610bca8383611c6c565b50505050565b60006012905090565b6000610be3611d6d565b905090565b610bf0611a8e565b73ffffffffffffffffffffffffffffffffffffffff168173ffffffffffffffffffffffffffffffffffffffff1614610c54576040517f6697b23200000000000000000000000000000000000000000000000000000000815260040160405180910390fd5b610c5e8282611d7c565b505050565b600080610c6e611e7e565b90506000610c7a61123a565b90508065ffffffffffff168410610cca5783816040517fecd3f81e000000000000000000000000000000000000000000000000000000008152600401610cc1929190614fee565b60405180910390fd5b610d25610cd685611ea6565b8360010160008873ffffffffffffffffffffffffffffffffffffffff1673ffffffffffffffffffffffffffffffffffffffff168152602001908152602001600020611f0090919063ffffffff16565b79ffffffffffffffffffffffffffffffffffffffffffffffffffff169250505092915050565b7f65d7a28e3265b37a6474929f336521b332c1681b933f6cb9f3376673440d862a610d7581611c58565b610d7d611ffa565b50565b7f9f2df0fed2c77648de5860a4cc508cd0818c85b8b8a1ab4ceeef8d981c8956a6610daa81611c58565b610db4838361206c565b505050565b6060610dc36120ee565b65ffffffffffff16610dd361123a565b65ffffffffffff1614610e12576040517f6ff0714000000000000000000000000000000000000000000000000000000000815260040160405180910390fd5b6040518060400160405280601d81526020017f6d6f64653d626c6f636b6e756d6265722666726f6d3d64656661756c74000000815250905090565b610e556120fe565b610e5e826121e4565b610e688282612212565b5050565b6000610e76612331565b7f360894a13ba1a3210667c828492db98dca3e2076cc3735a920a3ca505d382bbc60001b905090565b600080610eaa611e7e565b90508060000160008473ffffffffffffffffffffffffffffffffffffffff1673ffffffffffffffffffffffffffffffffffffffff16815260200190815260200160002060009054906101000a900473ffffffffffffffffffffffffffffffffffffffff16915050919050565b6000610f20611a8e565b9050610f2c81836123b8565b5050565b600080610f3b6124db565b90508060000160009054906101000a900460ff1691505090565b6000610f6082612503565b9050919050565b600080610f72611a66565b90508060000160008473ffffffffffffffffffffffffffffffffffffffff1673ffffffffffffffffffffffffffffffffffffffff16815260200190815260200160002054915050919050565b6000610fc982612569565b9050919050565b7f65d7a28e3265b37a6474929f336521b332c1681b933f6cb9f3376673440d862a610ffa81611c58565b61100261257b565b50565b600060608060008060006060600061101b6125ed565b90506000801b816000015414801561103957506000801b8160010154145b611078576040517f08c379a000000000000000000000000000000000000000000000000000000000815260040161106f90615063565b60405180910390fd5b611080612615565b6110886126b6565b46306000801b600067ffffffffffffffff8111156110a9576110a8614894565b5b6040519080825280602002602001820160405280156110d75781602001602082028036833780820191505090505b507f0f0000000000000000000000000000000000000000000000000000000000000095949392919097509750975097509750975097505090919293949596565b600080611122611e7e565b9050600061112e61123a565b90508065ffffffffffff16841061117e5783816040517fecd3f81e000000000000000000000000000000000000000000000000000000008152600401611175929190614fee565b60405180910390fd5b61119c61118a85611ea6565b83600201611f0090919063ffffffff16565b79ffffffffffffffffffffffffffffffffffffffffffffffffffff1692505050919050565b6000806111cc611c30565b905080600001600085815260200190815260200160002060000160008473ffffffffffffffffffffffffffffffffffffffff1673ffffffffffffffffffffffffffffffffffffffff16815260200190815260200160002060009054906101000a900460ff1691505092915050565b60006112446120ee565b905090565b60606000611255611a66565b905080600401805461126690614fbd565b80601f016020809104026020016040519081016040528092919081815260200182805461129290614fbd565b80156112df5780601f106112b4576101008083540402835291602001916112df565b820191906000526020600020905b8154815290600101906020018083116112c257829003601f168201915b505050505091505090565b6000806112f5611e7e565b90506113408160010160008573ffffffffffffffffffffffffffffffffffffffff1673ffffffffffffffffffffffffffffffffffffffff168152602001908152602001600020612757565b79ffffffffffffffffffffffffffffffffffffffffffffffffffff16915050919050565b6000801b81565b600080611376611a8e565b9050611383818585611b3c565b600191505092915050565b6040518060400160405280600581526020017f352e302e3000000000000000000000000000000000000000000000000000000081525081565b8342111561140c57836040517f4683af0e0000000000000000000000000000000000000000000000000000000081526004016114039190614718565b60405180910390fd5b600061146e6114667fe48329057bfd03d55e49b547132e39cffd9c1820ad7b9d4c5307691425d15adf89898960405160200161144b9493929190615083565b604051602081830303815290604052805190602001206127bf565b8585856127d9565b905061147a8187612809565b61148481886123b8565b50505050505050565b834211156114d257836040517f627913020000000000000000000000000000000000000000000000000000000081526004016114c99190614718565b60405180910390fd5b60007f6e71edae12b1b97f4d1f60370fef10105fa2faae0126114a169c64845d6126c98888886115018c612861565b89604051602001611517969594939291906150c8565b604051602081830303815290604052805190602001209050600061153a826127bf565b9050600061154a828787876127d9565b90508973ffffffffffffffffffffffffffffffffffffffff168173ffffffffffffffffffffffffffffffffffffffff16146115be57808a6040517f4b800e460000000000000000000000000000000000000000000000000000000081526004016115b5929190615129565b60405180910390fd5b6115c98a8a8a611a96565b50505050505050505050565b7f9f2df0fed2c77648de5860a4cc508cd0818c85b8b8a1ab4ceeef8d981c8956a681565b61160282610b80565b61160b81611c58565b6116158383611d7c565b50505050565b600080611626611a66565b90508060010160008573ffffffffffffffffffffffffffffffffffffffff1673ffffffffffffffffffffffffffffffffffffffff16815260200190815260200160002060008473ffffffffffffffffffffffffffffffffffffffff1673ffffffffffffffffffffffffffffffffffffffff1681526020019081526020016000205491505092915050565b7f65d7a28e3265b37a6474929f336521b332c1681b933f6cb9f3376673440d862a81565b6116dc614476565b6116e683836128c6565b905092915050565b7f189ab7a9244df0848122154315af71fe140f3db0fe014031783b0946b8c9d2e381565b600061171c612936565b905060008160000160089054906101000a900460ff1615905060008260000160009054906101000a900467ffffffffffffffff1690506000808267ffffffffffffffff1614801561176a5750825b9050600060018367ffffffffffffffff1614801561179f575060003073ffffffffffffffffffffffffffffffffffffffff163b145b9050811580156117ad575080155b156117e4576040517ff92ee8a900000000000000000000000000000000000000000000000000000000815260040160405180910390fd5b60018560000160006101000a81548167ffffffffffffffff021916908367ffffffffffffffff16021790555083156118345760018560000160086101000a81548160ff0219169083151502179055505b6118a86040518060400160405280600781526020017f4d79546f6b656e000000000000000000000000000000000000000000000000008152506040518060400160405280600381526020017f4d544b000000000000000000000000000000000000000000000000000000000081525061295e565b6118b0612974565b6118b8612986565b6118f66040518060400160405280600781526020017f4d79546f6b656e00000000000000000000000000000000000000000000000000815250612990565b6118fe6129da565b6119066129e4565b6119136000801b8a611c6c565b5061193e7f65d7a28e3265b37a6474929f336521b332c1681b933f6cb9f3376673440d862a89611c6c565b506119697f9f2df0fed2c77648de5860a4cc508cd0818c85b8b8a1ab4ceeef8d981c8956a688611c6c565b506119947f189ab7a9244df0848122154315af71fe140f3db0fe014031783b0946b8c9d2e387611c6c565b5083156119f15760008560000160086101000a81548160ff0219169083151502179055507fc7f505b2f371ae2175ee4913f4499e1f2633a7b5936321eed1cdaeb6115181d260016040516119e891906151ab565b60405180910390a15b505050505050505050565b60007f01ffc9a7000000000000000000000000000000000000000000000000000000007bffffffffffffffffffffffffffffffffffffffffffffffffffffffff1916827bffffffffffffffffffffffffffffffffffffffffffffffffffffffff1916149050919050565b60007f52c63247e1f47db19d5ce0460030c497f067ca4cebf71ba98eeadabe20bace00905090565b600033905090565b611aa383838360016129ee565b505050565b6000611ab4848461161b565b90507fffffffffffffffffffffffffffffffffffffffffffffffffffffffffffffffff8114611b365781811015611b26578281836040517ffb8f41b2000000000000000000000000000000000000000000000000000000008152600401611b1d939291906151c6565b60405180910390fd5b611b35848484840360006129ee565b5b50505050565b600073ffffffffffffffffffffffffffffffffffffffff168373ffffffffffffffffffffffffffffffffffffffff1603611bae5760006040517f96c6fd1e000000000000000000000000000000000000000000000000000000008152600401611ba59190614a57565b60405180910390fd5b600073ffffffffffffffffffffffffffffffffffffffff168273ffffffffffffffffffffffffffffffffffffffff1603611c205760006040517fec442f05000000000000000000000000000000000000000000000000000000008152600401611c179190614a57565b60405180910390fd5b611c2b838383612bd4565b505050565b60007f02dd7bc7dec4dceedda775e58dd541e08a116c6c53815c0bd028192f7b626800905090565b611c6981611c64611a8e565b612be4565b50565b600080611c77611c30565b9050611c8384846111c1565b611d6157600181600001600086815260200190815260200160002060000160008573ffffffffffffffffffffffffffffffffffffffff1673ffffffffffffffffffffffffffffffffffffffff16815260200190815260200160002060006101000a81548160ff021916908315150217905550611cfd611a8e565b73ffffffffffffffffffffffffffffffffffffffff168373ffffffffffffffffffffffffffffffffffffffff16857f2f8788117e7eff1d82e926ec794901d17c78024a50270940304540a733656f0d60405160405180910390a46001915050611d67565b60009150505b92915050565b6000611d77612c35565b905090565b600080611d87611c30565b9050611d9384846111c1565b15611e7257600081600001600086815260200190815260200160002060000160008573ffffffffffffffffffffffffffffffffffffffff1673ffffffffffffffffffffffffffffffffffffffff16815260200190815260200160002060006101000a81548160ff021916908315150217905550611e0e611a8e565b73ffffffffffffffffffffffffffffffffffffffff168373ffffffffffffffffffffffffffffffffffffffff16857ff6391f5c32d9c69d2a47ea670b442974b53935d1edc7fd64eb21e047a839171b60405160405180910390a46001915050611e78565b60009150505b92915050565b60007fe8b26c30fad74198956032a3533d903385d56dd795af560196f9c78d4af40d00905090565b600065ffffffffffff8016821115611ef8576030826040517f6dfcc650000000000000000000000000000000000000000000000000000000008152600401611eef929190615238565b60405180910390fd5b819050919050565b600080836000018054905090506000808290506005831115611f88576000611f2784612c99565b84611f329190615290565b9050611f418760000182612d92565b60000160009054906101000a900465ffffffffffff1665ffffffffffff168665ffffffffffff161015611f7657809150611f86565b600181611f8391906152c4565b92505b505b6000611f9987600001878585612da7565b905060008114611feb57611fbc87600001600183611fb79190615290565b612d92565b60000160069054906101000a900479ffffffffffffffffffffffffffffffffffffffffffffffffffff16611fee565b60005b94505050505092915050565b612002612e20565b600061200c6124db565b905060008160000160006101000a81548160ff0219169083151502179055507f5db9ee0a495bf2e6ff9c91a7834c1ba4fdd244a5e8aa4e537bd38aeae4b073aa612054611a8e565b6040516120619190614a57565b60405180910390a150565b600073ffffffffffffffffffffffffffffffffffffffff168273ffffffffffffffffffffffffffffffffffffffff16036120de5760006040517fec442f050000000000000000000000000000000000000000000000000000000081526004016120d59190614a57565b60405180910390fd5b6120ea60008383612bd4565b5050565b60006120f943611ea6565b905090565b7f000000000000000000000000000000000000000000000000000000000000000073ffffffffffffffffffffffffffffffffffffffff163073ffffffffffffffffffffffffffffffffffffffff1614806121ab57507f000000000000000000000000000000000000000000000000000000000000000073ffffffffffffffffffffffffffffffffffffffff16612192612e60565b73ffffffffffffffffffffffffffffffffffffffff1614155b156121e2576040517fe07c8dba00000000000000000000000000000000000000000000000000000000815260040160405180910390fd5b565b7f189ab7a9244df0848122154315af71fe140f3db0fe014031783b0946b8c9d2e361220e81611c58565b5050565b8173ffffffffffffffffffffffffffffffffffffffff166352d1902d6040518163ffffffff1660e01b8152600401602060405180830381865afa92505050801561227a57506040513d601f19601f82011682018060405250810190612277919061530d565b60015b6122bb57816040517f4c9c8ce30000000000000000000000000000000000000000000000000000000081526004016122b29190614a57565b60405180910390fd5b7f360894a13ba1a3210667c828492db98dca3e2076cc3735a920a3ca505d382bbc60001b811461232257806040517faa1d49a400000000000000000000000000000000000000000000000000000000815260040161231991906147f8565b60405180910390fd5b61232c8383612eb7565b505050565b7f000000000000000000000000000000000000000000000000000000000000000073ffffffffffffffffffffffffffffffffffffffff163073ffffffffffffffffffffffffffffffffffffffff16146123b6576040517fe07c8dba00000000000000000000000000000000000000000000000000000000815260040160405180910390fd5b565b60006123c2611e7e565b905060006123cf84610e9f565b9050828260000160008673ffffffffffffffffffffffffffffffffffffffff1673ffffffffffffffffffffffffffffffffffffffff16815260200190815260200160002060006101000a81548173ffffffffffffffffffffffffffffffffffffffff021916908373ffffffffffffffffffffffffffffffffffffffff1602179055508273ffffffffffffffffffffffffffffffffffffffff168173ffffffffffffffffffffffffffffffffffffffff168573ffffffffffffffffffffffffffffffffffffffff167f3134e8a2e6d97e929a7e54011ea5485d7d196dd5f0ba4d4ef95803e8e3fc257f60405160405180910390a46124d581846124d087612f2a565b612f3c565b50505050565b60007fcd5ed15c6e187e77e9aee88184c21f4f2182ab5827cb3b7e07fbedcd63f03300905090565b60008061250e611e7e565b905061256161255c8260010160008673ffffffffffffffffffffffffffffffffffffffff1673ffffffffffffffffffffffffffffffffffffffff1681526020019081526020016000206131c6565b6131d7565b915050919050565b60006125748261322f565b9050919050565b612583613286565b600061258d6124db565b905060018160000160006101000a81548160ff0219169083151502179055507f62e78cea01bee320cd4e420270b5ea74000d11b0c9f74754ebdbfc544b05a2586125d5611a8e565b6040516125e29190614a57565b60405180910390a150565b60007fa16a46d94261c7517cc8ff89f61c0ce93598e3c849801011dee649a6a557d100905090565b606060006126216125ed565b905080600201805461263290614fbd565b80601f016020809104026020016040519081016040528092919081815260200182805461265e90614fbd565b80156126ab5780601f10612680576101008083540402835291602001916126ab565b820191906000526020600020905b81548152906001019060200180831161268e57829003601f168201915b505050505091505090565b606060006126c26125ed565b90508060030180546126d390614fbd565b80601f01602080910402602001604051908101604052809291908181526020018280546126ff90614fbd565b801561274c5780601f106127215761010080835404028352916020019161274c565b820191906000526020600020905b81548152906001019060200180831161272f57829003601f168201915b505050505091505090565b60008082600001805490509050600081146127b457612785836000016001836127809190615290565b612d92565b60000160069054906101000a900479ffffffffffffffffffffffffffffffffffffffffffffffffffff166127b7565b60005b915050919050565b60006127d26127cc611d6d565b836132c7565b9050919050565b6000806000806127eb88888888613308565b9250925092506127fb82826133fc565b829350505050949350505050565b600061281483612861565b905080821461285c5782816040517f752d88c000000000000000000000000000000000000000000000000000000000815260040161285392919061533a565b60405180910390fd5b505050565b60008061286c613560565b90508060000160008473ffffffffffffffffffffffffffffffffffffffff1673ffffffffffffffffffffffffffffffffffffffff168152602001908152602001600020600081548092919060010191905055915050919050565b6128ce614476565b60006128d8611e7e565b905061292d838260010160008773ffffffffffffffffffffffffffffffffffffffff1673ffffffffffffffffffffffffffffffffffffffff16815260200190815260200160002061358890919063ffffffff16565b91505092915050565b60007ff0c57e16840df040f15088dc2f81fe391c3923bec73e23a9662efc9c229c6a00905090565b61296661365d565b612970828261369d565b5050565b61297c61365d565b6129846136da565b565b61298e61365d565b565b61299861365d565b6129d7816040518060400160405280600181526020017f310000000000000000000000000000000000000000000000000000000000000081525061370e565b50565b6129e261365d565b565b6129ec61365d565b565b60006129f8611a66565b9050600073ffffffffffffffffffffffffffffffffffffffff168573ffffffffffffffffffffffffffffffffffffffff1603612a6c5760006040517fe602df05000000000000000000000000000000000000000000000000000000008152600401612a639190614a57565b60405180910390fd5b600073ffffffffffffffffffffffffffffffffffffffff168473ffffffffffffffffffffffffffffffffffffffff1603612ade5760006040517f94280d62000000000000000000000000000000000000000000000000000000008152600401612ad59190614a57565b60405180910390fd5b828160010160008773ffffffffffffffffffffffffffffffffffffffff1673ffffffffffffffffffffffffffffffffffffffff16815260200190815260200160002060008673ffffffffffffffffffffffffffffffffffffffff1673ffffffffffffffffffffffffffffffffffffffff168152602001908152602001600020819055508115612bcd578373ffffffffffffffffffffffffffffffffffffffff168573ffffffffffffffffffffffffffffffffffffffff167f8c5be1e5ebec7d5bd14f71427d1e84f3dd0314c0f7b2291e5b200ac8c7c3b92585604051612bc49190614718565b60405180910390a35b5050505050565b612bdf838383613763565b505050565b612bee82826111c1565b612c315780826040517fe2517d3f000000000000000000000000000000000000000000000000000000008152600401612c28929190615363565b60405180910390fd5b5050565b60007f8b73c3c69bb8fe3d512ecc4cf759cc79239f7b179b0ffacaa9a75d522b39400f612c60613814565b612c68613890565b4630604051602001612c7e95949392919061538c565b60405160208183030381529060405280519060200120905090565b6000808203612cab5760009050612d8d565b60006001612cb88461390c565b901c6001901b90506001818481612cd257612cd16153df565b5b048201901c90506001818481612ceb57612cea6153df565b5b048201901c90506001818481612d0457612d036153df565b5b048201901c90506001818481612d1d57612d1c6153df565b5b048201901c90506001818481612d3657612d356153df565b5b048201901c90506001818481612d4f57612d4e6153df565b5b048201901c90506001818481612d6857612d676153df565b5b048201901c9050612d8981828581612d8357612d826153df565b5b046139ed565b9150505b919050565b60008260005281602060002001905092915050565b60005b81831015612e15576000612dbe8484613a06565b90508465ffffffffffff16612dd38783612d92565b60000160009054906101000a900465ffffffffffff1665ffffffffffff161115612dff57809250612e0f565b600181612e0c91906152c4565b93505b50612daa565b819050949350505050565b612e28610f30565b612e5e576040517f8dfc202b00000000000000000000000000000000000000000000000000000000815260040160405180910390fd5b565b6000612e8e7f360894a13ba1a3210667c828492db98dca3e2076cc3735a920a3ca505d382bbc60001b613a2c565b60000160009054906101000a900473ffffffffffffffffffffffffffffffffffffffff16905090565b612ec082613a36565b8173ffffffffffffffffffffffffffffffffffffffff167fbc7cd75a20ee27fd9adebab32041f755214dbc6bffa90cc0225b39da2e5c2d3b60405160405180910390a2600081511115612f1d57612f178282613b03565b50612f26565b612f25613b87565b5b5050565b6000612f3582610f67565b9050919050565b6000612f46611e7e565b90508273ffffffffffffffffffffffffffffffffffffffff168473ffffffffffffffffffffffffffffffffffffffff1614158015612f845750600082115b156131c057600073ffffffffffffffffffffffffffffffffffffffff168473ffffffffffffffffffffffffffffffffffffffff16146130a4576000806130158360010160008873ffffffffffffffffffffffffffffffffffffffff1673ffffffffffffffffffffffffffffffffffffffff168152602001908152602001600020613bc461301087613bda565b613c48565b79ffffffffffffffffffffffffffffffffffffffffffffffffffff16915079ffffffffffffffffffffffffffffffffffffffffffffffffffff1691508573ffffffffffffffffffffffffffffffffffffffff167fdec2bacdd2f05b59de34da9b523dff8be42e5e38e818c82fdb0bae774387a724838360405161309992919061540e565b60405180910390a250505b600073ffffffffffffffffffffffffffffffffffffffff168373ffffffffffffffffffffffffffffffffffffffff16146131bf576000806131308360010160008773ffffffffffffffffffffffffffffffffffffffff1673ffffffffffffffffffffffffffffffffffffffff168152602001908152602001600020613c8861312b87613bda565b613c48565b79ffffffffffffffffffffffffffffffffffffffffffffffffffff16915079ffffffffffffffffffffffffffffffffffffffffffffffffffff1691508473ffffffffffffffffffffffffffffffffffffffff167fdec2bacdd2f05b59de34da9b523dff8be42e5e38e818c82fdb0bae774387a72483836040516131b492919061540e565b60405180910390a250505b5b50505050565b600081600001805490509050919050565b600063ffffffff8016821115613227576020826040517f6dfcc65000000000000000000000000000000000000000000000000000000000815260040161321e929190615472565b60405180910390fd5b819050919050565b60008061323a613560565b90508060000160008473ffffffffffffffffffffffffffffffffffffffff1673ffffffffffffffffffffffffffffffffffffffff16815260200190815260200160002054915050919050565b61328e610f30565b156132c5576040517fd93c066500000000000000000000000000000000000000000000000000000000815260040160405180910390fd5b565b60006040517f190100000000000000000000000000000000000000000000000000000000000081528360028201528260228201526042812091505092915050565b60008060007f7fffffffffffffffffffffffffffffff5d576e7357a4501ddfe92f46681b20a08460001c11156133485760006003859250925092506133f2565b60006001888888886040516000815260200160405260405161336d949392919061549b565b6020604051602081039080840390855afa15801561338f573d6000803e3d6000fd5b505050602060405103519050600073ffffffffffffffffffffffffffffffffffffffff168173ffffffffffffffffffffffffffffffffffffffff16036133e357600060016000801b935093509350506133f2565b8060008060001b935093509350505b9450945094915050565b600060038111156134105761340f6154e0565b5b826003811115613423576134226154e0565b5b031561355c576001600381111561343d5761343c6154e0565b5b8260038111156134505761344f6154e0565b5b03613487576040517ff645eedf00000000000000000000000000000000000000000000000000000000815260040160405180910390fd5b6002600381111561349b5761349a6154e0565b5b8260038111156134ae576134ad6154e0565b5b036134f3578060001c6040517ffce698f70000000000000000000000000000000000000000000000000000000081526004016134ea9190614718565b60405180910390fd5b600380811115613506576135056154e0565b5b826003811115613519576135186154e0565b5b0361355b57806040517fd78bce0c00000000000000000000000000000000000000000000000000000000815260040161355291906147f8565b60405180910390fd5b5b5050565b60007f5ab42ced628888259c08ac98db1eb0cf702fc1501344311d8b100cd1bfe4bb00905090565b613590614476565b826000018263ffffffff16815481106135ac576135ab61550f565b5b906000526020600020016040518060400160405290816000820160009054906101000a900465ffffffffffff1665ffffffffffff1665ffffffffffff1681526020016000820160069054906101000a900479ffffffffffffffffffffffffffffffffffffffffffffffffffff1679ffffffffffffffffffffffffffffffffffffffffffffffffffff1679ffffffffffffffffffffffffffffffffffffffffffffffffffff1681525050905092915050565b613665613c9e565b61369b576040517fd7e6bcf800000000000000000000000000000000000000000000000000000000815260040160405180910390fd5b565b6136a561365d565b60006136af611a66565b9050828160030190816136c291906156e0565b50818160040190816136d491906156e0565b50505050565b6136e261365d565b60006136ec6124db565b905060008160000160006101000a81548160ff02191690831515021790555050565b61371661365d565b60006137206125ed565b90508281600201908161373391906156e0565b508181600301908161374591906156e0565b506000801b81600001819055506000801b8160010181905550505050565b61376e838383613cbe565b600073ffffffffffffffffffffffffffffffffffffffff168373ffffffffffffffffffffffffffffffffffffffff16036138045760006137ac610b39565b905060006137b8613cd6565b9050808211156138015781816040517f1cb15d260000000000000000000000000000000000000000000000000000000081526004016137f892919061540e565b60405180910390fd5b50505b61380f838383613cfa565b505050565b60008061381f6125ed565b9050600061382b612615565b90506000815111156138485780805190602001209250505061388d565b6000826000015490506000801b81146138665780935050505061388d565b7fc5d2460186f7233c927e7db2dcc703c0e500b653ca82273b7bfad8045d85a47093505050505b90565b60008061389b6125ed565b905060006138a76126b6565b90506000815111156138c457808051906020012092505050613909565b6000826001015490506000801b81146138e257809350505050613909565b7fc5d2460186f7233c927e7db2dcc703c0e500b653ca82273b7bfad8045d85a47093505050505b90565b600080600090506000608084901c111561392e57608083901c92506080810190505b6000604084901c111561394957604083901c92506040810190505b6000602084901c111561396457602083901c92506020810190505b6000601084901c111561397f57601083901c92506010810190505b6000600884901c111561399a57600883901c92506008810190505b6000600484901c11156139b557600483901c92506004810190505b6000600284901c11156139d057600283901c92506002810190505b6000600184901c11156139e4576001810190505b80915050919050565b60008183106139fc57816139fe565b825b905092915050565b60006002828418613a1791906157b2565b828416613a2491906152c4565b905092915050565b6000819050919050565b60008173ffffffffffffffffffffffffffffffffffffffff163b03613a9257806040517f4c9c8ce3000000000000000000000000000000000000000000000000000000008152600401613a899190614a57565b60405180910390fd5b80613abf7f360894a13ba1a3210667c828492db98dca3e2076cc3735a920a3ca505d382bbc60001b613a2c565b60000160006101000a81548173ffffffffffffffffffffffffffffffffffffffff021916908373ffffffffffffffffffffffffffffffffffffffff16021790555050565b60606000808473ffffffffffffffffffffffffffffffffffffffff1684604051613b2d919061582a565b600060405180830381855af49150503d8060008114613b68576040519150601f19603f3d011682016040523d82523d6000602084013e613b6d565b606091505b5091509150613b7d858383613dc5565b9250505092915050565b6000341115613bc2576040517fb398979f00000000000000000000000000000000000000000000000000000000815260040160405180910390fd5b565b60008183613bd29190615841565b905092915050565b600079ffffffffffffffffffffffffffffffffffffffffffffffffffff8016821115613c405760d0826040517f6dfcc650000000000000000000000000000000000000000000000000000000008152600401613c379291906158ca565b60405180910390fd5b819050919050565b600080613c7c613c5661123a565b613c6c613c6288612757565b868863ffffffff16565b87613e549092919063ffffffff16565b91509150935093915050565b60008183613c9691906158f3565b905092915050565b6000613ca8612936565b60000160089054906101000a900460ff16905090565b613cc6613286565b613cd1838383613e71565b505050565b600079ffffffffffffffffffffffffffffffffffffffffffffffffffff8016905090565b6000613d04611e7e565b9050600073ffffffffffffffffffffffffffffffffffffffff168473ffffffffffffffffffffffffffffffffffffffff1603613d5557613d5281600201613c88613d4d85613bda565b613c48565b50505b600073ffffffffffffffffffffffffffffffffffffffff168373ffffffffffffffffffffffffffffffffffffffff1603613da457613da181600201613bc4613d9c85613bda565b613c48565b50505b613dbf613db085610e9f565b613db985610e9f565b84612f3c565b50505050565b606082613dda57613dd5826140b0565b613e4c565b60008251148015613e02575060008473ffffffffffffffffffffffffffffffffffffffff163b145b15613e4457836040517f9996b315000000000000000000000000000000000000000000000000000000008152600401613e3b9190614a57565b60405180910390fd5b819050613e4d565b5b9392505050565b600080613e658560000185856140f5565b91509150935093915050565b6000613e7b611a66565b9050600073ffffffffffffffffffffffffffffffffffffffff168473ffffffffffffffffffffffffffffffffffffffff1603613ed15781816002016000828254613ec591906152c4565b92505081905550613faa565b60008160000160008673ffffffffffffffffffffffffffffffffffffffff1673ffffffffffffffffffffffffffffffffffffffff16815260200190815260200160002054905082811015613f60578481846040517fe450d38c000000000000000000000000000000000000000000000000000000008152600401613f57939291906151c6565b60405180910390fd5b8281038260000160008773ffffffffffffffffffffffffffffffffffffffff1673ffffffffffffffffffffffffffffffffffffffff16815260200190815260200160002081905550505b600073ffffffffffffffffffffffffffffffffffffffff168373ffffffffffffffffffffffffffffffffffffffff1603613ff557818160020160008282540392505081905550614045565b818160000160008573ffffffffffffffffffffffffffffffffffffffff1673ffffffffffffffffffffffffffffffffffffffff168152602001908152602001600020600082825401925050819055505b8273ffffffffffffffffffffffffffffffffffffffff168473ffffffffffffffffffffffffffffffffffffffff167fddf252ad1be2c89b69c2b068fc378daa952ba7f163c4a11628f55a4df523b3ef846040516140a29190614718565b60405180910390a350505050565b6000815111156140c35780518082602001fd5b6040517f1425ea4200000000000000000000000000000000000000000000000000000000815260040160405180910390fd5b60008060008580549050905060008111156143865760006141228760018461411d9190615290565b612d92565b6040518060400160405290816000820160009054906101000a900465ffffffffffff1665ffffffffffff1665ffffffffffff1681526020016000820160069054906101000a900479ffffffffffffffffffffffffffffffffffffffffffffffffffff1679ffffffffffffffffffffffffffffffffffffffffffffffffffff1679ffffffffffffffffffffffffffffffffffffffffffffffffffff168152505090508565ffffffffffff16816000015165ffffffffffff161115614211576040517f2520601d00000000000000000000000000000000000000000000000000000000815260040160405180910390fd5b8565ffffffffffff16816000015165ffffffffffff160361429557846142438860018561423e9190615290565b612d92565b60000160066101000a81548179ffffffffffffffffffffffffffffffffffffffffffffffffffff021916908379ffffffffffffffffffffffffffffffffffffffffffffffffffff160217905550614375565b8660405180604001604052808865ffffffffffff1681526020018779ffffffffffffffffffffffffffffffffffffffffffffffffffff168152509080600181540180825580915050600190039060005260206000200160009091909190915060008201518160000160006101000a81548165ffffffffffff021916908365ffffffffffff16021790555060208201518160000160066101000a81548179ffffffffffffffffffffffffffffffffffffffffffffffffffff021916908379ffffffffffffffffffffffffffffffffffffffffffffffffffff16021790555050505b80602001518593509350505061446e565b8560405180604001604052808765ffffffffffff1681526020018679ffffffffffffffffffffffffffffffffffffffffffffffffffff168152509080600181540180825580915050600190039060005260206000200160009091909190915060008201518160000160006101000a81548165ffffffffffff021916908365ffffffffffff16021790555060208201518160000160066101000a81548179ffffffffffffffffffffffffffffffffffffffffffffffffffff021916908379ffffffffffffffffffffffffffffffffffffffffffffffffffff160217905550505060008492509250505b935093915050565b6040518060400160405280600065ffffffffffff168152602001600079ffffffffffffffffffffffffffffffffffffffffffffffffffff1681525090565b6000604051905090565b600080fd5b600080fd5b60007fffffffff0000000000000000000000000000000000000000000000000000000082169050919050565b6144fd816144c8565b811461450857600080fd5b50565b60008135905061451a816144f4565b92915050565b600060208284031215614536576145356144be565b5b60006145448482850161450b565b91505092915050565b60008115159050919050565b6145628161454d565b82525050565b600060208201905061457d6000830184614559565b92915050565b600081519050919050565b600082825260208201905092915050565b60005b838110156145bd5780820151818401526020810190506145a2565b60008484015250505050565b6000601f19601f8301169050919050565b60006145e582614583565b6145ef818561458e565b93506145ff81856020860161459f565b614608816145c9565b840191505092915050565b6000602082019050818103600083015261462d81846145da565b905092915050565b600073ffffffffffffffffffffffffffffffffffffffff82169050919050565b600061466082614635565b9050919050565b61467081614655565b811461467b57600080fd5b50565b60008135905061468d81614667565b92915050565b6000819050919050565b6146a681614693565b81146146b157600080fd5b50565b6000813590506146c38161469d565b92915050565b600080604083850312156146e0576146df6144be565b5b60006146ee8582860161467e565b92505060206146ff858286016146b4565b9150509250929050565b61471281614693565b82525050565b600060208201905061472d6000830184614709565b92915050565b60008060006060848603121561474c5761474b6144be565b5b600061475a8682870161467e565b935050602061476b8682870161467e565b925050604061477c868287016146b4565b9150509250925092565b6000819050919050565b61479981614786565b81146147a457600080fd5b50565b6000813590506147b681614790565b92915050565b6000602082840312156147d2576147d16144be565b5b60006147e0848285016147a7565b91505092915050565b6147f281614786565b82525050565b600060208201905061480d60008301846147e9565b92915050565b6000806040838503121561482a576148296144be565b5b6000614838858286016147a7565b92505060206148498582860161467e565b9150509250929050565b600060ff82169050919050565b61486981614853565b82525050565b60006020820190506148846000830184614860565b92915050565b600080fd5b600080fd5b7f4e487b7100000000000000000000000000000000000000000000000000000000600052604160045260246000fd5b6148cc826145c9565b810181811067ffffffffffffffff821117156148eb576148ea614894565b5b80604052505050565b60006148fe6144b4565b905061490a82826148c3565b919050565b600067ffffffffffffffff82111561492a57614929614894565b5b614933826145c9565b9050602081019050919050565b82818337600083830152505050565b600061496261495d8461490f565b6148f4565b90508281526020810184848401111561497e5761497d61488f565b5b614989848285614940565b509392505050565b600082601f8301126149a6576149a561488a565b5b81356149b684826020860161494f565b91505092915050565b600080604083850312156149d6576149d56144be565b5b60006149e48582860161467e565b925050602083013567ffffffffffffffff811115614a0557614a046144c3565b5b614a1185828601614991565b9150509250929050565b600060208284031215614a3157614a306144be565b5b6000614a3f8482850161467e565b91505092915050565b614a5181614655565b82525050565b6000602082019050614a6c6000830184614a48565b92915050565b600063ffffffff82169050919050565b614a8b81614a72565b82525050565b6000602082019050614aa66000830184614a82565b92915050565b60007fff0000000000000000000000000000000000000000000000000000000000000082169050919050565b614ae181614aac565b82525050565b600081519050919050565b600082825260208201905092915050565b6000819050602082019050919050565b614b1c81614693565b82525050565b6000614b2e8383614b13565b60208301905092915050565b6000602082019050919050565b6000614b5282614ae7565b614b5c8185614af2565b9350614b6783614b03565b8060005b83811015614b98578151614b7f8882614b22565b9750614b8a83614b3a565b925050600181019050614b6b565b5085935050505092915050565b600060e082019050614bba600083018a614ad8565b8181036020830152614bcc81896145da565b90508181036040830152614be081886145da565b9050614bef6060830187614709565b614bfc6080830186614a48565b614c0960a08301856147e9565b81810360c0830152614c1b8184614b47565b905098975050505050505050565b600060208284031215614c3f57614c3e6144be565b5b6000614c4d848285016146b4565b91505092915050565b600065ffffffffffff82169050919050565b614c7181614c56565b82525050565b6000602082019050614c8c6000830184614c68565b92915050565b614c9b81614853565b8114614ca657600080fd5b50565b600081359050614cb881614c92565b92915050565b60008060008060008060c08789031215614cdb57614cda6144be565b5b6000614ce989828a0161467e565b9650506020614cfa89828a016146b4565b9550506040614d0b89828a016146b4565b9450506060614d1c89828a01614ca9565b9350506080614d2d89828a016147a7565b92505060a0614d3e89828a016147a7565b9150509295509295509295565b600080600080600080600060e0888a031215614d6a57614d696144be565b5b6000614d788a828b0161467e565b9750506020614d898a828b0161467e565b9650506040614d9a8a828b016146b4565b9550506060614dab8a828b016146b4565b9450506080614dbc8a828b01614ca9565b93505060a0614dcd8a828b016147a7565b92505060c0614dde8a828b016147a7565b91505092959891949750929550565b60008060408385031215614e0457614e036144be565b5b6000614e128582860161467e565b9250506020614e238582860161467e565b9150509250929050565b614e3681614a72565b8114614e4157600080fd5b50565b600081359050614e5381614e2d565b92915050565b60008060408385031215614e7057614e6f6144be565b5b6000614e7e8582860161467e565b9250506020614e8f85828601614e44565b9150509250929050565b614ea281614c56565b82525050565b600079ffffffffffffffffffffffffffffffffffffffffffffffffffff82169050919050565b614ed781614ea8565b82525050565b604082016000820151614ef36000850182614e99565b506020820151614f066020850182614ece565b50505050565b6000604082019050614f216000830184614edd565b92915050565b60008060008060808587031215614f4157614f406144be565b5b6000614f4f8782880161467e565b9450506020614f608782880161467e565b9350506040614f718782880161467e565b9250506060614f828782880161467e565b91505092959194509250565b7f4e487b7100000000000000000000000000000000000000000000000000000000600052602260045260246000fd5b60006002820490506001821680614fd557607f821691505b602082108103614fe857614fe7614f8e565b5b50919050565b60006040820190506150036000830185614709565b6150106020830184614c68565b9392505050565b7f4549503731323a20556e696e697469616c697a65640000000000000000000000600082015250565b600061504d60158361458e565b915061505882615017565b602082019050919050565b6000602082019050818103600083015261507c81615040565b9050919050565b600060808201905061509860008301876147e9565b6150a56020830186614a48565b6150b26040830185614709565b6150bf6060830184614709565b95945050505050565b600060c0820190506150dd60008301896147e9565b6150ea6020830188614a48565b6150f76040830187614a48565b6151046060830186614709565b6151116080830185614709565b61511e60a0830184614709565b979650505050505050565b600060408201905061513e6000830185614a48565b61514b6020830184614a48565b9392505050565b6000819050919050565b600067ffffffffffffffff82169050919050565b6000819050919050565b600061519561519061518b84615152565b615170565b61515c565b9050919050565b6151a58161517a565b82525050565b60006020820190506151c0600083018461519c565b92915050565b60006060820190506151db6000830186614a48565b6151e86020830185614709565b6151f56040830184614709565b949350505050565b6000819050919050565b600061522261521d615218846151fd565b615170565b614853565b9050919050565b61523281615207565b82525050565b600060408201905061524d6000830185615229565b61525a6020830184614709565b9392505050565b7f4e487b7100000000000000000000000000000000000000000000000000000000600052601160045260246000fd5b600061529b82614693565b91506152a683614693565b92508282039050818111156152be576152bd615261565b5b92915050565b60006152cf82614693565b91506152da83614693565b92508282019050808211156152f2576152f1615261565b5b92915050565b60008151905061530781614790565b92915050565b600060208284031215615323576153226144be565b5b6000615331848285016152f8565b91505092915050565b600060408201905061534f6000830185614a48565b61535c6020830184614709565b9392505050565b60006040820190506153786000830185614a48565b61538560208301846147e9565b9392505050565b600060a0820190506153a160008301886147e9565b6153ae60208301876147e9565b6153bb60408301866147e9565b6153c86060830185614709565b6153d56080830184614a48565b9695505050505050565b7f4e487b7100000000000000000000000000000000000000000000000000000000600052601260045260246000fd5b60006040820190506154236000830185614709565b6154306020830184614709565b9392505050565b6000819050919050565b600061545c61545761545284615437565b615170565b614853565b9050919050565b61546c81615441565b82525050565b60006040820190506154876000830185615463565b6154946020830184614709565b9392505050565b60006080820190506154b060008301876147e9565b6154bd6020830186614860565b6154ca60408301856147e9565b6154d760608301846147e9565b95945050505050565b7f4e487b7100000000000000000000000000000000000000000000000000000000600052602160045260246000fd5b7f4e487b7100000000000000000000000000000000000000000000000000000000600052603260045260246000fd5b60008190508160005260206000209050919050565b60006020601f8301049050919050565b600082821b905092915050565b6000600883026155a07fffffffffffffffffffffffffffffffffffffffffffffffffffffffffffffffff82615563565b6155aa8683615563565b95508019841693508086168417925050509392505050565b60006155dd6155d86155d384614693565b615170565b614693565b9050919050565b6000819050919050565b6155f7836155c2565b61560b615603826155e4565b848454615570565b825550505050565b600090565b615620615613565b61562b8184846155ee565b505050565b5b8181101561564f57615644600082615618565b600181019050615631565b5050565b601f821115615694576156658161553e565b61566e84615553565b8101602085101561567d578190505b61569161568985615553565b830182615630565b50505b505050565b600082821c905092915050565b60006156b760001984600802615699565b1980831691505092915050565b60006156d083836156a6565b9150826002028217905092915050565b6156e982614583565b67ffffffffffffffff81111561570257615701614894565b5b61570c8254614fbd565b615717828285615653565b600060209050601f83116001811461574a5760008415615738578287015190505b61574285826156c4565b8655506157aa565b601f1984166157588661553e565b60005b828110156157805784890151825560018201915060208501945060208101905061575b565b8683101561579d5784890151615799601f8916826156a6565b8355505b6001600288020188555050505b505050505050565b60006157bd82614693565b91506157c883614693565b9250826157d8576157d76153df565b5b828204905092915050565b600081519050919050565b600081905092915050565b6000615804826157e3565b61580e81856157ee565b935061581e81856020860161459f565b80840191505092915050565b600061583682846157f9565b915081905092915050565b600061584c82614ea8565b915061585783614ea8565b9250828203905079ffffffffffffffffffffffffffffffffffffffffffffffffffff81111561588957615888615261565b5b92915050565b6000819050919050565b60006158b46158af6158aa8461588f565b615170565b614853565b9050919050565b6158c481615899565b82525050565b60006040820190506158df60008301856158bb565b6158ec6020830184614709565b9392505050565b60006158fe82614ea8565b915061590983614ea8565b9250828201905079ffffffffffffffffffffffffffffffffffffffffffffffffffff81111561593b5761593a615261565b5b9291505056fea2646970667358221220bbbc5666680e4f2e25981fc26e69d01962737ef79963b36750ee26120ba5ed7064736f6c63430008180033",
  "linkReferences": {},
  "deployedLinkReferences": {}
}