{
  "_format": "hh-sol-artifact-1",
  "contractName": "MyGovernor",
  "sourceName": "contracts/Governor.sol",
  "abi": [
    {
      "inputs": [],
      "stateMutability": "nonpayable",
      "type": "constructor"
    },
    {
      "inputs": [
        {
          "internalType": "address",
          "name": "target",
          "type": "address"
        }
      ],
      "name": "AddressEmptyCode",
      "type": "error"
    },
    {
      "inputs": [],
      "name": "CheckpointUnorderedInsertion",
      "type": "error"
    },
    {
      "inputs": [
        {
          "internalType": "address",
          "name": "implementation",
          "type": "address"
        }
      ],
      "name": "ERC1967InvalidImplementation",
      "type": "error"
    },
    {
      "inputs": [],
      "name": "ERC1967NonPayable",
      "type": "error"
    },
    {
      "inputs": [],
      "name": "FailedInnerCall",
      "type": "error"
    },
    {
      "inputs": [
        {
          "internalType": "address",
          "name": "voter",
          "type": "address"
        }
      ],
      "name": "GovernorAlreadyCastVote",
      "type": "error"
    },
    {
      "inputs": [
        {
          "internalType": "uint256",
          "name": "proposalId",
          "type": "uint256"
        }
      ],
      "name": "GovernorAlreadyQueuedProposal",
      "type": "error"
    },
    {
      "inputs": [],
      "name": "GovernorDisabledDeposit",
      "type": "error"
    },
    {
      "inputs": [
        {
          "internalType": "address",
          "name": "proposer",
          "type": "address"
        },
        {
          "internalType": "uint256",
          "name": "votes",
          "type": "uint256"
        },
        {
          "internalType": "uint256",
          "name": "threshold",
          "type": "uint256"
        }
      ],
      "name": "GovernorInsufficientProposerVotes",
      "type": "error"
    },
    {
      "inputs": [
        {
          "internalType": "uint256",
          "name": "targets",
          "type": "uint256"
        },
        {
          "internalType": "uint256",
          "name": "calldatas",
          "type": "uint256"
        },
        {
          "internalType": "uint256",
          "name": "values",
          "type": "uint256"
        }
      ],
      "name": "GovernorInvalidProposalLength",
      "type": "error"
    },
    {
      "inputs": [
        {
          "internalType": "uint256",
          "name": "quorumNumerator",
          "type": "uint256"
        },
        {
          "internalType": "uint256",
          "name": "quorumDenominator",
          "type": "uint256"
        }
      ],
      "name": "GovernorInvalidQuorumFraction",
      "type": "error"
    },
    {
      "inputs": [
        {
          "internalType": "address",
          "name": "voter",
          "type": "address"
        }
      ],
      "name": "GovernorInvalidSignature",
      "type": "error"
    },
    {
      "inputs": [],
      "name": "GovernorInvalidVoteType",
      "type": "error"
    },
    {
      "inputs": [
        {
          "internalType": "uint256",
          "name": "votingPeriod",
          "type": "uint256"
        }
      ],
      "name": "GovernorInvalidVotingPeriod",
      "type": "error"
    },
    {
      "inputs": [
        {
          "internalType": "uint256",
          "name": "proposalId",
          "type": "uint256"
        }
      ],
      "name": "GovernorNonexistentProposal",
      "type": "error"
    },
    {
      "inputs": [
        {
          "internalType": "uint256",
          "name": "proposalId",
          "type": "uint256"
        }
      ],
      "name": "GovernorNotQueuedProposal",
      "type": "error"
    },
    {
      "inputs": [
        {
          "internalType": "address",
          "name": "account",
          "type": "address"
        }
      ],
      "name": "GovernorOnlyExecutor",
      "type": "error"
    },
    {
      "inputs": [
        {
          "internalType": "address",
          "name": "account",
          "type": "address"
        }
      ],
      "name": "GovernorOnlyProposer",
      "type": "error"
    },
    {
      "inputs": [],
      "name": "GovernorQueueNotImplemented",
      "type": "error"
    },
    {
      "inputs": [
        {
          "internalType": "address",
          "name": "proposer",
          "type": "address"
        }
      ],
      "name": "GovernorRestrictedProposer",
      "type": "error"
    },
    {
      "inputs": [
        {
          "internalType": "uint256",
          "name": "proposalId",
          "type": "uint256"
        },
        {
          "internalType": "enum IGovernor.ProposalState",
          "name": "current",
          "type": "uint8"
        },
        {
          "internalType": "bytes32",
          "name": "expectedStates",
          "type": "bytes32"
        }
      ],
      "name": "GovernorUnexpectedProposalState",
      "type": "error"
    },
    {
      "inputs": [
        {
          "internalType": "address",
          "name": "account",
          "type": "address"
        },
        {
          "internalType": "uint256",
          "name": "currentNonce",
          "type": "uint256"
        }
      ],
      "name": "InvalidAccountNonce",
      "type": "error"
    },
    {
      "inputs": [],
      "name": "InvalidInitialization",
      "type": "error"
    },
    {
      "inputs": [],
      "name": "NotInitializing",
      "type": "error"
    },
    {
      "inputs": [
        {
          "internalType": "address",
          "name": "owner",
          "type": "address"
        }
      ],
      "name": "OwnableInvalidOwner",
      "type": "error"
    },
    {
      "inputs": [
        {
          "internalType": "address",
          "name": "account",
          "type": "address"
        }
      ],
      "name": "OwnableUnauthorizedAccount",
      "type": "error"
    },
    {
      "inputs": [],
      "name": "QueueEmpty",
      "type": "error"
    },
    {
      "inputs": [],
      "name": "QueueFull",
      "type": "error"
    },
    {
      "inputs": [
        {
          "internalType": "uint8",
          "name": "bits",
          "type": "uint8"
        },
        {
          "internalType": "uint256",
          "name": "value",
          "type": "uint256"
        }
      ],
      "name": "SafeCastOverflowedUintDowncast",
      "type": "error"
    },
    {
      "inputs": [],
      "name": "UUPSUnauthorizedCallContext",
      "type": "error"
    },
    {
      "inputs": [
        {
          "internalType": "bytes32",
          "name": "slot",
          "type": "bytes32"
        }
      ],
      "name": "UUPSUnsupportedProxiableUUID",
      "type": "error"
    },
    {
      "anonymous": false,
      "inputs": [],
      "name": "EIP712DomainChanged",
      "type": "event"
    },
    {
      "anonymous": false,
      "inputs": [
        {
          "indexed": false,
          "internalType": "uint64",
          "name": "version",
          "type": "uint64"
        }
      ],
      "name": "Initialized",
      "type": "event"
    },
    {
      "anonymous": false,
      "inputs": [
        {
          "indexed": true,
          "internalType": "address",
          "name": "previousOwner",
          "type": "address"
        },
        {
          "indexed": true,
          "internalType": "address",
          "name": "newOwner",
          "type": "address"
        }
      ],
      "name": "OwnershipTransferred",
      "type": "event"
    },
    {
      "anonymous": false,
      "inputs": [
        {
          "indexed": false,
          "internalType": "uint256",
          "name": "proposalId",
          "type": "uint256"
        }
      ],
      "name": "ProposalCanceled",
      "type": "event"
    },
    {
      "anonymous": false,
      "inputs": [
        {
          "indexed": false,
          "internalType": "uint256",
          "name": "proposalId",
          "type": "uint256"
        },
        {
          "indexed": false,
          "internalType": "address",
          "name": "proposer",
          "type": "address"
        },
        {
          "indexed": false,
          "internalType": "address[]",
          "name": "targets",
          "type": "address[]"
        },
        {
          "indexed": false,
          "internalType": "uint256[]",
          "name": "values",
          "type": "uint256[]"
        },
        {
          "indexed": false,
          "internalType": "string[]",
          "name": "signatures",
          "type": "string[]"
        },
        {
          "indexed": false,
          "internalType": "bytes[]",
          "name": "calldatas",
          "type": "bytes[]"
        },
        {
          "indexed": false,
          "internalType": "uint256",
          "name": "voteStart",
          "type": "uint256"
        },
        {
          "indexed": false,
          "internalType": "uint256",
          "name": "voteEnd",
          "type": "uint256"
        },
        {
          "indexed": false,
          "internalType": "string",
          "name": "description",
          "type": "string"
        }
      ],
      "name": "ProposalCreated",
      "type": "event"
    },
    {
      "anonymous": false,
      "inputs": [
        {
          "indexed": true,
          "internalType": "uint256",
          "name": "proposalID",
          "type": "uint256"
        },
        {
          "indexed": false,
          "internalType": "string",
          "name": "currentModelUrl",
          "type": "string"
        }
      ],
      "name": "ProposalCreated",
      "type": "event"
    },
    {
      "anonymous": false,
      "inputs": [
        {
          "indexed": false,
          "internalType": "uint256",
          "name": "proposalId",
          "type": "uint256"
        }
      ],
      "name": "ProposalExecuted",
      "type": "event"
    },
    {
      "anonymous": false,
      "inputs": [
        {
          "indexed": false,
          "internalType": "uint256",
          "name": "proposalId",
          "type": "uint256"
        },
        {
          "indexed": false,
          "internalType": "uint256",
          "name": "etaSeconds",
          "type": "uint256"
        }
      ],
      "name": "ProposalQueued",
      "type": "event"
    },
    {
      "anonymous": false,
      "inputs": [
        {
          "indexed": false,
          "internalType": "uint256",
          "name": "oldProposalThreshold",
          "type": "uint256"
        },
        {
          "indexed": false,
          "internalType": "uint256",
          "name": "newProposalThreshold",
          "type": "uint256"
        }
      ],
      "name": "ProposalThresholdSet",
      "type": "event"
    },
    {
      "anonymous": false,
      "inputs": [
        {
          "indexed": false,
          "internalType": "uint256",
          "name": "oldQuorumNumerator",
          "type": "uint256"
        },
        {
          "indexed": false,
          "internalType": "uint256",
          "name": "newQuorumNumerator",
          "type": "uint256"
        }
      ],
      "name": "QuorumNumeratorUpdated",
      "type": "event"
    },
    {
      "anonymous": false,
      "inputs": [
        {
          "indexed": false,
          "internalType": "address",
          "name": "oldTimelock",
          "type": "address"
        },
        {
          "indexed": false,
          "internalType": "address",
          "name": "newTimelock",
          "type": "address"
        }
      ],
      "name": "TimelockChange",
      "type": "event"
    },
    {
      "anonymous": false,
      "inputs": [
        {
          "indexed": true,
          "internalType": "address",
          "name": "implementation",
          "type": "address"
        }
      ],
      "name": "Upgraded",
      "type": "event"
    },
    {
      "anonymous": false,
      "inputs": [
        {
          "indexed": true,
          "internalType": "address",
          "name": "voter",
          "type": "address"
        },
        {
          "indexed": false,
          "internalType": "uint256",
          "name": "proposalId",
          "type": "uint256"
        },
        {
          "indexed": false,
          "internalType": "uint8",
          "name": "support",
          "type": "uint8"
        },
        {
          "indexed": false,
          "internalType": "uint256",
          "name": "weight",
          "type": "uint256"
        },
        {
          "indexed": false,
          "internalType": "string",
          "name": "reason",
          "type": "string"
        }
      ],
      "name": "VoteCast",
      "type": "event"
    },
    {
      "anonymous": false,
      "inputs": [
        {
          "indexed": true,
          "internalType": "address",
          "name": "voter",
          "type": "address"
        },
        {
          "indexed": false,
          "internalType": "uint256",
          "name": "proposalId",
          "type": "uint256"
        },
        {
          "indexed": false,
          "internalType": "uint8",
          "name": "support",
          "type": "uint8"
        },
        {
          "indexed": false,
          "internalType": "uint256",
          "name": "weight",
          "type": "uint256"
        },
        {
          "indexed": false,
          "internalType": "string",
          "name": "reason",
          "type": "string"
        },
        {
          "indexed": false,
          "internalType": "bytes",
          "name": "params",
          "type": "bytes"
        }
      ],
      "name": "VoteCastWithParams",
      "type": "event"
    },
    {
      "anonymous": false,
      "inputs": [
        {
          "indexed": false,
          "internalType": "uint256",
          "name": "oldVotingDelay",
          "type": "uint256"
        },
        {
          "indexed": false,
          "internalType": "uint256",
          "name": "newVotingDelay",
          "type": "uint256"
        }
      ],
      "name": "VotingDelaySet",
      "type": "event"
    },
    {
      "anonymous": false,
      "inputs": [
        {
          "indexed": false,
          "internalType": "uint256",
          "name": "oldVotingPeriod",
          "type": "uint256"
        },
        {
          "indexed": false,
          "internalType": "uint256",
          "name": "newVotingPeriod",
          "type": "uint256"
        }
      ],
      "name": "VotingPeriodSet",
      "type": "event"
    },
    {
      "inputs": [],
      "name": "BALLOT_TYPEHASH",
      "outputs": [
        {
          "internalType": "bytes32",
          "name": "",
          "type": "bytes32"
        }
      ],
      "stateMutability": "view",
      "type": "function"
    },
    {
      "inputs": [],
      "name": "CLOCK_MODE",
      "outputs": [
        {
          "internalType": "string",
          "name": "",
          "type": "string"
        }
      ],
      "stateMutability": "view",
      "type": "function"
    },
    {
      "inputs": [],
      "name": "COUNTING_MODE",
      "outputs": [
        {
          "internalType": "string",
          "name": "",
          "type": "string"
        }
      ],
      "stateMutability": "pure",
      "type": "function"
    },
    {
      "inputs": [],
      "name": "EXTENDED_BALLOT_TYPEHASH",
      "outputs": [
        {
          "internalType": "bytes32",
          "name": "",
          "type": "bytes32"
        }
      ],
      "stateMutability": "view",
      "type": "function"
    },
    {
      "inputs": [],
      "name": "UPGRADE_INTERFACE_VERSION",
      "outputs": [
        {
          "internalType": "string",
          "name": "",
          "type": "string"
        }
      ],
      "stateMutability": "view",
      "type": "function"
    },
    {
      "inputs": [
        {
          "internalType": "address[]",
          "name": "targets",
          "type": "address[]"
        },
        {
          "internalType": "uint256[]",
          "name": "values",
          "type": "uint256[]"
        },
        {
          "internalType": "bytes[]",
          "name": "calldatas",
          "type": "bytes[]"
        },
        {
          "internalType": "bytes32",
          "name": "descriptionHash",
          "type": "bytes32"
        }
      ],
      "name": "cancel",
      "outputs": [
        {
          "internalType": "uint256",
          "name": "",
          "type": "uint256"
        }
      ],
      "stateMutability": "nonpayable",
      "type": "function"
    },
    {
      "inputs": [
        {
          "internalType": "uint256",
          "name": "proposalId",
          "type": "uint256"
        },
        {
          "internalType": "uint8",
          "name": "support",
          "type": "uint8"
        }
      ],
      "name": "castVote",
      "outputs": [
        {
          "internalType": "uint256",
          "name": "",
          "type": "uint256"
        }
      ],
      "stateMutability": "nonpayable",
      "type": "function"
    },
    {
      "inputs": [
        {
          "internalType": "uint256",
          "name": "proposalId",
          "type": "uint256"
        },
        {
          "internalType": "uint8",
          "name": "support",
          "type": "uint8"
        },
        {
          "internalType": "address",
          "name": "voter",
          "type": "address"
        },
        {
          "internalType": "bytes",
          "name": "signature",
          "type": "bytes"
        }
      ],
      "name": "castVoteBySig",
      "outputs": [
        {
          "internalType": "uint256",
          "name": "",
          "type": "uint256"
        }
      ],
      "stateMutability": "nonpayable",
      "type": "function"
    },
    {
      "inputs": [
        {
          "internalType": "uint256",
          "name": "proposalId",
          "type": "uint256"
        },
        {
          "internalType": "uint8",
          "name": "support",
          "type": "uint8"
        },
        {
          "internalType": "string",
          "name": "reason",
          "type": "string"
        }
      ],
      "name": "castVoteWithReason",
      "outputs": [
        {
          "internalType": "uint256",
          "name": "",
          "type": "uint256"
        }
      ],
      "stateMutability": "nonpayable",
      "type": "function"
    },
    {
      "inputs": [
        {
          "internalType": "uint256",
          "name": "proposalId",
          "type": "uint256"
        },
        {
          "internalType": "uint8",
          "name": "support",
          "type": "uint8"
        },
        {
          "internalType": "string",
          "name": "reason",
          "type": "string"
        },
        {
          "internalType": "bytes",
          "name": "params",
          "type": "bytes"
        }
      ],
      "name": "castVoteWithReasonAndParams",
      "outputs": [
        {
          "internalType": "uint256",
          "name": "",
          "type": "uint256"
        }
      ],
      "stateMutability": "nonpayable",
      "type": "function"
    },
    {
      "inputs": [
        {
          "internalType": "uint256",
          "name": "proposalId",
          "type": "uint256"
        },
        {
          "internalType": "uint8",
          "name": "support",
          "type": "uint8"
        },
        {
          "internalType": "address",
          "name": "voter",
          "type": "address"
        },
        {
          "internalType": "string",
          "name": "reason",
          "type": "string"
        },
        {
          "internalType": "bytes",
          "name": "params",
          "type": "bytes"
        },
        {
          "internalType": "bytes",
          "name": "signature",
          "type": "bytes"
        }
      ],
      "name": "castVoteWithReasonAndParamsBySig",
      "outputs": [
        {
          "internalType": "uint256",
          "name": "",
          "type": "uint256"
        }
      ],
      "stateMutability": "nonpayable",
      "type": "function"
    },
    {
      "inputs": [],
      "name": "clock",
      "outputs": [
        {
          "internalType": "uint48",
          "name": "",
          "type": "uint48"
        }
      ],
      "stateMutability": "view",
      "type": "function"
    },
    {
      "inputs": [],
      "name": "eip712Domain",
      "outputs": [
        {
          "internalType": "bytes1",
          "name": "fields",
          "type": "bytes1"
        },
        {
          "internalType": "string",
          "name": "name",
          "type": "string"
        },
        {
          "internalType": "string",
          "name": "version",
          "type": "string"
        },
        {
          "internalType": "uint256",
          "name": "chainId",
          "type": "uint256"
        },
        {
          "internalType": "address",
          "name": "verifyingContract",
          "type": "address"
        },
        {
          "internalType": "bytes32",
          "name": "salt",
          "type": "bytes32"
        },
        {
          "internalType": "uint256[]",
          "name": "extensions",
          "type": "uint256[]"
        }
      ],
      "stateMutability": "view",
      "type": "function"
    },
    {
      "inputs": [
        {
          "internalType": "address[]",
          "name": "targets",
          "type": "address[]"
        },
        {
          "internalType": "uint256[]",
          "name": "values",
          "type": "uint256[]"
        },
        {
          "internalType": "bytes[]",
          "name": "calldatas",
          "type": "bytes[]"
        },
        {
          "internalType": "bytes32",
          "name": "descriptionHash",
          "type": "bytes32"
        }
      ],
      "name": "execute",
      "outputs": [
        {
          "internalType": "uint256",
          "name": "",
          "type": "uint256"
        }
      ],
      "stateMutability": "payable",
      "type": "function"
    },
    {
      "inputs": [
        {
          "internalType": "address",
          "name": "account",
          "type": "address"
        },
        {
          "internalType": "uint256",
          "name": "timepoint",
          "type": "uint256"
        }
      ],
      "name": "getVotes",
      "outputs": [
        {
          "internalType": "uint256",
          "name": "",
          "type": "uint256"
        }
      ],
      "stateMutability": "view",
      "type": "function"
    },
    {
      "inputs": [
        {
          "internalType": "address",
          "name": "account",
          "type": "address"
        },
        {
          "internalType": "uint256",
          "name": "timepoint",
          "type": "uint256"
        },
        {
          "internalType": "bytes",
          "name": "params",
          "type": "bytes"
        }
      ],
      "name": "getVotesWithParams",
      "outputs": [
        {
          "internalType": "uint256",
          "name": "",
          "type": "uint256"
        }
      ],
      "stateMutability": "view",
      "type": "function"
    },
    {
      "inputs": [
        {
          "internalType": "uint256",
          "name": "proposalId",
          "type": "uint256"
        },
        {
          "internalType": "address",
          "name": "account",
          "type": "address"
        }
      ],
      "name": "hasVoted",
      "outputs": [
        {
          "internalType": "bool",
          "name": "",
          "type": "bool"
        }
      ],
      "stateMutability": "view",
      "type": "function"
    },
    {
      "inputs": [
        {
          "internalType": "address[]",
          "name": "targets",
          "type": "address[]"
        },
        {
          "internalType": "uint256[]",
          "name": "values",
          "type": "uint256[]"
        },
        {
          "internalType": "bytes[]",
          "name": "calldatas",
          "type": "bytes[]"
        },
        {
          "internalType": "bytes32",
          "name": "descriptionHash",
          "type": "bytes32"
        }
      ],
      "name": "hashProposal",
      "outputs": [
        {
          "internalType": "uint256",
          "name": "",
          "type": "uint256"
        }
      ],
      "stateMutability": "pure",
      "type": "function"
    },
    {
      "inputs": [
        {
          "internalType": "contract IVotes",
          "name": "_token",
          "type": "address"
        },
        {
          "internalType": "contract TimelockControllerUpgradeable",
          "name": "_timelock",
          "type": "address"
        },
        {
          "internalType": "address",
          "name": "initialOwner",
          "type": "address"
        }
      ],
      "name": "initialize",
      "outputs": [],
      "stateMutability": "nonpayable",
      "type": "function"
    },
    {
      "inputs": [],
      "name": "name",
      "outputs": [
        {
          "internalType": "string",
          "name": "",
          "type": "string"
        }
      ],
      "stateMutability": "view",
      "type": "function"
    },
    {
      "inputs": [
        {
          "internalType": "address",
          "name": "owner",
          "type": "address"
        }
      ],
      "name": "nonces",
      "outputs": [
        {
          "internalType": "uint256",
          "name": "",
          "type": "uint256"
        }
      ],
      "stateMutability": "view",
      "type": "function"
    },
    {
      "inputs": [
        {
          "internalType": "address",
          "name": "",
          "type": "address"
        },
        {
          "internalType": "address",
          "name": "",
          "type": "address"
        },
        {
          "internalType": "uint256[]",
          "name": "",
          "type": "uint256[]"
        },
        {
          "internalType": "uint256[]",
          "name": "",
          "type": "uint256[]"
        },
        {
          "internalType": "bytes",
          "name": "",
          "type": "bytes"
        }
      ],
      "name": "onERC1155BatchReceived",
      "outputs": [
        {
          "internalType": "bytes4",
          "name": "",
          "type": "bytes4"
        }
      ],
      "stateMutability": "nonpayable",
      "type": "function"
    },
    {
      "inputs": [
        {
          "internalType": "address",
          "name": "",
          "type": "address"
        },
        {
          "internalType": "address",
          "name": "",
          "type": "address"
        },
        {
          "internalType": "uint256",
          "name": "",
          "type": "uint256"
        },
        {
          "internalType": "uint256",
          "name": "",
          "type": "uint256"
        },
        {
          "internalType": "bytes",
          "name": "",
          "type": "bytes"
        }
      ],
      "name": "onERC1155Received",
      "outputs": [
        {
          "internalType": "bytes4",
          "name": "",
          "type": "bytes4"
        }
      ],
      "stateMutability": "nonpayable",
      "type": "function"
    },
    {
      "inputs": [
        {
          "internalType": "address",
          "name": "",
          "type": "address"
        },
        {
          "internalType": "address",
          "name": "",
          "type": "address"
        },
        {
          "internalType": "uint256",
          "name": "",
          "type": "uint256"
        },
        {
          "internalType": "bytes",
          "name": "",
          "type": "bytes"
        }
      ],
      "name": "onERC721Received",
      "outputs": [
        {
          "internalType": "bytes4",
          "name": "",
          "type": "bytes4"
        }
      ],
      "stateMutability": "nonpayable",
      "type": "function"
    },
    {
      "inputs": [],
      "name": "owner",
      "outputs": [
        {
          "internalType": "address",
          "name": "",
          "type": "address"
        }
      ],
      "stateMutability": "view",
      "type": "function"
    },
    {
      "inputs": [
        {
          "internalType": "uint256",
          "name": "proposalId",
          "type": "uint256"
        }
      ],
      "name": "proposalDeadline",
      "outputs": [
        {
          "internalType": "uint256",
          "name": "",
          "type": "uint256"
        }
      ],
      "stateMutability": "view",
      "type": "function"
    },
    {
      "inputs": [
        {
          "internalType": "uint256",
          "name": "proposalId",
          "type": "uint256"
        }
      ],
      "name": "proposalEta",
      "outputs": [
        {
          "internalType": "uint256",
          "name": "",
          "type": "uint256"
        }
      ],
      "stateMutability": "view",
      "type": "function"
    },
    {
      "inputs": [
        {
          "internalType": "uint256",
          "name": "proposalId",
          "type": "uint256"
        }
      ],
      "name": "proposalNeedsQueuing",
      "outputs": [
        {
          "internalType": "bool",
          "name": "",
          "type": "bool"
        }
      ],
      "stateMutability": "view",
      "type": "function"
    },
    {
      "inputs": [
        {
          "internalType": "uint256",
          "name": "proposalId",
          "type": "uint256"
        }
      ],
      "name": "proposalProposer",
      "outputs": [
        {
          "internalType": "address",
          "name": "",
          "type": "address"
        }
      ],
      "stateMutability": "view",
      "type": "function"
    },
    {
      "inputs": [
        {
          "internalType": "uint256",
          "name": "proposalId",
          "type": "uint256"
        }
      ],
      "name": "proposalSnapshot",
      "outputs": [
        {
          "internalType": "uint256",
          "name": "",
          "type": "uint256"
        }
      ],
      "stateMutability": "view",
      "type": "function"
    },
    {
      "inputs": [],
      "name": "proposalThreshold",
      "outputs": [
        {
          "internalType": "uint256",
          "name": "",
          "type": "uint256"
        }
      ],
      "stateMutability": "view",
      "type": "function"
    },
    {
      "inputs": [
        {
          "internalType": "uint256",
          "name": "proposalId",
          "type": "uint256"
        }
      ],
      "name": "proposalVotes",
      "outputs": [
        {
          "internalType": "uint256",
          "name": "againstVotes",
          "type": "uint256"
        },
        {
          "internalType": "uint256",
          "name": "forVotes",
          "type": "uint256"
        },
        {
          "internalType": "uint256",
          "name": "abstainVotes",
          "type": "uint256"
        }
      ],
      "stateMutability": "view",
      "type": "function"
    },
    {
      "inputs": [
        {
          "internalType": "address[]",
          "name": "targets",
          "type": "address[]"
        },
        {
          "internalType": "uint256[]",
          "name": "values",
          "type": "uint256[]"
        },
        {
          "internalType": "bytes[]",
          "name": "calldatas",
          "type": "bytes[]"
        },
        {
          "internalType": "string",
          "name": "description",
          "type": "string"
        },
        {
          "internalType": "string",
          "name": "currentModelUrl",
          "type": "string"
        }
      ],
      "name": "propose",
      "outputs": [
        {
          "internalType": "uint256",
          "name": "",
          "type": "uint256"
        }
      ],
      "stateMutability": "nonpayable",
      "type": "function"
    },
    {
      "inputs": [
        {
          "internalType": "address[]",
          "name": "targets",
          "type": "address[]"
        },
        {
          "internalType": "uint256[]",
          "name": "values",
          "type": "uint256[]"
        },
        {
          "internalType": "bytes[]",
          "name": "calldatas",
          "type": "bytes[]"
        },
        {
          "internalType": "string",
          "name": "description",
          "type": "string"
        }
      ],
      "name": "propose",
      "outputs": [
        {
          "internalType": "uint256",
          "name": "",
          "type": "uint256"
        }
      ],
      "stateMutability": "nonpayable",
      "type": "function"
    },
    {
      "inputs": [],
      "name": "proxiableUUID",
      "outputs": [
        {
          "internalType": "bytes32",
          "name": "",
          "type": "bytes32"
        }
      ],
      "stateMutability": "view",
      "type": "function"
    },
    {
      "inputs": [
        {
          "internalType": "address[]",
          "name": "targets",
          "type": "address[]"
        },
        {
          "internalType": "uint256[]",
          "name": "values",
          "type": "uint256[]"
        },
        {
          "internalType": "bytes[]",
          "name": "calldatas",
          "type": "bytes[]"
        },
        {
          "internalType": "bytes32",
          "name": "descriptionHash",
          "type": "bytes32"
        }
      ],
      "name": "queue",
      "outputs": [
        {
          "internalType": "uint256",
          "name": "",
          "type": "uint256"
        }
      ],
      "stateMutability": "nonpayable",
      "type": "function"
    },
    {
      "inputs": [
        {
          "internalType": "uint256",
          "name": "blockNumber",
          "type": "uint256"
        }
      ],
      "name": "quorum",
      "outputs": [
        {
          "internalType": "uint256",
          "name": "",
          "type": "uint256"
        }
      ],
      "stateMutability": "view",
      "type": "function"
    },
    {
      "inputs": [],
      "name": "quorumDenominator",
      "outputs": [
        {
          "internalType": "uint256",
          "name": "",
          "type": "uint256"
        }
      ],
      "stateMutability": "view",
      "type": "function"
    },
    {
      "inputs": [
        {
          "internalType": "uint256",
          "name": "timepoint",
          "type": "uint256"
        }
      ],
      "name": "quorumNumerator",
      "outputs": [
        {
          "internalType": "uint256",
          "name": "",
          "type": "uint256"
        }
      ],
      "stateMutability": "view",
      "type": "function"
    },
    {
      "inputs": [],
      "name": "quorumNumerator",
      "outputs": [
        {
          "internalType": "uint256",
          "name": "",
          "type": "uint256"
        }
      ],
      "stateMutability": "view",
      "type": "function"
    },
    {
      "inputs": [
        {
          "internalType": "address",
          "name": "target",
          "type": "address"
        },
        {
          "internalType": "uint256",
          "name": "value",
          "type": "uint256"
        },
        {
          "internalType": "bytes",
          "name": "data",
          "type": "bytes"
        }
      ],
      "name": "relay",
      "outputs": [],
      "stateMutability": "payable",
      "type": "function"
    },
    {
      "inputs": [],
      "name": "renounceOwnership",
      "outputs": [],
      "stateMutability": "nonpayable",
      "type": "function"
    },
    {
      "inputs": [
        {
          "internalType": "uint256",
          "name": "newProposalThreshold",
          "type": "uint256"
        }
      ],
      "name": "setProposalThreshold",
      "outputs": [],
      "stateMutability": "nonpayable",
      "type": "function"
    },
    {
      "inputs": [
        {
          "internalType": "uint48",
          "name": "newVotingDelay",
          "type": "uint48"
        }
      ],
      "name": "setVotingDelay",
      "outputs": [],
      "stateMutability": "nonpayable",
      "type": "function"
    },
    {
      "inputs": [
        {
          "internalType": "uint32",
          "name": "newVotingPeriod",
          "type": "uint32"
        }
      ],
      "name": "setVotingPeriod",
      "outputs": [],
      "stateMutability": "nonpayable",
      "type": "function"
    },
    {
      "inputs": [
        {
          "internalType": "uint256",
          "name": "proposalId",
          "type": "uint256"
        }
      ],
      "name": "state",
      "outputs": [
        {
          "internalType": "enum IGovernor.ProposalState",
          "name": "",
          "type": "uint8"
        }
      ],
      "stateMutability": "view",
      "type": "function"
    },
    {
      "inputs": [
        {
          "internalType": "bytes4",
          "name": "interfaceId",
          "type": "bytes4"
        }
      ],
      "name": "supportsInterface",
      "outputs": [
        {
          "internalType": "bool",
          "name": "",
          "type": "bool"
        }
      ],
      "stateMutability": "view",
      "type": "function"
    },
    {
      "inputs": [],
      "name": "timelock",
      "outputs": [
        {
          "internalType": "address",
          "name": "",
          "type": "address"
        }
      ],
      "stateMutability": "view",
      "type": "function"
    },
    {
      "inputs": [],
      "name": "token",
      "outputs": [
        {
          "internalType": "contract IERC5805",
          "name": "",
          "type": "address"
        }
      ],
      "stateMutability": "view",
      "type": "function"
    },
    {
      "inputs": [
        {
          "internalType": "address",
          "name": "newOwner",
          "type": "address"
        }
      ],
      "name": "transferOwnership",
      "outputs": [],
      "stateMutability": "nonpayable",
      "type": "function"
    },
    {
      "inputs": [
        {
          "internalType": "uint256",
          "name": "newQuorumNumerator",
          "type": "uint256"
        }
      ],
      "name": "updateQuorumNumerator",
      "outputs": [],
      "stateMutability": "nonpayable",
      "type": "function"
    },
    {
      "inputs": [
        {
          "internalType": "contract TimelockControllerUpgradeable",
          "name": "newTimelock",
          "type": "address"
        }
      ],
      "name": "updateTimelock",
      "outputs": [],
      "stateMutability": "nonpayable",
      "type": "function"
    },
    {
      "inputs": [
        {
          "internalType": "address",
          "name": "newImplementation",
          "type": "address"
        },
        {
          "internalType": "bytes",
          "name": "data",
          "type": "bytes"
        }
      ],
      "name": "upgradeToAndCall",
      "outputs": [],
      "stateMutability": "payable",
      "type": "function"
    },
    {
      "inputs": [],
      "name": "version",
      "outputs": [
        {
          "internalType": "string",
          "name": "",
          "type": "string"
        }
      ],
      "stateMutability": "view",
      "type": "function"
    },
    {
      "inputs": [],
      "name": "votingDelay",
      "outputs": [
        {
          "internalType": "uint256",
          "name": "",
          "type": "uint256"
        }
      ],
      "stateMutability": "view",
      "type": "function"
    },
    {
      "inputs": [],
      "name": "votingPeriod",
      "outputs": [
        {
          "internalType": "uint256",
          "name": "",
          "type": "uint256"
        }
      ],
      "stateMutability": "view",
      "type": "function"
    },
    {
      "stateMutability": "payable",
      "type": "receive"
    }
  ],
  "bytecode": "0x60a0604052306080523480156200001557600080fd5b506200002062000026565b620000da565b7ff0c57e16840df040f15088dc2f81fe391c3923bec73e23a9662efc9c229c6a00805468010000000000000000900460ff1615620000775760405163f92ee8a960e01b815260040160405180910390fd5b80546001600160401b0390811614620000d75780546001600160401b0319166001600160401b0390811782556040519081527fc7f505b2f371ae2175ee4913f4499e1f2633a7b5936321eed1cdaeb6115181d29060200160405180910390a15b50565b6080516153356200010460003960008181612085015281816120ae01526121f401526153356000f3fe60806040526004361061036f5760003560e01c80637ecebe00116101c6578063c01f9e37116100f7578063e540d01d11610095578063f23a6e611161006f578063f23a6e6114610b48578063f2fde38b14610b68578063f8ce560a14610b88578063fc0c546a14610ba857600080fd5b8063e540d01d14610ae8578063eb9019d414610b08578063ece40cc114610b2857600080fd5b8063c59057e4116100d1578063c59057e414610a39578063d33219b414610a59578063dd4e2ba514610a6e578063deaaa7cc14610ab457600080fd5b8063c01f9e37146109e6578063c0c53b8b14610a06578063c28bc2fa14610a2657600080fd5b8063a7713a7011610164578063ab58fb8e1161013e578063ab58fb8e1461093b578063ad3cb1cc14610980578063b58131b0146109b1578063bc197c81146109c657600080fd5b8063a7713a70146108e6578063a890c910146108fb578063a9a952941461091b57600080fd5b80638ff262e3116101a05780638ff262e31461086657806391ddadf41461088657806397c3d334146108b25780639a802a6d146108c657600080fd5b80637ecebe00146107d457806384b0196e146108295780638da5cb5b1461085157600080fd5b80634bf5d7e9116102a05780635b8d0e0d1161023e578063715018a611610218578063715018a61461075f57806379051887146107745780637b3c71d3146107945780637d5e81e2146107b457600080fd5b80635b8d0e0d146106ff5780635f398a141461071f57806360c4247f1461073f57600080fd5b806352d1902d1161027a57806352d1902d1461063e578063544ffc9c1461065357806354fd4d50146106b557806356781388146106df57600080fd5b80634bf5d7e9146105f65780634f1ef2861461060b5780635051ab311461061e57600080fd5b80632656227d1161030d5780633932abb1116102e75780633932abb11461053d5780633e4f49e614610552578063438596321461057f578063452115d6146105d657600080fd5b80632656227d146104d65780632d63f693146104e95780632fe3e2611461050957600080fd5b806306fdde031161034957806306fdde0314610423578063143489d014610445578063150b7a021461047d578063160cbed7146104b657600080fd5b806301ffc9a7146103ab57806302a251a3146103e057806306f3f9e61461040357600080fd5b366103a6573061037d610bbd565b6001600160a01b0316146103a457604051637485328f60e11b815260040160405180910390fd5b005b600080fd5b3480156103b757600080fd5b506103cb6103c6366004613f11565b610bcc565b60405190151581526020015b60405180910390f35b3480156103ec57600080fd5b506103f5610c1e565b6040519081526020016103d7565b34801561040f57600080fd5b506103a461041e366004613f3b565b610c7c565b34801561042f57600080fd5b50610438610c90565b6040516103d79190613fa4565b34801561045157600080fd5b50610465610460366004613f3b565b610d34565b6040516001600160a01b0390911681526020016103d7565b34801561048957600080fd5b5061049d61049836600461408f565b610d5c565b6040516001600160e01b031990911681526020016103d7565b3480156104c257600080fd5b506103f56104d1366004614263565b610d9f565b6103f56104e4366004614263565b610e81565b3480156104f557600080fd5b506103f5610504366004613f3b565b611005565b34801561051557600080fd5b506103f57f3e83946653575f9a39005e1545185629e92736b7528ab20ca3816f315424a81181565b34801561054957600080fd5b506103f5611033565b34801561055e57600080fd5b5061057261056d366004613f3b565b611064565b6040516103d7919061432a565b34801561058b57600080fd5b506103cb61059a366004614338565b60009182526000805160206152a0833981519152602090815260408084206001600160a01b039390931684526003909201905290205460ff1690565b3480156105e257600080fd5b506103f56105f1366004614263565b61106f565b34801561060257600080fd5b506104386110e6565b6103a4610619366004614368565b61118f565b34801561062a57600080fd5b506103f56106393660046143b7565b6111ae565b34801561064a57600080fd5b506103f56112bb565b34801561065f57600080fd5b5061069a61066e366004613f3b565b60009081526000805160206152a083398151915260205260409020805460018201546002909201549092565b604080519384526020840192909252908201526060016103d7565b3480156106c157600080fd5b506040805180820190915260018152603160f81b6020820152610438565b3480156106eb57600080fd5b506103f56106fa366004614499565b6112d8565b34801561070b57600080fd5b506103f561071a36600461450d565b611301565b34801561072b57600080fd5b506103f561073a3660046145c7565b611442565b34801561074b57600080fd5b506103f561075a366004613f3b565b611497565b34801561076b57600080fd5b506103a4611546565b34801561078057600080fd5b506103a461078f366004614644565b61155a565b3480156107a057600080fd5b506103f56107af366004614661565b61156b565b3480156107c057600080fd5b506103f56107cf3660046146ba565b6115b3565b3480156107e057600080fd5b506103f56107ef36600461475a565b6001600160a01b031660009081527f5ab42ced628888259c08ac98db1eb0cf702fc1501344311d8b100cd1bfe4bb00602052604090205490565b34801561083557600080fd5b5061083e611670565b6040516103d797969594939291906147b3565b34801561085d57600080fd5b5061046561171c565b34801561087257600080fd5b506103f5610881366004614823565b611751565b34801561089257600080fd5b5061089b611805565b60405165ffffffffffff90911681526020016103d7565b3480156108be57600080fd5b5060646103f5565b3480156108d257600080fd5b506103f56108e1366004614874565b611874565b3480156108f257600080fd5b506103f561188b565b34801561090757600080fd5b506103a461091636600461475a565b6118c6565b34801561092757600080fd5b506103cb610936366004613f3b565b6118d7565b34801561094757600080fd5b506103f5610956366004613f3b565b6000908152600080516020615220833981519152602052604090206001015465ffffffffffff1690565b34801561098c57600080fd5b50610438604051806040016040528060058152602001640352e302e360dc1b81525081565b3480156109bd57600080fd5b506103f56118e0565b3480156109d257600080fd5b5061049d6109e13660046148cc565b6118f8565b3480156109f257600080fd5b506103f5610a01366004613f3b565b61193c565b348015610a1257600080fd5b506103a4610a21366004614949565b61199d565b6103a4610a34366004614994565b611b12565b348015610a4557600080fd5b506103f5610a54366004614263565b611b92565b348015610a6557600080fd5b50610465611bcc565b348015610a7a57600080fd5b506040805180820190915260208082527f737570706f72743d627261766f2671756f72756d3d666f722c6162737461696e90820152610438565b348015610ac057600080fd5b506103f57ff2aad550cf55f045cb27e9c559f9889fdfb6e6cdaa032301d6ea397784ae51d781565b348015610af457600080fd5b506103a4610b033660046149d7565b611be3565b348015610b1457600080fd5b506103f5610b233660046149fd565b611bf4565b348015610b3457600080fd5b506103a4610b43366004613f3b565b611c15565b348015610b5457600080fd5b5061049d610b63366004614a29565b611c26565b348015610b7457600080fd5b506103a4610b8336600461475a565b611c6a565b348015610b9457600080fd5b506103f5610ba3366004613f3b565b611ca5565b348015610bb457600080fd5b50610465611cb0565b6000610bc7611bcc565b905090565b60006001600160e01b031982166332a2ad4360e11b1480610bfd57506001600160e01b03198216630271189760e51b145b80610c1857506301ffc9a760e01b6001600160e01b03198316145b92915050565b600080548082526002602052604082205415610c4857600090815260026020526040902054919050565b7ed7616c8fe29c6c2fbe1d0c5bc8f2faa4c35b43746e70b24b4d532752affd0154600160301b900463ffffffff1691505090565b610c84611cd9565b610c8d81611d64565b50565b6000805160206152e08339815191528054606091908190610cb090614a91565b80601f0160208091040260200160405190810160405280929190818152602001828054610cdc90614a91565b8015610d295780601f10610cfe57610100808354040283529160200191610d29565b820191906000526020600020905b815481529060010190602001808311610d0c57829003601f168201915b505050505091505090565b600090815260008051602061522083398151915260205260409020546001600160a01b031690565b600030610d67610bbd565b6001600160a01b031614610d8e57604051637485328f60e11b815260040160405180910390fd5b50630a85bd0160e11b949350505050565b60006000805160206152e083398151915281610dbd87878787611b92565b9050610dd281610dcd6004611e1b565b611e3e565b506000610de28289898989611e7d565b905065ffffffffffff811615610e5d57600082815260018481016020908152604092839020909101805465ffffffffffff191665ffffffffffff85169081179091558251858152918201527f9a2e42fd6722813d69113e7d0079d3d940171428df7373df9c7f7617cfda2892910160405180910390a1610e76565b604051634844252360e11b815260040160405180910390fd5b509695505050505050565b60006000805160206152e083398151915281610e9f87878787611b92565b9050610ebf81610eaf6005611e1b565b610eb96004611e1b565b17611e3e565b5060008181526001830160205260409020805460ff60f01b1916600160f01b17905530610eea610bbd565b6001600160a01b031614610f765760005b8751811015610f7457306001600160a01b0316888281518110610f2057610f20614acb565b60200260200101516001600160a01b031603610f6c57610f6c868281518110610f4b57610f4b614acb565b60200260200101518051906020012084600201611e8c90919063ffffffff16565b600101610efb565b505b610f838188888888611efd565b30610f8c610bbd565b6001600160a01b031614158015610fba575060028201546001600160801b03808216600160801b9092041614155b15610fc757600060028301555b6040518181527f712ae1383f79ac853f8d882153778e0260ef8f03b504e2866e0593e04d2b291f906020015b60405180910390a19695505050505050565b60009081526000805160206152208339815191526020526040902054600160a01b900465ffffffffffff1690565b6000610bc77ed7616c8fe29c6c2fbe1d0c5bc8f2faa4c35b43746e70b24b4d532752affd015465ffffffffffff1690565b6000610c1882611f11565b60008061107e86868686611b92565b905061108e81610dcd6000611e1b565b5061109881610d34565b6001600160a01b0316336001600160a01b0316146110d05760405163233d98e360e01b81523360048201526024015b60405180910390fd5b6110dc86868686612063565b9695505050505050565b60606110f0611cb0565b6001600160a01b0316634bf5d7e96040518163ffffffff1660e01b8152600401600060405180830381865afa92505050801561114e57506040513d6000823e601f3d908101601f1916820160405261114b9190810190614ae1565b60015b61118a575060408051808201909152601d81527f6d6f64653d626c6f636b6e756d6265722666726f6d3d64656661756c74000000602082015290565b919050565b61119761207a565b6111a08261211f565b6111aa8282612127565b5050565b6000806111bd878787876115b3565b9050807f9c770c289ab5bf7e57cb1d23c8ceae993aea46eb64847072fd3d78ca60d3e432846040516111ef9190613fa4565b60405180910390a26000806001805461120790614a91565b905011156112635760016040516020016112219190614b4e565b60405160208183030381529060405280519060200120846040516020016112489190614bc4565b60405160208183030381529060405280519060200120141590505b600161126f8582614c30565b50600061127e898989896115b3565b9050811561129e57600081815260026020526040902061c4e090556112ae565b6000818152600260205260408120555b5090979650505050505050565b60006112c56121e9565b5060008051602061528083398151915290565b6000803390506112f984828560405180602001604052806000815250612232565b949350505050565b6000806113c6876113c07f3e83946653575f9a39005e1545185629e92736b7528ab20ca3816f315424a8118c8c8c6113388e612255565b8d8d604051611348929190614cef565b60405180910390208c805190602001206040516020016113a59796959493929190968752602087019590955260ff9390931660408601526001600160a01b03919091166060850152608084015260a083015260c082015260e00190565b60405160208183030381529060405280519060200120612297565b856122c4565b9050806113f1576040516394ab6c0760e01b81526001600160a01b03881660048201526024016110c7565b61143589888a89898080601f0160208091040260200160405190810160405280939291908181526020018383808284376000920191909152508b925061231c915050565b9998505050505050505050565b60008033905061148c87828888888080601f0160208091040260200160405190810160405280939291908181526020018383808284376000920191909152508a925061231c915050565b979650505050505050565b7fe770710421fd2cad75ad828c61aa98f2d77d423a440b67872d0f65554148e00080546000919082826114cb600184614d15565b815481106114db576114db614acb565b6000918252602090912001805490915065ffffffffffff811690600160301b90046001600160d01b031686821161151f576001600160d01b03169695505050505050565b61153261152b886123f9565b8690612430565b6001600160d01b0316979650505050505050565b61154e6124e5565b6115586000612517565b565b611562611cd9565b610c8d81612588565b6000803390506110dc86828787878080601f01602080910402602001604051908101604052809392919081815260200183838082843760009201919091525061223292505050565b6000336115c0818461261d565b6115e85760405163d9b3955760e01b81526001600160a01b03821660048201526024016110c7565b600061160f8260016115f8611805565b6116029190614d28565b65ffffffffffff16611bf4565b9050600061161b6118e0565b90508082101561165757604051636121770b60e11b81526001600160a01b038416600482015260248101839052604481018290526064016110c7565b6116648888888887612708565b98975050505050505050565b60006060808280808381600080516020615240833981519152805490915015801561169d57506001810154155b6116e15760405162461bcd60e51b81526020600482015260156024820152741152540dcc4c8e88155b9a5b9a5d1a585b1a5e9959605a1b60448201526064016110c7565b6116e9612930565b6116f161296f565b60408051600080825260208201909252600f60f81b9c939b5091995046985030975095509350915050565b6000807f9016d09d72d40fdae2fd8ceac6b6234c7706214fd39c1cd1e609a0528c1993005b546001600160a01b031692915050565b6000806117bf846113c07ff2aad550cf55f045cb27e9c559f9889fdfb6e6cdaa032301d6ea397784ae51d78989896117888b612255565b60408051602081019690965285019390935260ff90911660608401526001600160a01b0316608083015260a082015260c0016113a5565b9050806117ea576040516394ab6c0760e01b81526001600160a01b03851660048201526024016110c7565b6110dc86858760405180602001604052806000815250612232565b600061180f611cb0565b6001600160a01b03166391ddadf46040518163ffffffff1660e01b8152600401602060405180830381865afa925050508015611868575060408051601f3d908101601f1916820190925261186591810190614d4e565b60015b61118a57610bc76129ae565b60006118818484846129b9565b90505b9392505050565b60007fe770710421fd2cad75ad828c61aa98f2d77d423a440b67872d0f65554148e0006118b781612a36565b6001600160d01b031691505090565b6118ce611cd9565b610c8d81612a6f565b60006001610c18565b6000610bc76000805160206152608339815191525490565b600030611903610bbd565b6001600160a01b03161461192a57604051637485328f60e11b815260040160405180910390fd5b5063bc197c8160e01b95945050505050565b600081815260008051602061522083398151915260205260408120546000805160206152e08339815191529061198e90600160d01b810463ffffffff1690600160a01b900465ffffffffffff16614d6b565b65ffffffffffff169392505050565b7ff0c57e16840df040f15088dc2f81fe391c3923bec73e23a9662efc9c229c6a008054600160401b810460ff1615906001600160401b03166000811580156119e25750825b90506000826001600160401b031660011480156119fe5750303b155b905081158015611a0c575080155b15611a2a5760405163f92ee8a960e01b815260040160405180910390fd5b845467ffffffffffffffff191660011785558315611a5457845460ff60401b1916600160401b1785555b611a7f6040518060400160405280600a81526020016926bca3b7bb32b93737b960b11b815250612ae5565b611a8d611c20806000612b1d565b611a95612b30565b611a9e88612b38565b611aa86004612b49565b611ab187612b5a565b611aba86612b6b565b611ac2612b30565b8315611b0857845460ff60401b19168555604051600181527fc7f505b2f371ae2175ee4913f4499e1f2633a7b5936321eed1cdaeb6115181d29060200160405180910390a15b5050505050505050565b611b1a611cd9565b600080856001600160a01b0316858585604051611b38929190614cef565b60006040518083038185875af1925050503d8060008114611b75576040519150601f19603f3d011682016040523d82523d6000602084013e611b7a565b606091505b5091509150611b898282612b7c565b50505050505050565b600084848484604051602001611bab9493929190614e11565b60408051601f19818403018152919052805160209091012095945050505050565b6000806000805160206152c0833981519152611741565b611beb611cd9565b610c8d81612b98565b60006118848383611c1060408051602081019091526000815290565b6129b9565b611c1d611cd9565b610c8d81612c48565b600030611c31610bbd565b6001600160a01b031614611c5857604051637485328f60e11b815260040160405180910390fd5b5063f23a6e6160e01b95945050505050565b611c726124e5565b6001600160a01b038116611c9c57604051631e4fbdf760e01b8152600060048201526024016110c7565b610c8d81612517565b6000610c1882612c96565b6000807f3ba4977254e415696610a40ebf2258dbfa0ec6a2ff64e84bfe715ff16977cc00611741565b6000805160206152e083398151915233611cf1610bbd565b6001600160a01b031614611d1a576040516347096e4760e01b81523360048201526024016110c7565b30611d23610bbd565b6001600160a01b031614610c8d5760008036604051611d43929190614cef565b604051809103902090505b80611d5b83600201612d2d565b03611d4e575050565b7fe770710421fd2cad75ad828c61aa98f2d77d423a440b67872d0f65554148e000606480831115611db25760405163243e544560e01b815260048101849052602481018290526044016110c7565b6000611dbc61188b565b9050611dda611dc9611805565b611dd286612dab565b859190612ddf565b505060408051828152602081018690527f0553476bf02ef2726e8ce5ced78d63e26e602e4a2257b1f559418e24b4633997910160405180910390a150505050565b6000816007811115611e2f57611e2f6142f2565b600160ff919091161b92915050565b600080611e4a84611064565b9050600083611e5883611e1b565b1603611884578381846040516331b75e4d60e01b81526004016110c793929190614e5c565b60006110dc8686868686612dfa565b81546001600160801b03600160801b820481169181166001830190911603611ec757604051638acb5f2760e01b815260040160405180910390fd5b6001600160801b03808216600090815260018086016020526040909120939093558354919092018216600160801b029116179055565b611f0a8585858585612fa1565b5050505050565b60006000805160206152c083398151915281611f2c84613049565b90506005816007811115611f4257611f426142f2565b14611f4e579392505050565b6000848152600183016020526040908190205483549151632c258a9f60e11b81526004810182905290916001600160a01b03169063584b153e90602401602060405180830381865afa158015611fa8573d6000803e3d6000fd5b505050506040513d601f19601f82011682018060405250810190611fcc9190614e7e565b15611fdc57506005949350505050565b8254604051632ab0f52960e01b8152600481018390526001600160a01b0390911690632ab0f52990602401602060405180830381865afa158015612024573d6000803e3d6000fd5b505050506040513d601f19601f820116820180604052508101906120489190614e7e565b1561205857506007949350505050565b506002949350505050565b6000612071858585856131c2565b95945050505050565b306001600160a01b037f000000000000000000000000000000000000000000000000000000000000000016148061210157507f00000000000000000000000000000000000000000000000000000000000000006001600160a01b03166120f5600080516020615280833981519152546001600160a01b031690565b6001600160a01b031614155b156115585760405163703e46dd60e11b815260040160405180910390fd5b610c8d6124e5565b816001600160a01b03166352d1902d6040518163ffffffff1660e01b8152600401602060405180830381865afa925050508015612181575060408051601f3d908101601f1916820190925261217e91810190614ea0565b60015b6121a957604051634c9c8ce360e01b81526001600160a01b03831660048201526024016110c7565b60008051602061528083398151915281146121da57604051632a87526960e21b8152600481018290526024016110c7565b6121e48383613274565b505050565b306001600160a01b037f000000000000000000000000000000000000000000000000000000000000000016146115585760405163703e46dd60e11b815260040160405180910390fd5b60006120718585858561225060408051602081019091526000815290565b61231c565b6001600160a01b031660009081527f5ab42ced628888259c08ac98db1eb0cf702fc1501344311d8b100cd1bfe4bb006020526040902080546001810190915590565b6000610c186122a46132ca565b8360405161190160f01b8152600281019290925260228201526042902090565b60008060006122d385856132d4565b50909250905060008160038111156122ed576122ed6142f2565b14801561230b5750856001600160a01b0316826001600160a01b0316145b806110dc57506110dc868686613321565b600061232c86610dcd6001611e1b565b5060006123428661233c89611005565b856129b9565b905061235187878784876133fc565b82516000036123a657856001600160a01b03167fb8e138887d0aa13bab447e82de9d5c1777041ecd21ca36ba824ff1e6c07ddda4888784886040516123999493929190614eb9565b60405180910390a26110dc565b856001600160a01b03167fe2babfbac5889a709b63bb7f598b324e08bc5a4fb9ec647fb3cbc9ec07eb871288878488886040516123e7959493929190614ee1565b60405180910390a29695505050505050565b600065ffffffffffff82111561242c576040516306dfcc6560e41b815260306004820152602481018390526044016110c7565b5090565b81546000908181600581111561248f57600061244b84613505565b6124559085614d15565b60008881526020902090915081015465ffffffffffff908116908716101561247f5780915061248d565b61248a816001614f1b565b92505b505b600061249d878785856135ed565b905080156124d8576124c2876124b4600184614d15565b600091825260209091200190565b54600160301b90046001600160d01b031661148c565b6000979650505050505050565b336124ee61171c565b6001600160a01b0316146115585760405163118cdaa760e01b81523360048201526024016110c7565b7f9016d09d72d40fdae2fd8ceac6b6234c7706214fd39c1cd1e609a0528c19930080546001600160a01b031981166001600160a01b03848116918217845560405192169182907f8be0079c531659141344cd1fd0a4f28419497f9722a3daafe3b4186f6b6457e090600090a3505050565b7ed7616c8fe29c6c2fbe1d0c5bc8f2faa4c35b43746e70b24b4d532752affd01546040805165ffffffffffff928316815291831660208301528051600080516020615260833981519152927fc565b045403dc03c2eea82b81a0465edad9e2e7fc4d97e11421c209da93d7a9392908290030190a1600101805465ffffffffffff191665ffffffffffff92909216919091179055565b80516000906034811015612635576001915050610c18565b82810160131901516001600160a01b031981166b046e0e4dee0dee6cae47a60f60a31b1461266857600192505050610c18565b600080612676602885614d15565b90505b838110156126e7576000806126ad88848151811061269957612699614acb565b01602001516001600160f81b03191661364f565b91509150816126c55760019650505050505050610c18565b8060ff166004856001600160a01b0316901b1793505050806001019050612679565b50856001600160a01b0316816001600160a01b031614935050505092915050565b6000806000805160206152e0833981519152905061272f8787878780519060200120611b92565b91508551875114158061274457508451875114155b8061274e57508651155b1561278357865185518751604051630447b05d60e41b81526004810193909352602483019190915260448201526064016110c7565b6000828152600182016020526040902054600160a01b900465ffffffffffff16156127d057816127b283611064565b6040516331b75e4d60e01b81526110c7929190600090600401614e5c565b60006127da611033565b6127e2611805565b65ffffffffffff166127f49190614f1b565b90506000612800610c1e565b6000858152600185016020526040902080546001600160a01b0319166001600160a01b038816178155909150612835836123f9565b815465ffffffffffff91909116600160a01b0265ffffffffffff60a01b19909116178155612862826136e1565b815463ffffffff91909116600160d01b0263ffffffff60d01b1990911617815589517f7d84a6263ae0d98d3329bd7b46bb4e8d6f98cd35a7adb45c274c8b7fd5ebd5e090869088908d908d906001600160401b038111156128c5576128c5613fcc565b6040519080825280602002602001820160405280156128f857816020015b60608152602001906001900390816128e35790505b508d896129058a82614f1b565b8f60405161291b99989796959493929190614f2e565b60405180910390a15050505095945050505050565b7fa16a46d94261c7517cc8ff89f61c0ce93598e3c849801011dee649a6a557d102805460609160008051602061524083398151915291610cb090614a91565b7fa16a46d94261c7517cc8ff89f61c0ce93598e3c849801011dee649a6a557d103805460609160008051602061524083398151915291610cb090614a91565b6000610bc7436123f9565b60006129c3611cb0565b604051630748d63560e31b81526001600160a01b038681166004830152602482018690529190911690633a46b1a890604401602060405180830381865afa158015612a12573d6000803e3d6000fd5b505050506040513d601f19601f820116820180604052508101906118819190614ea0565b80546000908015612a6657612a50836124b4600184614d15565b54600160301b90046001600160d01b0316611884565b60009392505050565b6000805160206152c08339815191528054604080516001600160a01b039283168152918416602083015280517f08f74ea46ef7894f65eabfb5e6e695de773a000b47c529ab559178069b2264019281900390910190a180546001600160a01b0319166001600160a01b0392909216919091179055565b612aed613712565b612b1481612b0f6040805180820190915260018152603160f81b602082015290565b61375b565b610c8d816137bc565b612b25613712565b6121e48383836137de565b611558613712565b612b40613712565b610c8d81613801565b612b51613712565b610c8d8161384a565b612b62613712565b610c8d81613852565b612b73613712565b610c8d8161385a565b606082612b9157612b8c82613862565b610c18565b5080610c18565b60008051602061526083398151915263ffffffff8216600003612bd15760405163f1cfbf0560e01b8152600060048201526024016110c7565b60018101546040805163ffffffff600160301b9093048316815291841660208301527f7e3f7f0708a84de9203036abaa450dccc85ad5ff52f78c170f3edb55cf5e8828910160405180910390a1600101805463ffffffff909216600160301b0269ffffffff00000000000019909216919091179055565b6000805160206152608339815191528054604080519182526020820184905280517fccb45da8d5717e6c4544694297c4ba5cf151d455c9bb0ed4fc7a38411bc054619281900390910190a155565b60006064612ca383611497565b612cab611cb0565b6001600160a01b0316638e539e8c856040518263ffffffff1660e01b8152600401612cd891815260200190565b602060405180830381865afa158015612cf5573d6000803e3d6000fd5b505050506040513d601f19601f82011682018060405250810190612d199190614ea0565b612d239190615005565b610c189190615032565b80546000906001600160801b0380821691600160801b9004168103612d65576040516375e52f4f60e01b815260040160405180910390fd5b6001600160801b038181166000908152600185810160205260408220805492905585546fffffffffffffffffffffffffffffffff19169301909116919091179092555090565b60006001600160d01b0382111561242c576040516306dfcc6560e41b815260d06004820152602481018390526044016110c7565b600080612ded85858561388b565b915091505b935093915050565b6000805160206152c083398151915280546040805163793d064960e11b815290516000939284926001600160a01b039091169163f27a0c92916004808201926020929091908290030181865afa158015612e58573d6000803e3d6000fd5b505050506040513d601f19601f82011682018060405250810190612e7c9190614ea0565b905060003060601b6bffffffffffffffffffffffff19168518835460405163b1c5f42760e01b81529192506001600160a01b03169063b1c5f42790612ece908b908b908b906000908890600401615054565b602060405180830381865afa158015612eeb573d6000803e3d6000fd5b505050506040513d601f19601f82011682018060405250810190612f0f9190614ea0565b60008a815260018501602052604080822092909255845491516308f2a0bb60e41b81526001600160a01b0390921691638f2a0bb091612f5b918c918c918c919088908a906004016150a2565b600060405180830381600087803b158015612f7557600080fd5b505af1158015612f89573d6000803e3d6000fd5b505050506114358242612f9c9190614f1b565b6123f9565b6000805160206152c0833981519152805460405163e38335e560e01b81526001600160a01b039091169063e38335e5903490612ffe908990899089906000906bffffffffffffffffffffffff193060601b168b1890600401615054565b6000604051808303818588803b15801561301757600080fd5b505af115801561302b573d6000803e3d6000fd5b50505060009788525050600101602052505060408320929092555050565b60008181526000805160206152208339815191526020526040812080546000805160206152e0833981519152919060ff600160f01b8204811691600160f81b900416811561309d5750600795945050505050565b80156130af5750600295945050505050565b60006130ba87611005565b9050806000036130e057604051636ad0607560e01b8152600481018890526024016110c7565b60006130ea611805565b65ffffffffffff16905080821061310957506000979650505050505050565b60006131148961193c565b905081811061312c5750600198975050505050505050565b61313589613a05565b1580613162575060008981526000805160206152a083398151915260205260409020805460019091015411155b156131765750600398975050505050505050565b6000898152600080516020615220833981519152602052604090206001015465ffffffffffff166000036131b35750600498975050505050505050565b50600598975050505050505050565b60006000805160206152c0833981519152816131e087878787613a4c565b60008181526001840160205260409020549091508015610e7657825460405163c4d252f560e01b8152600481018390526001600160a01b039091169063c4d252f590602401600060405180830381600087803b15801561323f57600080fd5b505af1158015613253573d6000803e3d6000fd5b50505060008381526001850160205260408120555050915050949350505050565b61327d82613b0e565b6040516001600160a01b038316907fbc7cd75a20ee27fd9adebab32041f755214dbc6bffa90cc0225b39da2e5c2d3b90600090a28051156132c2576121e48282613b73565b6111aa613be0565b6000610bc7613bff565b6000806000835160410361330e5760208401516040850151606086015160001a61330088828585613c73565b95509550955050505061331a565b50508151600091506002905b9250925092565b6000806000856001600160a01b031685856040516024016133439291906150fa565b60408051601f198184030181529181526020820180516001600160e01b0316630b135d3f60e11b179052516133789190614bc4565b600060405180830381855afa9150503d80600081146133b3576040519150601f19603f3d011682016040523d82523d6000602084013e6133b8565b606091505b50915091508180156133cc57506020815110155b80156110dc57508051630b135d3f60e11b906133f19083016020908101908401614ea0565b149695505050505050565b60008581526000805160206152a0833981519152602081815260408084206001600160a01b0389168552600381019092529092205490919060ff1615613460576040516371c6af4960e01b81526001600160a01b03871660048201526024016110c7565b6001600160a01b03861660009081526003820160205260409020805460ff1916600117905560ff85166134ac57838160000160008282546134a19190614f1b565b90915550611b899050565b60001960ff8616016134cc57838160010160008282546134a19190614f1b565b60011960ff8616016134ec57838160020160008282546134a19190614f1b565b6040516303599be160e11b815260040160405180910390fd5b60008160000361351757506000919050565b6000600161352484613d42565b901c6001901b9050600181848161353d5761353d61501c565b048201901c905060018184816135555761355561501c565b048201901c9050600181848161356d5761356d61501c565b048201901c905060018184816135855761358561501c565b048201901c9050600181848161359d5761359d61501c565b048201901c905060018184816135b5576135b561501c565b048201901c905060018184816135cd576135cd61501c565b048201901c9050611884818285816135e7576135e761501c565b04613dd6565b60005b818310156136475760006136048484613dec565b60008781526020902090915065ffffffffffff86169082015465ffffffffffff16111561363357809250613641565b61363e816001614f1b565b93505b506135f0565b509392505050565b60008060f883901c602f8111801561366a5750603a8160ff16105b1561367f57600194602f199091019350915050565b8060ff166040108015613695575060478160ff16105b156136aa576001946036199091019350915050565b8060ff1660601080156136c0575060678160ff16105b156136d5576001946056199091019350915050565b50600093849350915050565b600063ffffffff82111561242c576040516306dfcc6560e41b815260206004820152602481018390526044016110c7565b7ff0c57e16840df040f15088dc2f81fe391c3923bec73e23a9662efc9c229c6a0054600160401b900460ff1661155857604051631afcd79f60e31b815260040160405180910390fd5b613763613712565b6000805160206152408339815191527fa16a46d94261c7517cc8ff89f61c0ce93598e3c849801011dee649a6a557d10261379d8482614c30565b50600381016137ac8382614c30565b5060008082556001909101555050565b6137c4613712565b6000805160206152e0833981519152806121e48382614c30565b6137e6613712565b6137ef83612588565b6137f882612b98565b6121e481612c48565b613809613712565b7f3ba4977254e415696610a40ebf2258dbfa0ec6a2ff64e84bfe715ff16977cc0080546001600160a01b0319166001600160a01b0392909216919091179055565b610c84613712565b6118ce613712565b611c72613712565b8051156138725780518082602001fd5b604051630a12f52160e11b815260040160405180910390fd5b8254600090819080156139aa5760006138a9876124b4600185614d15565b60408051808201909152905465ffffffffffff808216808452600160301b9092046001600160d01b0316602084015291925090871610156138fd57604051632520601d60e01b815260040160405180910390fd5b805165ffffffffffff8088169116036139495784613920886124b4600186614d15565b80546001600160d01b0392909216600160301b0265ffffffffffff90921691909117905561399a565b6040805180820190915265ffffffffffff80881682526001600160d01b0380881660208085019182528b54600181018d5560008d81529190912094519151909216600160301b029216919091179101555b602001519250839150612df29050565b50506040805180820190915265ffffffffffff80851682526001600160d01b0380851660208085019182528854600181018a5560008a815291822095519251909316600160301b029190931617920191909155905081612df2565b60008181526000805160206152a083398151915260208190526040822060028101546001820154613a369190614f1b565b613a42610ba386611005565b1115949350505050565b60006000805160206152e083398151915281613a6a87878787611b92565b9050613ab881613a7a6007611e1b565b613a846006611e1b565b613a8e6002611e1b565b6001613a9b600782615113565b613aa6906002615210565b613ab09190614d15565b181818611e3e565b5060008181526001830160205260409081902080546001600160f81b0316600160f81b179055517f789cf55be980739dad1d0699b93b58e806b51c9d96619bfa8fe0a28abaa7b30c90610ff39083815260200190565b806001600160a01b03163b600003613b4457604051634c9c8ce360e01b81526001600160a01b03821660048201526024016110c7565b60008051602061528083398151915280546001600160a01b0319166001600160a01b0392909216919091179055565b6060600080846001600160a01b031684604051613b909190614bc4565b600060405180830381855af49150503d8060008114613bcb576040519150601f19603f3d011682016040523d82523d6000602084013e613bd0565b606091505b5091509150612071858383613e07565b34156115585760405163b398979f60e01b815260040160405180910390fd5b60007f8b73c3c69bb8fe3d512ecc4cf759cc79239f7b179b0ffacaa9a75d522b39400f613c2a613e63565b613c32613ecd565b60408051602081019490945283019190915260608201524660808201523060a082015260c00160405160208183030381529060405280519060200120905090565b600080807f7fffffffffffffffffffffffffffffff5d576e7357a4501ddfe92f46681b20a0841115613cae5750600091506003905082613d38565b604080516000808252602082018084528a905260ff891692820192909252606081018790526080810186905260019060a0016020604051602081039080840390855afa158015613d02573d6000803e3d6000fd5b5050604051601f1901519150506001600160a01b038116613d2e57506000925060019150829050613d38565b9250600091508190505b9450945094915050565b600080608083901c15613d5757608092831c92015b604083901c15613d6957604092831c92015b602083901c15613d7b57602092831c92015b601083901c15613d8d57601092831c92015b600883901c15613d9f57600892831c92015b600483901c15613db157600492831c92015b600283901c15613dc357600292831c92015b600183901c15610c185760010192915050565b6000818310613de55781611884565b5090919050565b6000613dfb6002848418615032565b61188490848416614f1b565b606082613e1c57613e1782613862565b611884565b8151158015613e3357506001600160a01b0384163b155b15613e5c57604051639996b31560e01b81526001600160a01b03851660048201526024016110c7565b5080611884565b600060008051602061524083398151915281613e7d612930565b805190915015613e9557805160209091012092915050565b81548015613ea4579392505050565b7fc5d2460186f7233c927e7db2dcc703c0e500b653ca82273b7bfad8045d85a470935050505090565b600060008051602061524083398151915281613ee761296f565b805190915015613eff57805160209091012092915050565b60018201548015613ea4579392505050565b600060208284031215613f2357600080fd5b81356001600160e01b03198116811461188457600080fd5b600060208284031215613f4d57600080fd5b5035919050565b60005b83811015613f6f578181015183820152602001613f57565b50506000910152565b60008151808452613f90816020860160208601613f54565b601f01601f19169290920160200192915050565b6020815260006118846020830184613f78565b6001600160a01b0381168114610c8d57600080fd5b634e487b7160e01b600052604160045260246000fd5b604051601f8201601f191681016001600160401b038111828210171561400a5761400a613fcc565b604052919050565b60006001600160401b0382111561402b5761402b613fcc565b50601f01601f191660200190565b600082601f83011261404a57600080fd5b813561405d61405882614012565b613fe2565b81815284602083860101111561407257600080fd5b816020850160208301376000918101602001919091529392505050565b600080600080608085870312156140a557600080fd5b84356140b081613fb7565b935060208501356140c081613fb7565b92506040850135915060608501356001600160401b038111156140e257600080fd5b6140ee87828801614039565b91505092959194509250565b60006001600160401b0382111561411357614113613fcc565b5060051b60200190565b600082601f83011261412e57600080fd5b8135602061413e614058836140fa565b8083825260208201915060208460051b87010193508684111561416057600080fd5b602086015b84811015610e7657803561417881613fb7565b8352918301918301614165565b600082601f83011261419657600080fd5b813560206141a6614058836140fa565b8083825260208201915060208460051b8701019350868411156141c857600080fd5b602086015b84811015610e7657803583529183019183016141cd565b600082601f8301126141f557600080fd5b81356020614205614058836140fa565b82815260059290921b8401810191818101908684111561422457600080fd5b8286015b84811015610e765780356001600160401b038111156142475760008081fd5b6142558986838b0101614039565b845250918301918301614228565b6000806000806080858703121561427957600080fd5b84356001600160401b038082111561429057600080fd5b61429c8883890161411d565b955060208701359150808211156142b257600080fd5b6142be88838901614185565b945060408701359150808211156142d457600080fd5b506142e1878288016141e4565b949793965093946060013593505050565b634e487b7160e01b600052602160045260246000fd5b6008811061432657634e487b7160e01b600052602160045260246000fd5b9052565b60208101610c188284614308565b6000806040838503121561434b57600080fd5b82359150602083013561435d81613fb7565b809150509250929050565b6000806040838503121561437b57600080fd5b823561438681613fb7565b915060208301356001600160401b038111156143a157600080fd5b6143ad85828601614039565b9150509250929050565b600080600080600060a086880312156143cf57600080fd5b85356001600160401b03808211156143e657600080fd5b6143f289838a0161411d565b9650602088013591508082111561440857600080fd5b61441489838a01614185565b9550604088013591508082111561442a57600080fd5b61443689838a016141e4565b9450606088013591508082111561444c57600080fd5b61445889838a01614039565b9350608088013591508082111561446e57600080fd5b5061447b88828901614039565b9150509295509295909350565b803560ff8116811461118a57600080fd5b600080604083850312156144ac57600080fd5b823591506144bc60208401614488565b90509250929050565b60008083601f8401126144d757600080fd5b5081356001600160401b038111156144ee57600080fd5b60208301915083602082850101111561450657600080fd5b9250929050565b600080600080600080600060c0888a03121561452857600080fd5b8735965061453860208901614488565b9550604088013561454881613fb7565b945060608801356001600160401b038082111561456457600080fd5b6145708b838c016144c5565b909650945060808a013591508082111561458957600080fd5b6145958b838c01614039565b935060a08a01359150808211156145ab57600080fd5b506145b88a828b01614039565b91505092959891949750929550565b6000806000806000608086880312156145df57600080fd5b853594506145ef60208701614488565b935060408601356001600160401b038082111561460b57600080fd5b61461789838a016144c5565b9095509350606088013591508082111561446e57600080fd5b65ffffffffffff81168114610c8d57600080fd5b60006020828403121561465657600080fd5b813561188481614630565b6000806000806060858703121561467757600080fd5b8435935061468760208601614488565b925060408501356001600160401b038111156146a257600080fd5b6146ae878288016144c5565b95989497509550505050565b600080600080608085870312156146d057600080fd5b84356001600160401b03808211156146e757600080fd5b6146f38883890161411d565b9550602087013591508082111561470957600080fd5b61471588838901614185565b9450604087013591508082111561472b57600080fd5b614737888389016141e4565b9350606087013591508082111561474d57600080fd5b506140ee87828801614039565b60006020828403121561476c57600080fd5b813561188481613fb7565b60008151808452602080850194506020840160005b838110156147a85781518752958201959082019060010161478c565b509495945050505050565b60ff60f81b8816815260e0602082015260006147d260e0830189613f78565b82810360408401526147e48189613f78565b606084018890526001600160a01b038716608085015260a0840186905283810360c085015290506148158185614777565b9a9950505050505050505050565b6000806000806080858703121561483957600080fd5b8435935061484960208601614488565b9250604085013561485981613fb7565b915060608501356001600160401b038111156140e257600080fd5b60008060006060848603121561488957600080fd5b833561489481613fb7565b92506020840135915060408401356001600160401b038111156148b657600080fd5b6148c286828701614039565b9150509250925092565b600080600080600060a086880312156148e457600080fd5b85356148ef81613fb7565b945060208601356148ff81613fb7565b935060408601356001600160401b038082111561491b57600080fd5b61492789838a01614185565b9450606088013591508082111561493d57600080fd5b61445889838a01614185565b60008060006060848603121561495e57600080fd5b833561496981613fb7565b9250602084013561497981613fb7565b9150604084013561498981613fb7565b809150509250925092565b600080600080606085870312156149aa57600080fd5b84356149b581613fb7565b93506020850135925060408501356001600160401b038111156146a257600080fd5b6000602082840312156149e957600080fd5b813563ffffffff8116811461188457600080fd5b60008060408385031215614a1057600080fd5b8235614a1b81613fb7565b946020939093013593505050565b600080600080600060a08688031215614a4157600080fd5b8535614a4c81613fb7565b94506020860135614a5c81613fb7565b9350604086013592506060860135915060808601356001600160401b03811115614a8557600080fd5b61447b88828901614039565b600181811c90821680614aa557607f821691505b602082108103614ac557634e487b7160e01b600052602260045260246000fd5b50919050565b634e487b7160e01b600052603260045260246000fd5b600060208284031215614af357600080fd5b81516001600160401b03811115614b0957600080fd5b8201601f81018413614b1a57600080fd5b8051614b2861405882614012565b818152856020838501011115614b3d57600080fd5b612071826020830160208601613f54565b6000808354614b5c81614a91565b60018281168015614b745760018114614b8957614bb8565b60ff1984168752821515830287019450614bb8565b8760005260208060002060005b85811015614baf5781548a820152908401908201614b96565b50505082870194505b50929695505050505050565b60008251614bd6818460208701613f54565b9190910192915050565b601f8211156121e4576000816000526020600020601f850160051c81016020861015614c095750805b601f850160051c820191505b81811015614c2857828155600101614c15565b505050505050565b81516001600160401b03811115614c4957614c49613fcc565b614c5d81614c578454614a91565b84614be0565b602080601f831160018114614c925760008415614c7a5750858301515b600019600386901b1c1916600185901b178555614c28565b600085815260208120601f198616915b82811015614cc157888601518255948401946001909101908401614ca2565b5085821015614cdf5787850151600019600388901b60f8161c191681555b5050505050600190811b01905550565b8183823760009101908152919050565b634e487b7160e01b600052601160045260246000fd5b81810381811115610c1857610c18614cff565b65ffffffffffff828116828216039080821115614d4757614d47614cff565b5092915050565b600060208284031215614d6057600080fd5b815161188481614630565b65ffffffffffff818116838216019080821115614d4757614d47614cff565b60008151808452602080850194506020840160005b838110156147a85781516001600160a01b031687529582019590820190600101614d9f565b60008282518085526020808601955060208260051b8401016020860160005b848110156112ae57601f19868403018952614dff838351613f78565b98840198925090830190600101614de3565b608081526000614e246080830187614d8a565b8281036020840152614e368187614777565b90508281036040840152614e4a8186614dc4565b91505082606083015295945050505050565b83815260608101614e706020830185614308565b826040830152949350505050565b600060208284031215614e9057600080fd5b8151801515811461188457600080fd5b600060208284031215614eb257600080fd5b5051919050565b84815260ff841660208201528260408201526080606082015260006110dc6080830184613f78565b85815260ff8516602082015283604082015260a060608201526000614f0960a0830185613f78565b82810360808401526116648185613f78565b80820180821115610c1857610c18614cff565b60006101208b8352602060018060a01b038c1681850152816040850152614f578285018c614d8a565b91508382036060850152614f6b828b614777565b915083820360808501528189518084528284019150828160051b850101838c0160005b83811015614fbc57601f19878403018552614faa838351613f78565b94860194925090850190600101614f8e565b505086810360a0880152614fd0818c614dc4565b9450505050508560c08401528460e0840152828103610100840152614ff58185613f78565b9c9b505050505050505050505050565b8082028115828204841417610c1857610c18614cff565b634e487b7160e01b600052601260045260246000fd5b60008261504f57634e487b7160e01b600052601260045260246000fd5b500490565b60a08152600061506760a0830188614d8a565b82810360208401526150798188614777565b9050828103604084015261508d8187614dc4565b60608401959095525050608001529392505050565b60c0815260006150b560c0830189614d8a565b82810360208401526150c78189614777565b905082810360408401526150db8188614dc4565b60608401969096525050608081019290925260a0909101529392505050565b8281526040602082015260006118816040830184613f78565b60ff8181168382160190811115610c1857610c18614cff565b600181815b8085111561516757816000190482111561514d5761514d614cff565b8085161561515a57918102915b93841c9390800290615131565b509250929050565b60008261517e57506001610c18565b8161518b57506000610c18565b81600181146151a157600281146151ab576151c7565b6001915050610c18565b60ff8411156151bc576151bc614cff565b50506001821b610c18565b5060208310610133831016604e8410600b84101617156151ea575081810a610c18565b6151f4838361512c565b806000190482111561520857615208614cff565b029392505050565b600061188460ff84168361516f56fe7c712897014dbe49c045ef1299aa2d5f9e67e48eea4403efa21f1e0f3ac0cb01a16a46d94261c7517cc8ff89f61c0ce93598e3c849801011dee649a6a557d10000d7616c8fe29c6c2fbe1d0c5bc8f2faa4c35b43746e70b24b4d532752affd00360894a13ba1a3210667c828492db98dca3e2076cc3735a920a3ca505d382bbca1cefa0f43667ef127a258e673c94202a79b656e62899531c4376d87a7f398000d5829787b8befdbc6044ef7457d8a95c2a04bc99235349f1a212c063e59d4007c712897014dbe49c045ef1299aa2d5f9e67e48eea4403efa21f1e0f3ac0cb00a26469706673582212205962193e729ebfc1ff903401803c57c68266d9210e82fc485c3ec4bdb3cb760564736f6c63430008180033",
  "linkReferences": {},
  "deployedLinkReferences": {}
}